:100000000C947A000C949B000C949B000C949B0025
:100010000C949B000C949B000C949B000C949B00F4
:100020000C949B000C949B000C949B000C949B00E4
:100030000C949B000C949B000C949B000C949B00D4
:100040000C949B000C94C1080C949B000C949B0096
:100050000C949B000C941C090C949B000C949B002A
:100060000C949B000C949B000C949B000C949B00A4
:100070000C949B000C949B000C949B000C949B0094
:100080000C949B000C949B000C949B000C949B0084
:100090000C949B000C949B000C949B000C949B0074
:1000A0000C949B000C949B000C949B000C949B0064
:1000B0000C949B000C949B000C949B000C949B0054
:1000C0000C949B000C949B000C949B000C949B0044
:1000D0000C949B000C949B000C949B000C949B0034
:1000E0000C949B000C949E030C949D000C94260A87
:1000F0000C94BB0A11241FBECFEFD1E2DEBFCDBFEF
:1001000000E00CBF13E0A0E0B2E0ECECFCE100E0AA
:100110000BBF02C007900D92AE30B107D9F723E0B4
:10012000AEE0B3E001C01D92AA31B207E1F70E9430
:10013000A00C0C94640E0C9400007894C201F101A0
:10014000099482E08093C0001092C50080E1809302
:10015000C400E1ECF0E080818861808308958091A3
:10016000C000881F8827881F08958091C00087FFDE
:1001700003C08091C60008958FEF08959091C1004B
:1001800095FDFCCF9091C00095FFF8CF8093C600FD
:1001900081E00895FC012081222371F03196909135
:1001A000C10095FDFCCF9091C00095FFF8CF209342
:1001B000C60021912111F3CF08950F931F93CF9380
:1001C000DF9300D000D0CDB7DEB7FC019C013295A3
:1001D00022952F7023273F702327A7E4B3E00E94C6
:1001E000F90C96958795969587959695879540E312
:1001F000480F49839F013695279536952795369563
:100200002795A5ECB0E20E94F90C929582958F702B
:1002100089279F7089270AE010E0B8010E94C30C6B
:10022000805D8A839F013695279536952795ABE7A4
:10023000B4E10E94F90C96958795B8010E94C30C11
:10024000805D8B839F01ADECBCEC0E94F90C9C019E
:10025000369527953695279536952795C901B80186
:100260000E94C30C805D8C83C901880F991F880F81
:10027000991F820F931F880F991FE81BF90BE05DF0
:10028000ED831E82F0E0E0E04033E9F0442381F0AA
:10029000EC0FFD1F32969091C10095FDFCCF90911F
:1002A000C00095FFF8CF4093C60041914111F3CFB4
:1002B00026960FB6F894DEBF0FBECDBFDF91CF916B
:1002C0001F910F9108953196E530F10561F4809109
:1002D000C10085FDFCCF8091C00085FFF8CF80E391
:1002E0008093C600E5CFA1E0B0E0AC0FBD1FAE0F1C
:1002F000BF1F4C91C9CF8F929F92AF92BF92CF9266
:10030000DF92EF92FF921F93CF93DF9300D000D044
:1003100000D01F92CDB7DEB74B015C0120E03AEC74
:100320004AE95BE30E94D70C205D2983C501B40133
:1003300020E031EE45EF55E00E94D70C8AE0C82E50
:10034000D12CE12CF12CCA01B901A70196010E9420
:10035000D70C605D6A83C501B40120E836E948E93D
:1003600050E00E94D70CCA01B901A70196010E9472
:10037000D70C605D6B83C501B40120E432E44FE02B
:1003800050E00E94D70CCA01B901A70196010E9452
:10039000D70C605D6C83C501B40120EA36E841E00A
:1003A00050E00E94D70CCA01B901A70196010E9432
:1003B000D70C605D6D83C501B40120E137E240E0F8
:1003C00050E00E94D70CCA01B901A70196010E9412
:1003D000D70C605D6E83C501B40128EE33E040E0C8
:1003E00050E00E94D70CCA01B901A70196010E94F2
:1003F000D70C605D6F83C501B40124E630E040E0B6
:1004000050E00E94D70CCA01B901A70196010E94D1
:10041000D70C605D6887C501B401A70196010E94F1
:10042000D70C162FCA01B901A70196010E94D70C5B
:10043000605D6987105D1A871B86FE013196AE01EB
:10044000455F5F4FDF019D012E1B3F0B9D91903358
:1004500029F1992389F02F5F3F4FE20FF31F80911D
:10046000C10085FDFCCF8091C00085FFF8CF90933F
:10047000C60091919111F3CF2A960FB6F894DEBF82
:100480000FBECDBFDF91CF911F91FF90EF90DF9016
:10049000CF90BF90AF909F908F900895A417B5070D
:1004A00091F68091C10085FDFCCF8091C00085FF51
:1004B000F8CF80E38093C600DFCF1F93CF93DF9305
:1004C00000D01F92CDB7DEB7009709F461C0AE012E
:1004D0004F5F5F4FFA01BA0130E020E0DC01AF70FE
:1004E000BB27A65FBD4F1C91DB011D93BD012F5F94
:1004F0003F4F929582958F7089279F70892700972B
:1005000069F7B901759567956115710509F446C0DC
:10051000DA01A20FB31F640F751F80819E91892796
:1005200080839C9189278C93908189278193E617FA
:10053000F70799F7240F351FF9011082EBE1F2E07C
:1005400090E38091C10085FDFCCF8091C00085FFC4
:10055000F8CF9093C60091919111F3CF998199238F
:1005600079F0FE0132968091C10085FDFCCF80912B
:10057000C00085FFF8CF9093C60091919111F3CF01
:100580000F900F900F900F90DF91CF911F910895D2
:1005900030E020E0AE014F5F5F4FCCCF21E030E094
:1005A000C9CFCF92DF92EF92FF920F931F93CF9319
:1005B000DF936B017C0188E090E00E94380D8C0194
:1005C0009C01C114D104E104F104A9F1DC01F0E0C3
:1005D000E0E0B701A6014F70552766277727465FF1
:1005E0005D4FEA012881EC012993CE01319624E088
:1005F000F694E794D794C7942A95D1F79E01C11435
:10060000D104E104F10429F7AF015595479541154F
:10061000510589F0E00FF11F400F511F9C9182910D
:1006200098279C938081982790838C9198279D93FD
:10063000A417B50799F7F9011082EBE1F2E080E326
:100640009091C10095FDFCCF9091C00095FFF8CF2F
:100650008093C60081918111F3CFE80188818823BE
:1006600079F0F80131969091C10095FDFCCF909101
:10067000C00095FFF8CF8093C60081918111F3CF20
:10068000C801DF91CF911F910F91FF90EF90DF9004
:10069000CF900C94D40D8091C10085FDFCCF80914A
:1006A000C00085FFF8CF8BE18093C600EEE1F2E059
:1006B0009BE58091C10085FDFCCF8091C00085FF46
:1006C000F8CF9093C60091919111F3CF0895CF93F5
:1006D000C62F9091C10095FDFCCF9091C00095FF71
:1006E000F8CF9BE19093C6009091C10095FDFCCF9F
:1006F0009091C00095FFF8CF9BE59093C60090E0E5
:100700000E94DD008091C10085FDFCCF8091C0007A
:1007100085FFF8CF8BE38093C6008C2F90E00E947A
:10072000DD008091C10085FDFCCF8091C00085FF78
:10073000F8CF88E48093C600CF910895CF93DF93DC
:10074000CDB7DEB760970FB6F894DEBF0FBECDBF52
:100750009C838B83FC010280F381E02DFA83E98383
:10076000FC010481158129813A812F5F3F4F3C872D
:100770002B87A8014F5F5F4F5E874D871801E98186
:10078000FA818785908923853485281B390B388B1E
:100790002F8725853685AC01420F531F5E834D831D
:1007A000F1018785908923853485A901481B590B60
:1007B00058874F8325853685FC01E20FF31FFA87A2
:1007C000E9878091C00087FD05C261E081E00E9459
:1007D0006703E2E2F2E093E58091C10085FDFCCF82
:1007E0008091C00085FFF8CF9093C6009191911140
:1007F000F3CFEB81FC812289338936952795369595
:100800002795ABE7B4E10E94F90C969587950E9475
:10081000DD0061E082E00E946703E3E3F2E09EE432
:100820008091C10085FDFCCF8091C00085FFF8CF8D
:100830009093C60091919111F3CFEB81FC81808957
:1008400091890E94DD0061E084E00E94670355E524
:10085000A52E52E0B52EF50194E58091C10085FDED
:10086000FCCF8091C00085FFF8CF9093C600919196
:100870009111F3CFE981FA81828590E00E94DD0039
:1008800061E085E00E94670341E6C42E42E0D42E79
:10089000F60194E58091C10085FDFCCF8091C000F8
:1008A00085FFF8CF9093C60091919111F3CFE98124
:1008B000FA819081992379F0EB85FC858091C100C4
:1008C00085FDFCCF8091C00085FFF8CF9093C600D6
:1008D00091919111F3CF61E086E00E9467033FE6BA
:1008E000E32E32E0F32EF70193E58091C10085FD00
:1008F000FCCF8091C00085FFF8CF9093C600919106
:100900009111F3CFE981FA81818992890E945D0278
:1009100061E087E00E94670307E812E0F80192E4D3
:100920008091C10085FDFCCF8091C00085FFF8CF8C
:100930009093C60091919111F3CF8F8598890E9471
:10094000DD0061E088E00E94670321EA32E0388B35
:100950002F87F90193E58091C10085FDFCCF80913F
:10096000C00085FFF8CF9093C60091919111F3CF0D
:10097000E981FA81858596850E94DD0061E089E044
:100980000E9467032EEA822E22E0922EF40193E465
:100990008091C10085FDFCCF8091C00085FFF8CF1C
:1009A0009093C60091919111F3CFE981FA818385EB
:1009B00094850E945D0261E08AE00E94670395ECE5
:1009C000692E92E0792EF30193E58091C10085FDB7
:1009D000FCCF8091C00085FFF8CF9093C600919125
:1009E0009111F3CFE981FA81878590890E945D0298
:1009F00061E08BE00E94670385ED482E82E0582E6F
:100A0000F20195E48091C10085FDFCCF8091C0008A
:100A100085FFF8CF9093C60091919111F3CF8D810E
:100A20009E810E945D0261E08DE00E94670394E573
:100A30008091C10085FDFCCF8091C00085FFF8CF7B
:100A40009093C600F50191915F019111F1CFF101F1
:100A5000828590E00E94DD0061E08EE00E946703E5
:100A600094E58091C10085FDFCCF8091C00085FF99
:100A7000F8CF9093C600F60191916F019111F1CFDB
:100A8000F1019081992379F0ED85FE858091C10077
:100A900085FDFCCF8091C00085FFF8CF9093C60004
:100AA00091919111F3CF61E08FE00E94670393E58C
:100AB0008091C10085FDFCCF8091C00085FFF8CFFB
:100AC0009093C600F70191917F019111F1CFF1014F
:100AD000818992890E945D0261E080E10E94670342
:100AE00092E48091C10085FDFCCF8091C00085FF1C
:100AF000F8CF9093C600F80191918F019111F1CF39
:100B00008F8198850E94DD0061E081E10E9467038A
:100B100093E58091C10085FDFCCF8091C00085FFE9
:100B2000F8CF9093C600EF85F8899191F88BEF8705
:100B30009111EFCFF101858596850E94DD0061E07E
:100B400082E10E94670393E48091C10085FDFCCFA0
:100B50008091C00085FFF8CF9093C600F401919179
:100B60004F019111F1CFF101838594850E945D02BF
:100B700061E083E10E94670393E58091C10085FDF8
:100B8000FCCF8091C00085FFF8CF9093C600F301A1
:100B900091913F019111F1CFF101878590890E94D8
:100BA0005D0261E084E10E94670395E48091C100E9
:100BB00085FDFCCF8091C00085FFF8CF9093C600E3
:100BC000F20191912F019111F1CF89859A850E94AF
:100BD0005D02D5CD8091C6008A36E9F078F0823783
:100BE00021F1853709F0F1CD809102029091030245
:100BF00005969093030280930202E7CD863609F0B2
:100C0000E4CD80910002909101020597909301023A
:100C100080930002DACD8091020290910302059741
:100C20009093030280930202D0CD809100029091B4
:100C3000010205969093010280930002C6CD909127
:100C4000C10095FDFCCF9091C00095FFF8CF9BE1CE
:100C50009093C6009091C10095FDFCCF9091C0008B
:100C600095FFF8CF9BE59093C60090E00E94DD00D1
:100C70008091C10085FDFCCF8091C00085FFF8CF39
:100C80008DE68093C6000895CF93DF93EC0188E052
:100C900090E09F838E8362E070E00E941C0D9D8334
:100CA0008C8319861886DF91CF910895CF93DF93B7
:100CB000FC01F89481E090E0938382832085318564
:100CC000215031093187208737FF06C026813781BF
:100CD0002150310931872087220F331F848195816C
:100CE000280F391FE901A881B98181E053968C93BF
:100CF00053971A968C9190E0918380837894DF913A
:100D0000CF910895CF93DF93EC01862F660F990B57
:100D10009983888362E070E00E941C0D9B838A8324
:100D20001F821E82DF91CF910895CF93DF93FC0144
:100D3000F89420813181215031093183208337FD9E
:100D400004C07894DF91CF910895A0911003B091E1
:100D500011035496CD91DC915597CC0FDD1FCA0F2E
:100D6000DB1F0990D881C02D82E08B8B8681978113
:100D70000196978386832481358182179307ECF44B
:100D8000880F991F22813381820F931FFC01D18329
:100D9000C08354968D919C915597880F991FA80FE9
:100DA000B91FED91FC918AE090E0958B848B82E0F5
:100DB000838B7894DF91CF9108951782168290E00B
:100DC00080E0E0CFFC01F894268137812150310981
:100DD0003783268337FF04C02481358137832683F8
:100DE000220F331F82819381280F391FD901ED9182
:100DF000FC9181E0838B78940895CF93DF93C9E1D0
:100E0000DCE764E18C2F0E9467038091C10085FDBF
:100E1000FCCF8091C00085FFF8CFD093C60068E179
:100E20008C2F0E9467038091C10085FDFCCF8091CB
:100E3000C00085FFF8CFD093C600C150CE3009F76F
:100E400065E189E10E946703E7EEF2E09FE58091AA
:100E5000C10085FDFCCF8091C00085FFF8CF909345
:100E6000C60091919111F3CFDF91CF910895DF9258
:100E7000EF92FF920F931F93CF93DF93EC010E94A9
:100E8000FD0688E190E07C01EC1AFD0A89E1E81694
:100E9000F104BCF409E110E09FE5D92E66E1802F52
:100EA0000E9467038091C10085FDFCCF8091C00046
:100EB00085FFF8CFD092C600015011090E151F050D
:100EC00069F718E11C1B6FE0812F0E946703EBEEAE
:100ED000F2E09DE28091C10085FDFCCF8091C000D1
:100EE00085FFF8CF9093C60091919111F3CF0E94A6
:100EF0004B030E94FD066FE0812F0E946703EFEE17
:100F0000F2E09DE28091C10085FDFCCF8091C000A0
:100F100085FFF8CF9093C60091919111F3CF07E12F
:100F200010E00C1B1D0B09311105B4F4C9E1D0E030
:100F30008FE5F82E66E18C2F0E9467038091C10037
:100F400085FDFCCF8091C00085FFF8CFF092C600F0
:100F50002197C017D10771F7DF91CF911F910F91A2
:100F6000FF90EF90DF900895DF92EF92FF920F9342
:100F70001F93CF93DF93EC010E94FD0686E190E082
:100F80007C01EC1AFD0A89E1E816F104BCF409E1E0
:100F900010E09FE5D92E66E1802F0E9467038091C3
:100FA000C10085FDFCCF8091C00085FFF8CFD092B5
:100FB000C600015011090E151F0569F769E187E1A7
:100FC0008C1B0E946703EFEEF2E09DE28091C1006E
:100FD00085FDFCCF8091C00085FFF8CF9093C600BF
:100FE00091919111F3CF0E944B030E94FD0687E17E
:100FF00090E07C01EC1AFD0A89E1E816F104BCF4EA
:1010000009E110E08FE5D82E66E1802F0E9467038A
:101010008091C10085FDFCCF8091C00085FFF8CF95
:10102000D092C600015011090E151F0569F769E13C
:1010300088E18C1B0E946703E2EFF2E09DE2809161
:10104000C10085FDFCCF8091C00085FFF8CF909353
:10105000C60091919111F3CFDF91CF911F910F9124
:10106000FF90EF90DF900895089584E290E0FC01F6
:10107000208184E290E02068FC01208385E290E0FA
:10108000FC01208185E290E02068FC012083089526
:1010900084E290E0FC01208184E290E02068FC0181
:1010A000208385E290E0FC01208185E290E02F74AE
:1010B000FC0120830895181619066CF430E020E036
:1010C000EFE9FFE03197F1F700C000002F5F3F4FDD
:1010D00082179307A9F70895CAE0D0E012E00E94B2
:1010E0003508E0911003F091110384899589880FE8
:1010F000991FE80FF91F0190F081E02DD58BC48B6B
:10110000138B0E944808E0911003F0911103848929
:101110009589880F991FE80FF91F0190F081E02D44
:10112000D58BC48B138BDBCFCF93DF93C091100390
:10113000D091110388899989029700F1DE011296F6
:1011400081E090E041E006C0019628893989821744
:101150009307A0F4ED91FD9123892230A9F724890A
:10116000358921503109358B248B232B69F7438B2B
:101170000196288939898217930760F3DF91CF910F
:1011800008951F920F920FB60F9211240F900FBE69
:101190000F901F901895EEE6F0E0808182608083CA
:1011A00084B5826084BD85B5856085BD8CE987BDC9
:1011B00089E09DE39093890080938800EFE6F0E05A
:1011C000808182608083E1E8F0E080818D608083AF
:1011D00008952F923F924F925F926F927F928F92DB
:1011E0009F92AF92BF92CF92DF92EF92FF920F93B6
:1011F0001F93CF93DF93FF27EDE521903080FB0114
:1012000021923082FC0121903080FF27EDE5219270
:101210003082DF91CF911F910F91FF90EF90DF907F
:10122000CF90BF90AF909F908F907F906F905F9086
:101230004F903F902F9008951F920F920FB60F92EC
:1012400011240BB60F922F933F934F935F936F939D
:101250007F938F939F93AF93BF93CF93DF93EF933E
:10126000FF93E0911003F091110382899389019615
:10127000938B828B80899189029738F1EF012296B6
:1012800081E090E041E006C0019620893189821713
:101290009307D8F4A991B99153962C915397223082
:1012A00099F754962D913C915597215031095596B7
:1012B0003C932E935497232B39F753964C930196D6
:1012C000208931898217930728F3648975892489D5
:1012D000358911C02F5F3F4FA901D901AA0FBB1F4C
:1012E000AE0FBF1F0D90BC91A02D53969C915397AC
:1012F0009250923058F48089918901978217930710
:1013000049F741E050E021E030E0E7CF558B448BD6
:10131000660F771FE60FF71F0190F081E02D83899C
:101320008250823010F081E0838B53961C92539749
:10133000BF01655F7F4FCD010B960E94E908FF91C9
:10134000EF91DF91CF91BF91AF919F918F917F915D
:101350006F915F914F913F912F910F900BBE0F9026
:101360000FBE0F901F901895BC01A0911003B09173
:10137000110354962D913C9155970FC02F5F3F4F0D
:10138000A901F901EE0FFF1FEA0FFB1F0190F08189
:10139000E02D93899250923070F450964D915C916B
:1013A0005197415051094217530741F741E050E02E
:1013B00021E030E0E6CF55965C934E935497138A24
:1013C000655F7F4FCF010B960E94E90878940895DE
:1013D000CF93DF93EC01F8948A819B81892B29F5C7
:1013E000E0911003F091110384899589880F991F6A
:1013F000E80FF91F8081918128853985A901440F63
:10140000551FEC81FD81E40FF51F918380832F5FD1
:101410003F4F398728874E815F81241735079CF419
:1014200023E0FC01238B0E94B4091B821A82E09105
:101430001003F091110384899589998388837894A6
:10144000DF91CF91089519861886EACF7C0152E08A
:10145000A52EBB24B394CC24C394D12CE0911003CB
:10146000F091110384899589880F991FE80FF91F5E
:101470000190F081E02D8091000290910102958B06
:10148000848BA38AD0E0C0E005C02196CA30D10584
:1014900009F464C08E010E0D1F1DD8018C918823A4
:1014A000A1F380911403909115030E9495068091F9
:1014B0001203909113030E94E809F801B082E091B1
:1014C0001203F0911303F894D382C2828085918530
:1014D00001979187808797FF05C086819781019743
:1014E00091878087880F991F24813581820F931FF0
:1014F000DC018D919C91DC015396BC9253971A9616
:101500008C9190E0918380837894E0911003F09126
:101510001103D78AC68ACE010E943707E0910E03D5
:10152000F0910F03F89486819781019797838683C2
:1015300097FF04C08481958197838683880F991FC4
:1015400022813381820F931FDC01ED91FC91B38ADC
:1015500078942196CA30D10509F09CCFE091100310
:10156000F0911103178A168A809112039091130348
:101570000E94E80973CF7C0152E0C52E01E010E023
:10158000DD24D394E0911003F091110384899589AF
:10159000880F991FE80FF91F0190F081E02D8091CD
:1015A000020290910302958B848BC38AC9E0D0E03C
:1015B00003C0219709F45CC05E01AE0CBF1CD501CD
:1015C0008C918823B1F380910E0390910F030E94B8
:1015D000950680911203909113030E94E809F5018A
:1015E0001082E0911203F0911303F89413830283A5
:1015F0008085918501979187808797FF05C08681B7
:101600009781019791878087880F991F2481358161
:10161000820F931FDC018D919C91DC015396DC922B
:1016200053971A968C9190E0918380837894CE01A1
:101630000E94B407E0911403F0911503F894868199
:10164000978101979783868397FF04C08481958152
:1016500097838683880F991F22813381820F931F7E
:10166000DC01ED91FC91D38A7894219709F0A4CF05
:1016700080911203909113030E94E80983CFE091B7
:101680001003F091110324893589220F331FE20FD3
:10169000F31F60817181655F7F4FDC0116962D918C
:1016A0003C911797220F331F1296ED91FC91E20F98
:1016B000F31F808191810B960E94E90808956F9233
:1016C0007F928F929F92AF92BF92CF92DF92EF92D2
:1016D000FF920F931F93CF93DF934C01B62EA72E4B
:1016E0003A018901E0901003F0901103F701C088DE
:1016F000D188C6010196918B808B86E190E00E9493
:10170000380DEC01CA868AE0F401DE0101900D92E9
:101710008A95E1F7B98AAA8AC8018A969E878D8739
:101720000E94380D988B8F87F8017496E80FF91F87
:10173000FC87EB871D8A1C8A81E08B8B138A8DE9DD
:1017400090E0948B858BA18AB28A608A7786CC0CD4
:10175000DD1CEC0CFD1CF701D183C083DF91CF9120
:101760001F910F91FF90EF90DF90CF90BF90AF90BF
:101770009F908F907F906F900895A0911003B091EB
:10178000110354968D919C9155970EC00196AC0112
:10179000FC01EE0FFF1FEA0FFB1F0190F081E02D0F
:1017A00023892250223070F450962D913C9151970C
:1017B000215031092817390749F741E050E081E00D
:1017C00090E0E6CF55965C934E9354970895E09140
:1017D0001003F0911103848995890895E091100315
:1017E000F091110384899589880F991FE80FF91FDB
:1017F000808191810895E0911003F0911103248973
:101800003589220F331FE20FF31F0190F081E02D85
:10181000958B848B82E0838B08950E944B03E0912B
:101820001003F091110381E090E0958B848B0E946E
:10183000CB087894E0911003F091110360817181DD
:10184000655F7F4F828193810B960E94E90808951E
:1018500088E190E00E94380DFC0190931103809381
:10186000100381E090E0918B808B158A148A138A93
:10187000128A0895EF92FF920F931F93CF93DF93F5
:1018800061E070E08AE090E00E941C0D8C01C09144
:101890000E03D0910F038AE0E82EF12CF982E88242
:1018A00062E070E08AE090E00E941C0D9B838A83D6
:1018B0001F821E82C0911403D0911503F982E88221
:1018C00062E070E08AE090E00E941C0D9B838A83B6
:1018D0001F821E82C0911203D091130388E090E012
:1018E0009F838E8362E070E00E941C0D9D838C8339
:1018F00019861886409110035091110328EC30E0AE
:101900006EE973E085EF92E00E945F0B22E330E026
:10191000A80166E27AE08BEF92E00E945F0B22E37F
:1019200030E0A8016BEB7AE084E093E00E945F0B6B
:10193000DF91CF911F910F91FF90EF900C940D0CC0
:1019400082E08093C0001092C50080E18093C400C3
:10195000E1ECF0E080818861808388E190E00E9482
:10196000380DFC01909311038093100381E090E007
:10197000918B808B158A148A138A128A0E943A0CE2
:1019800090E080E0089597FB072E16F4009407D0AE
:1019900077FD09D00E94080D07FC05D03EF4909514
:1019A00081959F4F0895709561957F4F0895A1E2AD
:1019B0001A2EAA1BBB1BFD010DC0AA1FBB1FEE1FC9
:1019C000FF1FA217B307E407F50720F0A21BB30B14
:1019D000E40BF50B661F771F881F991F1A9469F790
:1019E00060957095809590959B01AC01BD01CF01EC
:1019F0000895A29FB001B39FC001A39F700D811DE8
:101A00001124911DB29F700D811D1124911D089507
:101A1000AA1BBB1B51E107C0AA1FBB1FA617B70714
:101A200010F0A61BB70B881F991F5A95A9F7809530
:101A30009095BC01CD0108950F931F93CF93DF9331
:101A4000869F8001879F100D969F100D1124C8015D
:101A50000E94380DEC01009729F0A80170E060E0C9
:101A60000E945D0ECE01DF91CF911F910F910895DD
:101A70000F931F93CF93DF938230910510F482E090
:101A800090E0E0911803F091190330E020E0B0E01D
:101A9000A0E0309799F42115310509F44AC0281BBC
:101AA000390B24303105D8F58A819B816115710588
:101AB00089F1FB0193838283FE0111C04081518132
:101AC0000281138148175907E0F04817590799F424
:101AD000109761F012960C93129713961C933296FE
:101AE000CF01DF91CF911F910F91089500931803BB
:101AF00010931903F4CF2115310551F04217530704
:101B000038F0A901DB019A01BD01DF01F801C1CF65
:101B1000EF01F9CF9093190380931803CDCFFE0105
:101B2000E20FF31F81939193225031093983288367
:101B3000D7CF2091160330911703232B41F4209126
:101B40000602309107023093170320931603209169
:101B50000402309105022115310541F42DB73EB73D
:101B60004091080250910902241B350BE0911603A5
:101B7000F0911703E217F307A0F42E1B3F0B281771
:101B8000390778F0AC014E5F5F4F2417350748F0F6
:101B90004E0F5F1F50931703409316038193919349
:101BA0009FCFF0E0E0E09CCFCF93DF930097E9F088
:101BB000FC01329713821282A0911803B09119038D
:101BC000ED0130E020E01097A1F420813181820FF7
:101BD000931F20911603309117032817390709F036
:101BE00061C0F0931703E0931603DF91CF9108953E
:101BF000EA01CE17DF07E8F54A815B819E014115B6
:101C00005105B1F7E901FB83EA8349915991C40F6A
:101C1000D51FEC17FD0761F4808191810296840F36
:101C2000951FE90199838883828193819B838A83AD
:101C3000F0E0E0E012968D919C9113970097B9F532
:101C40002D913C911197CD010296820F931F209107
:101C50001603309117032817390739F6309751F5D5
:101C60001092190310921803B0931703A093160350
:101C7000BCCFD383C28340815181840F951FC81785
:101C8000D90761F44E5F5F4F88819981480F591FD2
:101C9000518340838A819B819383828321153105FF
:101CA00009F0B0CFF0931903E09318039ECFFD0124
:101CB000DC01C0CF13821282D7CFDC0101C06D934B
:0C1CC00041505040E0F70895F894FFCF29
:101CCC006400640000001A032000303132333435D4
:101CDC00363738394142434445463078005B324A06
:101CEC000053797374656D2074696D652069733A5E
:101CFC0020004E756D626572206F66207468726587
:101D0C0061647320696E20746865207379737465DF
:101D1C006D3A20005468726561642069643A200051
:101D2C00546872656164206E616D653A200053746D
:101D3C00617274696E67205043206F6620746872FC
:101D4C006561643A2000427974657320757365642B
:101D5C002062792074686520737461636B3A20008B
:101D6C00537461636B2073697A653A200043757212
:101D7C0072656E7420746F70206F6620737461636B
:101D8C006B3A2000537461636B2062617365206948
:101D9C00733A2000456E64206F6620737461636B28
:101DAC002061743A20005F5F5F002D3E78002D3E6D
:101DBC00002D3E580073746174730070726F6475FB
:0E1DCC0063657200636F6E73756D6572000063
:00000001FF
