:100000000C9478000C9499000C9499000C9499002D
:100010000C9499000C9499000C9499000C949900FC
:100020000C9499000C9499000C9499000C949900EC
:100030000C9499000C9499000C9499000C949900DC
:100040000C9499000C94D2080C9499000C9499008B
:100050000C9499000C942D090C9499000C9499001F
:100060000C9499000C9499000C9499000C949900AC
:100070000C9499000C9499000C9499000C9499009C
:100080000C9499000C9499000C9499000C9499008C
:100090000C9499000C9499000C9499000C9499007C
:1000A0000C9499000C9499000C9499000C9499006C
:1000B0000C9499000C9499000C9499000C9499005C
:1000C0000C9499000C9499000C9499000C9499004C
:1000D0000C9499000C9499000C9499000C9499003C
:1000E0000C9499000C949C030C949B000C94E806CF
:1000F00011241FBECFEFD1E2DEBFCDBF00E00CBFA9
:1001000013E0A0E0B2E0E0E6FDE100E00BBF02C0DA
:1001100007900D92AC31B107D9F723E0ACE1B3E021
:1001200001C01D92A832B207E1F70E94F70C0C94AF
:10013000AE0E0C9400007894C201F101099482E0A3
:100140008093C0001092C50080E18093C400E1EC70
:10015000F0E080818861808308958091C000881FCD
:100160008827881F08958091C00087FF03C0809171
:10017000C60008958FEF08959091C10095FDFCCFC2
:100180009091C00095FFF8CF8093C60081E008955C
:10019000FC012081222371F031969091C10095FDE0
:1001A000FCCF9091C00095FFF8CF2093C60021911D
:1001B0002111F3CF08950F931F93CF93DF9300D0B6
:1001C00000D0CDB7DEB7FC019C01329522952F708F
:1001D00023273F702327A7E4B3E00E94430D9695A1
:1001E0008795969587959695879540E3480F49831F
:1001F0009F01369527953695279536952795A5EC39
:10020000B0E20E94430D929582958F7089279F706E
:1002100089270AE010E0B8010E940D0D805D8A83F5
:100220009F013695279536952795ABE7B4E10E9457
:10023000430D96958795B8010E940D0D805D8B83C7
:100240009F01ADECBCEC0E94430D9C0136952795B7
:100250003695279536952795C901B8010E940D0D51
:10026000805D8C83C901880F991F880F991F820FA9
:10027000931F880F991FE81BF90BE05DED831E8229
:10028000F0E0E0E04033E9F0442381F0EC0FFD1FA3
:1002900032969091C10095FDFCCF9091C00095FFE2
:1002A000F8CF4093C60041914111F3CF26960FB687
:1002B000F894DEBF0FBECDBFDF91CF911F910F919C
:1002C00008953196E530F10561F48091C10085FD16
:1002D000FCCF8091C00085FFF8CF80E38093C600FB
:1002E000E5CFA1E0B0E0AC0FBD1FAE0FBF1F4C913A
:1002F000C9CF8F929F92AF92BF92CF92DF92EF922F
:10030000FF921F93CF93DF9300D000D000D01F92B5
:10031000CDB7DEB74B015C0120E03AEC4AE95BE384
:100320000E94210D205D2983C501B40120E031EE3A
:1003300045EF55E00E94210D8AE0C82ED12CE12C1A
:10034000F12CCA01B901A70196010E94210D605D3F
:100350006A83C501B40120E836E948E950E00E940B
:10036000210DCA01B901A70196010E94210D605D0E
:100370006B83C501B40120E432E44FE050E00E94F9
:10038000210DCA01B901A70196010E94210D605DEE
:100390006C83C501B40120EA36E841E050E00E94D8
:1003A000210DCA01B901A70196010E94210D605DCE
:1003B0006D83C501B40120E137E240E050E00E94C6
:1003C000210DCA01B901A70196010E94210D605DAE
:1003D0006E83C501B40128EE33E040E050E00E9496
:1003E000210DCA01B901A70196010E94210D605D8E
:1003F0006F83C501B40124E630E040E050E00E9484
:10040000210DCA01B901A70196010E94210D605D6D
:100410006887C501B401A70196010E94210D162F1E
:10042000CA01B901A70196010E94210D605D69878B
:10043000105D1A871B86FE013196AE01455F5F4F46
:10044000DF019D012E1B3F0B9D91903329F19923D4
:1004500089F02F5F3F4FE20FF31F8091C10085FDB0
:10046000FCCF8091C00085FFF8CF9093C60091919A
:100470009111F3CF2A960FB6F894DEBF0FBECDBF11
:10048000DF91CF911F91FF90EF90DF90CF90BF90C1
:10049000AF909F908F900895A417B50791F6809123
:1004A000C10085FDFCCF8091C00085FFF8CF80E3BF
:1004B0008093C600DFCF1F93CF93DF9300D01F92AE
:1004C000CDB7DEB7009709F461C0AE014F5F5F4F53
:1004D000FA01BA0130E020E0DC01AF70BB27AA5F6F
:1004E000BD4F1C91DB011D93BD012F5F3F4F9295C6
:1004F00082958F7089279F708927009769F7B901C6
:10050000759567956115710509F446C0DA01A20F6A
:10051000B31F640F751F80819E91892780839C91F2
:1005200089278C93908189278193E617F70799F79C
:10053000240F351FF9011082E7E1F2E090E380918A
:10054000C10085FDFCCF8091C00085FFF8CF90935E
:10055000C60091919111F3CF9981992379F0FE0111
:1005600032968091C10085FDFCCF8091C00085FF4F
:10057000F8CF9093C60091919111F3CF0F900F9007
:100580000F900F90DF91CF911F91089530E020E000
:10059000AE014F5F5F4FCCCF21E030E0C9CFCF92AB
:1005A000DF92EF92FF920F931F93CF93DF936B0134
:1005B0007C0188E090E00E94820D8C019C01C114B6
:1005C000D104E104F104A9F1DC01F0E0E0E0B701BD
:1005D000A6014F705527662777274A5F5D4FEA01CE
:1005E0002881EC012993CE01319624E0F694E7941A
:1005F000D794C7942A95D1F79E01C114D104E10480
:10060000F10429F7AF01559547954115510589F03A
:10061000E00FF11F400F511F9C91829198279C93EE
:100620008081982790838C9198279D93A417B50774
:1006300099F7F9011082E7E1F2E080E39091C100BF
:1006400095FDFCCF9091C00095FFF8CF8093C60038
:1006500081918111F3CFE8018881882379F0F80135
:1006600031969091C10095FDFCCF9091C00095FF0F
:10067000F8CF8093C60081918111F3CFC801DF913B
:10068000CF911F910F91FF90EF90DF90CF900C943E
:100690001E0E8091C10085FDFCCF8091C00085FFBA
:1006A000F8CF8BE18093C600EAE1F2E09BE5809110
:1006B000C10085FDFCCF8091C00085FFF8CF9093ED
:1006C000C60091919111F3CF0895CF93C62F9091C9
:1006D000C10095FDFCCF9091C00095FFF8CF9BE144
:1006E0009093C6009091C10095FDFCCF9091C00001
:1006F00095FFF8CF9BE59093C60090E00E94DB0049
:100700008091C10085FDFCCF8091C00085FFF8CFAE
:100710008BE38093C6008C2F90E00E94DB008091D9
:10072000C10085FDFCCF8091C00085FFF8CF88E433
:100730008093C600CF910895CF93DF93CDB7DEB7F6
:1007400060970FB6F894DEBF0FBECDBF9C838B833E
:10075000FC010280F381E02DFA83E983FC0104812E
:10076000158129813A812F5F3F4F3C872B87A80154
:100770004F5F5F4F5E874D871801E981FA8187855A
:10078000908923853485281B390B388B2F87258545
:100790003685AC01420F531F5E834D83F10187857F
:1007A000908923853485A901481B590B58874F83AD
:1007B00025853685FC01E20FF31FFA87E98761E0A2
:1007C00081E00E946503EEE1F2E093E58091C100D3
:1007D00085FDFCCF8091C00085FFF8CF9093C600C7
:1007E00091919111F3CFEB81FC8122893389369568
:1007F000279536952795ABE7B4E10E94430D969572
:1008000087950E94DB0061E082E00E946503EFE2D1
:10081000F2E09EE48091C10085FDFCCF8091C00094
:1008200085FFF8CF9093C60091919111F3CFEB81A2
:10083000FC81808991890E94DB0061E084E00E9454
:10084000650351E5A52E52E0B52EF50194E58091A2
:10085000C10085FDFCCF8091C00085FFF8CF90934B
:10086000C60091919111F3CFE981FA81828590E0E0
:100870000E94DB0061E085E00E9465034DE5C42E27
:1008800042E0D42EF60194E58091C10085FDFCCFB5
:100890008091C00085FFF8CF9093C600919191118F
:1008A000F3CFE981FA819081992379F0EB85FC857A
:1008B0008091C10085FDFCCF8091C00085FFF8CFFD
:1008C0009093C60091919111F3CF61E086E00E9470
:1008D00065033BE6E32E32E0F32EF70193E58091CA
:1008E000C10085FDFCCF8091C00085FFF8CF9093BB
:1008F000C60091919111F3CFE981FA8181899289A2
:100900000E945B0261E087E00E94650303E812E059
:10091000F80192E48091C10085FDFCCF8091C00078
:1009200085FFF8CF9093C60091919111F3CF8F85F9
:1009300098890E94DB0061E088E00E9465032DE950
:1009400032E0388B2F87F90193E58091C10085FD56
:10095000FCCF8091C00085FFF8CF9093C6009191A5
:100960009111F3CFE981FA81858596850E94DB009C
:1009700061E089E00E9465032AEA822E22E0922E3D
:10098000F40193E48091C10085FDFCCF8091C0000B
:1009900085FFF8CF9093C60091919111F3CFE98133
:1009A000FA81838594850E945B0261E08AE00E945F
:1009B000650391EC692E92E0792EF30193E5809125
:1009C000C10085FDFCCF8091C00085FFF8CF9093DA
:1009D000C60091919111F3CFE981FA8187859089C1
:1009E0000E945B0261E08BE00E94650381ED482E6E
:1009F00082E0582EF20195E48091C10085FDFCCF84
:100A00008091C00085FFF8CF9093C600919191111D
:100A1000F3CF8D819E810E945B0261E08DE00E9498
:100A2000650394E58091C10085FDFCCF8091C000F5
:100A300085FFF8CF9093C600F50191915F01911168
:100A4000F1CFF101828590E00E94DB0061E08EE051
:100A50000E94650394E58091C10085FDFCCF8091E3
:100A6000C00085FFF8CF9093C600F60191916F0109
:100A70009111F1CFF1019081992379F0ED85FE85F7
:100A80008091C10085FDFCCF8091C00085FFF8CF2B
:100A90009093C60091919111F3CF61E08FE00E9495
:100AA000650393E58091C10085FDFCCF8091C00076
:100AB00085FFF8CF9093C600F70191917F019111C6
:100AC000F1CFF101818992890E945B0261E080E1AE
:100AD0000E94650392E48091C10085FDFCCF809166
:100AE000C00085FFF8CF9093C600F80191918F0167
:100AF0009111F1CF8F8198850E94DB0061E081E147
:100B00000E94650393E58091C10085FDFCCF809133
:100B1000C00085FFF8CF9093C600EF85F8899191CA
:100B2000F88BEF879111EFCFF101858596850E94B3
:100B3000DB0061E082E10E94650393E48091C100E3
:100B400085FDFCCF8091C00085FFF8CF9093C60053
:100B5000F40191914F019111F1CFF10183859485B9
:100B60000E945B0261E083E10E94650393E580914E
:100B7000C10085FDFCCF8091C00085FFF8CF909328
:100B8000C600F30191913F019111F1CFF1018785E9
:100B900090890E945B0261E084E10E94650395E414
:100BA0008091C10085FDFCCF8091C00085FFF8CF0A
:100BB0009093C600F20191912F019111F1CF898597
:100BC0009A850E945B02D9CD9091C10095FDFCCF22
:100BD0009091C00095FFF8CF9BE19093C600909153
:100BE000C10095FDFCCF9091C00095FFF8CF9BE52B
:100BF0009093C60090E00E94DB008091C10085FDCB
:100C0000FCCF8091C00085FFF8CF8DE68093C600B1
:100C10000895CF93DF93EC0188E090E09F838E836B
:100C200062E070E00E94660D9D838C8319861886B1
:100C3000DF91CF910895CF93DF93FC01F89481E089
:100C400090E093838283208531852150310931875B
:100C5000208737FF06C0268137812150310931872F
:100C60002087220F331F84819581280F391FE901C6
:100C7000A881B98181E053968C9353971A968C91F1
:100C800090E0918380837894DF91CF910895CF9302
:100C9000DF93EC01862F660F990B9983888362E0BE
:100CA00070E00E94660D9B838A831F821E82DF9103
:100CB000CF910895CF93DF93FC01F8942081318187
:100CC000215031093183208337FD04C07894DF91AE
:100CD000CF910895A0911E03B0911F035496CD911A
:100CE000DC915597CC0FDD1FCA0FDB1F0990D8810F
:100CF000C02D82E08B8B86819781019697838683B6
:100D00002481358182179307ECF4880F991F228183
:100D10003381820F931FFC01D183C08354968D9140
:100D20009C915597880F991FA80FB91FED91FC91C1
:100D30008AE090E0958B848B82E0838B7894DF91BE
:100D4000CF9108951782168290E080E0E0CFFC01F9
:100D5000F89426813781215031093783268337FF64
:100D600004C02481358137832683220F331F82817B
:100D70009381280F391FD901ED91FC9181E0838B7C
:100D80007894089584E290E0FC01208184E290E070
:100D90002068FC01208385E290E0FC01208185E24F
:100DA00090E02068FC012083089584E290E0FC013B
:100DB000208184E290E02068FC01208385E290E0BD
:100DC000FC01208185E290E02F74FC0120830895CE
:100DD000CAE0D0E012E00E94C206E0911E03F0914A
:100DE0001F0384899589880F991FE80FF91F0190C7
:100DF000F081E02DD58BC48B138B0E94D506E0913A
:100E00001E03F0911F0384899589880F991FE80FAD
:100E1000F91F0190F081E02DD58BC48B138BDBCFB4
:100E2000181619066CF430E020E0EFE9FFE0319786
:100E3000F1F700C000002F5F3F4F82179307A9F71B
:100E40000895CF93DF93C9E1DCE76CE38C2F0E9418
:100E500065038091C10085FDFCCF8091C00085FFB6
:100E6000F8CFD093C60060E48C2F0E946503809178
:100E7000C10085FDFCCF8091C00085FFF8CFD093E5
:100E8000C600C150CE3009F76DE389E10E946503C9
:100E9000E3EEF2E09FE58091C10085FDFCCF8091FB
:100EA000C00085FFF8CF9093C60091919111F3CFC8
:100EB000DF91CF9108951F93CF93DF93EC010E94B0
:100EC000210787E190E08C1B9D0B89319105A0F4EF
:100ED000D82FC9E11FE56EE38C2F0E946503809136
:100EE000C10085FDFCCF8091C00085FFF8CF109335
:100EF000C600C150DC13EFCFDF91CF911F91089551
:100F0000DF92EF92FF920F931F93CF93DF93EC0149
:100F10000E94210788E190E07C01EC1AFD0A89E13A
:100F2000E816F104BCF409E110E09FE5D92E6EE368
:100F3000802F0E9465038091C10085FDFCCF8091C8
:100F4000C00085FFF8CFD092C600015011090E15E0
:100F50001F0569F788EC90E0EFE9FFE03197F1F7C2
:100F600000C000000197C1F718E11C1B67E3812F47
:100F70000E946503E7EEF2E09DE28091C10085FDED
:100F8000FCCF8091C00085FFF8CF9093C60091916F
:100F90009111F3CF88EC90E0EFE9FFE03197F1F7A2
:100FA00000C000000197C1F70E9449030E94210779
:100FB00067E3812F0E946503EBEEF2E09DE28091F2
:100FC000C10085FDFCCF8091C00085FFF8CF9093D4
:100FD000C60091919111F3CF07E110E00C1B1D0B9E
:100FE00009311105B4F4C9E1D0E08FE5F82E6EE3C4
:100FF0008C2F0E9465038091C10085FDFCCF8091FC
:10100000C00085FFF8CFF092C6002197C017D10726
:1010100071F7DF91CF911F910F91FF90EF90DF90CB
:101020000895DF92EF92FF920F931F93CF93DF9378
:10103000EC010E94210786E190E07C01EC1AFD0A98
:1010400089E1E816F104BCF409E110E09FE5D92E2E
:101050006EE3802F0E9465038091C10085FDFCCF67
:101060008091C00085FFF8CFD092C60001501109D1
:101070000E151F0569F788EC90E0EFE9FFE0319766
:10108000F1F700C000000197C1F761E487E18C1B14
:101090000E946503EBEEF2E09DE28091C10085FDC8
:1010A000FCCF8091C00085FFF8CF9093C60091914E
:1010B0009111F3CF88EC90E0EFE9FFE03197F1F781
:1010C00000C000000197C1F70E9449030E94210758
:1010D00087E190E07C01EC1AFD0AF9E1EF16F104DA
:1010E000BCF409E110E08FE5D82E6EE3802F0E945A
:1010F00065038091C10085FDFCCF8091C00085FF14
:10110000F8CFD092C600015011090E151F0569F7DE
:1011100061E488E18C1B0E946503EEEEF2E09DE243
:101120008091C10085FDFCCF8091C00085FFF8CF84
:101130009093C60091919111F3CFDF91CF911F91C0
:101140000F91FF90EF90DF900895CF93DF93C091C0
:101150001E03D0911F0388899989029700F1DE014F
:10116000129681E090E041E006C001962889398915
:1011700082179307A0F4ED91FD9123892230A9F7FE
:101180002489358921503109358B248B232B69F72C
:10119000438B0196288939898217930760F3DF9181
:1011A000CF9108951F920F920FB60F9211240F90B6
:1011B0000FBE0F901F901895EEE6F0E080818260E0
:1011C000808384B5826084BD85B5856085BD8CE9EA
:1011D00087BD89E09DE39093890080938800EFE6C6
:1011E000F0E0808182608083E1E8F0E080818D60C2
:1011F000808308952F923F924F925F926F927F92D9
:101200008F929F92AF92BF92CF92DF92EF92FF9216
:101210000F931F93CF93DF93FF27EDE5219030804D
:10122000FB0121923082FC0121903080FF27EDE507
:1012300021923082DF91CF911F910F91FF90EF901B
:10124000DF90CF90BF90AF909F908F907F906F90E6
:101250005F904F903F902F9008951F920F920FB67E
:101260000F9211240BB60F922F933F934F935F93DE
:101270006F937F938F939F93AF93BF93CF93DF939E
:10128000EF93FF93E0911E03F0911F0382899389EE
:101290000196938B828B80899189029738F1EF01B7
:1012A000229681E090E041E006C0019620893189D4
:1012B00082179307D8F4A991B99153962C9153971B
:1012C000223099F754962D913C9155972150310930
:1012D00055963C932E935497232B39F753964C9362
:1012E0000196208931898217930728F364897589CB
:1012F0002489358911C02F5F3F4FA901D901AA0F59
:10130000BB1FAE0FBF1F0D90BC91A02D53969C919B
:1013100053979250923058F480899189019782179F
:10132000930749F741E050E021E030E0E7CF558BEB
:10133000448B660F771FE60FF71F0190F081E02DB9
:1013400083898250823010F081E0838B53961C9207
:101350005397BF01655F7F4FCD010B960E94FA083E
:10136000FF91EF91DF91CF91BF91AF919F918F91BD
:101370007F916F915F914F913F912F910F900BBE95
:101380000F900FBE0F901F901895BC01A0911E03E7
:10139000B0911F0354962D913C9155970FC02F5F2C
:1013A0003F4FA901F901EE0FFF1FEA0FFB1F01904C
:1013B000F081E02D93899250923070F450964D91C7
:1013C0005C915197415051094217530741F741E051
:1013D00050E021E030E0E6CF55965C934E93549771
:1013E000138A655F7F4FCF010B960E94FA087894AD
:1013F0000895CF93DF93EC01F8948A819B81892B28
:1014000029F5E0911E03F0911F0384899589880FC7
:10141000991FE80FF91F8081918128853985A901DD
:10142000440F551FEC81FD81E40FF51F91838083EC
:101430002F5F3F4F398728874E815F8124173507FB
:101440009CF423E0FC01238B0E94C5091B821A82B5
:10145000E0911E03F0911F03848995899983888305
:101460007894DF91CF91089519861886EACFEC0120
:1014700058EEE52E53E0F52E62E0862E99249394E3
:1014800001E010E0E0911E03F0911F03848995892B
:10149000880F991FE80FF91F0190F081E02DF58A60
:1014A000E48A838AD12CC12C08C0BFEFCB1ADB0A97
:1014B000EAE0CE16D10409F47BC05601AC0EBD1E85
:1014C000D5018C91882389F3809122039091230385
:1014D0000E945A0680912003909121030E94F909ED
:1014E000F5019082E0912003F0912103F894138399
:1014F00002838085918501979187808797FF05C03A
:1015000086819781019791878087880F991F248111
:101510003581820F931FDC018D919C91DC015396E4
:101520009C9253971A968C9190E091838083789443
:1015300061E086E10E946503E6EFF2E090E78091CA
:10154000C10085FDFCCF8091C00085FFF8CF90934E
:10155000C60091919111F3CFE0911E03F0911F030A
:10156000178B068BC6010E948007E0911C03F09147
:101570001D03F8948681978101979783868397FF4F
:1015800004C08481958197838683880F991F228167
:101590003381820F931FDC01ED91FC91938A789443
:1015A000BFEFCB1ADB0AEAE0CE16D10409F085CFF3
:1015B00061E086E10E946503E2EFF2E09EE6809141
:1015C000C10085FDFCCF8091C00085FFF8CF9093CE
:1015D000C60091919111F3CFE0911E03F0911F038A
:1015E000178A168A80912003909121030E94F9099D
:1015F00049CFEC0168EEE62E63E0F62E72E0972EFE
:1016000001E010E0E0911E03F0911F0384899589A9
:10161000880F991FE80FF91F0190F081E02DF58ADE
:10162000E48A938A59E0C52ED12C05C0B1E0CB1ACB
:10163000D10809F474C05601AC0EBD1ED5018C91C1
:101640008823A1F361E087E10E946503E5E0F3E010
:1016500093E68091C10085FDFCCF8091C00085FF9D
:10166000F8CF9093C60091919111F3CF80911C0314
:1016700090911D030E945A068091200390912103AE
:101680000E94F909F5011082E0912003F0912103F5
:10169000F8941383028380859185019791878087D1
:1016A00097FF05C086819781019791878087880F72
:1016B000991F24813581820F931FDC012D913C916C
:1016C00081E0D90153968C9353971A968C9190E0B0
:1016D000918380837894C6010E941108E0912203CF
:1016E000F0912303F89486819781019797838683ED
:1016F00097FF04C08481958197838683880F991F03
:1017000022813381820F931FDC01ED91FC9181E0F6
:10171000838B7894B1E0CB1AD10809F08CCF61E0CB
:1017200087E10E946503E1E0F3E09EE68091C1005D
:1017300085FDFCCF8091C00085FFF8CF9093C60057
:1017400091919111F3CF80912003909121030E94F8
:10175000F90958CFE0911E03F0911F0324893589C0
:10176000220F331FE20FF31F60817181655F7F4F8E
:10177000DC0116962D913C911797220F331F12967C
:10178000ED91FC91E20FF31F808191810B960E94F5
:10179000FA0808956F927F928F929F92AF92BF92B4
:1017A000CF92DF92EF92FF920F931F93CF93DF932D
:1017B0004C01B62EA72E3A018901E0901E03F0904D
:1017C0001F03F701C088D188C6010196918B808BD9
:1017D00086E190E00E94820DEC01CA868AE0F40165
:1017E000DE0101900D928A95E1F7B98AAA8AC801B3
:1017F0008A969E878D870E94820D988B8F87F8012D
:101800007496E80FF91FFC87EB871D8A1C8A81E01C
:101810008B8B138A8BE990E0948B858BA18AB28A9B
:10182000608A7786CC0CDD1CEC0CFD1CF701D183A3
:10183000C083DF91CF911F910F91FF90EF90DF90C8
:10184000CF90BF90AF909F908F907F906F900895B2
:10185000A0911E03B0911F0354968D919C915597B2
:101860000EC00196AC01FC01EE0FFF1FEA0FFB1F3B
:101870000190F081E02D23892250223070F450969F
:101880002D913C915197215031092817390749F77B
:1018900041E050E081E090E0E6CF55965C934E93B6
:1018A00054970895E0911E03F0911F038489958950
:1018B0000895E0911E03F0911F0384899589880F94
:1018C000991FE80FF91F808191810895E0911E030F
:1018D000F0911F0324893589220F331FE20FF31F74
:1018E0000190F081E02D958B848B82E0838B0895AD
:1018F0000E944903E0911E03F0911F0381E090E0F4
:10190000958B848B0E94DC087894E0911E03F09103
:101910001F0360817181655F7F4F828193810B9688
:101920000E94FA08089588E190E00E94820DFC016F
:1019300090931F0380931E0381E090E0918B808B36
:10194000158A148A138A128A08950F931F93CF93CE
:10195000DF93C0911C03D0911D030AE010E01983AE
:10196000088362E070E08AE090E00E94660D9B834D
:101970008A831F821E82C0912203D0912303198380
:10198000088362E070E08AE090E00E94660D9B832D
:101990008A831F821E82C0912003D091210388E098
:1019A00090E09F838E8362E070E00E94660D9D83CD
:1019B0008C831986188629E130E042E350E068EE16
:1019C00076E08FE093E00E94CA0B40911E03509195
:1019D0001F0328EC30E06CE973E085E193E00E949E
:1019E000CA0BDF91CF911F910F910C94780C82E07C
:1019F0008093C0001092C50080E18093C400E1ECA8
:101A0000F0E08081886180830E94490388E090E053
:101A10000E945B0790E080E0089597FB072E16F484
:101A2000009407D077FD09D00E94520D07FC05D025
:101A30003EF4909581959F4F0895709561957F4FE5
:101A40000895A1E21A2EAA1BBB1BFD010DC0AA1FFF
:101A5000BB1FEE1FFF1FA217B307E407F50720F017
:101A6000A21BB30BE40BF50B661F771F881F991F92
:101A70001A9469F760957095809590959B01AC01DB
:101A8000BD01CF010895A29FB001B39FC001A39FE4
:101A9000700D811D1124911DB29F700D811D1124A7
:101AA000911D0895AA1BBB1B51E107C0AA1FBB1FB4
:101AB000A617B70710F0A61BB70B881F991F5A95DA
:101AC000A9F780959095BC01CD0108950F931F93C0
:101AD000CF93DF93869F8001879F100D969F100DF7
:101AE0001124C8010E94820DEC01009729F0A80181
:101AF00070E060E00E94A70ECE01DF91CF911F91B0
:101B00000F9108950F931F93CF93DF938230910528
:101B100010F482E090E0E0912603F091270330E09A
:101B200020E0B0E0A0E0309799F42115310509F4E8
:101B30004AC0281B390B24303105D8F58A819B8196
:101B40006115710589F1FB0193838283FE0111C048
:101B5000408151810281138148175907E0F04817ED
:101B6000590799F4109761F012960C9312971396F7
:101B70001C933296CF01DF91CF911F910F91089561
:101B80000093260310932703F4CF2115310551F05C
:101B90004217530738F0A901DB019A01BD01DF01AB
:101BA000F801C1CFEF01F9CF90932703809326036B
:101BB000CDCFFE01E20FF31F8193919322503109A3
:101BC00039832883D7CF2091240330912503232BF9
:101BD00041F42091020230910302309325032093B7
:101BE000240320910002309101022115310541F4B6
:101BF0002DB73EB74091040250910502241B350BCE
:101C0000E0912403F0912503E217F307A0F42E1BC3
:101C10003F0B2817390778F0AC014E5F5F4F241750
:101C2000350748F04E0F5F1F509325034093240360
:101C3000819391939FCFF0E0E0E09CCFCF93DF932F
:101C40000097E9F0FC01329713821282A0912603DB
:101C5000B0912703ED0130E020E01097A1F420813E
:101C60003181820F931F209124033091250328177F
:101C7000390709F061C0F0932503E0932403DF9155
:101C8000CF910895EA01CE17DF07E8F54A815B811D
:101C90009E0141155105B1F7E901FB83EA834991A2
:101CA0005991C40FD51FEC17FD0761F48081918114
:101CB0000296840F951FE90199838883828193811D
:101CC0009B838A83F0E0E0E012968D919C911397BC
:101CD0000097B9F52D913C911197CD010296820F95
:101CE000931F20912403309125032817390739F6D3
:101CF000309751F51092270310922603B0932503D5
:101D0000A0932403BCCFD383C28340815181840F2D
:101D1000951FC817D90761F44E5F5F4F888199817D
:101D2000480F591F518340838A819B81938382830B
:101D30002115310509F0B0CFF0932703E093260376
:101D40009ECFFD01DC01C0CF13821282D7CFDC0110
:101D500001C06D9341505040E0F70895F894FFCFD3
:101D6000000028032000303132333435363738391B
:101D70004142434445463078005B324A0053797310
:101D800074656D2074696D652069733A20004E7525
:101D90006D626572206F662074687265616473207D
:101DA000696E207468652073797374656D3A2000DC
:101DB0005468726561642069643A200054687265F1
:101DC0006164206E616D653A2000537461727469BC
:101DD0006E67205043206F66207468726561643AB4
:101DE00020004279746573207573656420627920E0
:101DF00074686520737461636B3A20005374616387
:101E00006B2073697A653A200043757272656E744F
:101E100020746F70206F6620737461636B3A2000CA
:101E2000537461636B20626173652069733A2000AB
:101E3000456E64206F6620737461636B2061743A31
:101E400020005F5F5F002D3E78002D3E002D3E5844
:101E5000006E6F742070726F647563696E67210025
:101E60006E6F7420636F6E73756D696E67210062AB
:0C1E70006C696E6B007374617473000089
:00000001FF
