:100000000C947C000C949D000C949D000C949D001D
:100010000C949D000C949D000C949D000C949D00EC
:100020000C949D000C949D000C949D000C949D00DC
:100030000C949D000C949D000C949D000C949D00CC
:100040000C949D000C94F3060C949D000C949D0060
:100050000C949D000C944E070C949D000C949D00F4
:100060000C949D000C949D000C949D000C949D009C
:100070000C949D000C949D000C949D000C949D008C
:100080000C949D000C949D000C949D000C949D007C
:100090000C949D000C949D000C949D000C949D006C
:1000A0000C949D000C949D000C949D000C949D005C
:1000B0000C949D000C949D000C949D000C949D004C
:1000C0000C949D000C949D000C949D000C949D003C
:1000D0000C949D000C949D000C949D000C949D002C
:1000E0000C949D000C94A0030C949F000C949B0610
:1000F0000C94CA090C94220911241FBECFEFD1E23F
:10010000DEBFCDBF00E00CBF13E0A0E0B2E0E4E949
:10011000F9E100E00BBF02C007900D92AE31B107CC
:10012000D9F723E0AEE1B3E001C01D92AA32B207D5
:10013000E1F70E94020B0C94C80C0C940000789418
:10014000C201F101099482E08093C0001092C500C1
:1001500080E18093C400E1ECF0E0808188618083DD
:1001600008958091C000881F8827881F0895809176
:10017000C00087FF03C08091C60008958FEF0895E7
:100180009091C10095FDFCCF9091C00095FFF8CFF4
:100190008093C60081E00895FC012081222371F044
:1001A00031969091C10095FDFCCF9091C00095FFD4
:1001B000F8CF2093C60021912111F3CF08950F931A
:1001C0001F93CF93DF9300D000D0CDB7DEB7FC01F3
:1001D0009C01329522952F7023273F702327A7E497
:1001E000B3E00E945D0B96958795969587959695B9
:1001F000879540E3480F49839F01369527953695AB
:10020000279536952795A5ECB0E20E945D0B929557
:1002100082958F7089279F7089270AE010E0B801C6
:100220000E94270B805D8A839F013695279536951E
:100230002795ABE7B4E10E945D0B96958795B801D1
:100240000E94270B805D8B839F01ADECBCEC0E946C
:100250005D0B9C0136952795369527953695279504
:10026000C901B8010E94270B805D8C83C901880FEA
:10027000991F880F991F820F931F880F991FE81BE2
:10028000F90BE05DED831E82F0E0E0E04033E9F041
:10029000442381F0EC0FFD1F32969091C10095FD33
:1002A000FCCF9091C00095FFF8CF4093C6004191DC
:1002B0004111F3CF26960FB6F894DEBF0FBECDBF27
:1002C000DF91CF911F910F9108953196E530F1059F
:1002D00061F48091C10085FDFCCF8091C00085FF55
:1002E000F8CF80E38093C600E5CFA1E0B0E0AC0F8B
:1002F000BD1FAE0FBF1F4C91C9CF8F929F92AF927F
:10030000BF92CF92DF92EF92FF921F93CF93DF9332
:1003100000D000D000D01F92CDB7DEB74B015C01FA
:1003200020E03AEC4AE95BE30E943B0B205D298325
:10033000C501B40120E031EE45EF55E00E943B0BD2
:100340008AE0C82ED12CE12CF12CCA01B901A701F9
:1003500096010E943B0B605D6A83C501B40120E8F1
:1003600036E948E950E00E943B0BCA01B901A701F8
:1003700096010E943B0B605D6B83C501B40120E4D4
:1003800032E44FE050E00E943B0BCA01B901A701E3
:1003900096010E943B0B605D6C83C501B40120EAAD
:1003A00036E841E050E00E943B0BCA01B901A701C9
:1003B00096010E943B0B605D6D83C501B40120E195
:1003C00037E240E050E00E943B0BCA01B901A701AF
:1003D00096010E943B0B605D6E83C501B40128EE5F
:1003E00033E040E050E00E943B0BCA01B901A70195
:1003F00096010E943B0B605D6F83C501B40124E64A
:1004000030E040E050E00E943B0BCA01B901A70177
:1004100096010E943B0B605D6887C501B401A7018E
:1004200096010E943B0B162FCA01B901A701960144
:100430000E943B0B605D6987105D1A871B86FE0179
:100440003196AE01455F5F4FDF019D012E1B3F0BD3
:100450009D91903329F1992389F02F5F3F4FE20F4F
:10046000F31F8091C10085FDFCCF8091C00085FF06
:10047000F8CF9093C60091919111F3CF2A960FB6C1
:10048000F894DEBF0FBECDBFDF91CF911F91FF90DB
:10049000EF90DF90CF90BF90AF909F908F90089596
:1004A000A417B50791F68091C10085FDFCCF80911E
:1004B000C00085FFF8CF80E38093C600DFCF1F9395
:1004C000CF93DF9300D01F92CDB7DEB7009709F42A
:1004D00061C0AE014F5F5F4FFA01BA0130E020E02A
:1004E000DC01AF70BB27AA5FBD4F1C91DB011D93E0
:1004F000BD012F5F3F4F929582958F7089279F7026
:100500008927009769F7B901759567956115710598
:1005100009F446C0DA01A20FB31F640F751F808172
:100520009E91892780839C9189278C93908189272C
:100530008193E617F70799F7240F351FF901108209
:10054000E7E1F2E090E38091C10085FDFCCF80916E
:10055000C00085FFF8CF9093C60091919111F3CF21
:100560009981992379F0FE0132968091C10085FD31
:10057000FCCF8091C00085FFF8CF9093C600919189
:100580009111F3CF0F900F900F900F90DF91CF91BB
:100590001F91089530E020E0AE014F5F5F4FCCCF58
:1005A00021E030E0C9CFCF92DF92EF92FF920F931C
:1005B0001F93CF93DF936B017C0188E090E00E9452
:1005C0009C0B8C019C01C114D104E104F104A9F13C
:1005D000DC01F0E0E0E0B701A6014F705527662787
:1005E00077274A5F5D4FEA012881EC012993CE010C
:1005F000319624E0F694E794D794C7942A95D1F7DE
:100600009E01C114D104E104F10429F7AF0155950D
:1006100047954115510589F0E00FF11F400F511F1B
:100620009C91829198279C938081982790838C91AC
:1006300098279D93A417B50799F7F9011082E7E170
:10064000F2E080E39091C10095FDFCCF9091C00055
:1006500095FFF8CF8093C60081918111F3CFE80117
:100660008881882379F0F80131969091C10095FD39
:10067000FCCF9091C00095FFF8CF8093C600819188
:100680008111F3CFC801DF91CF911F910F91FF909E
:10069000EF90DF90CF900C94380C8091C10085FDD5
:1006A000FCCF8091C00085FFF8CF8BE18093C6001E
:1006B000EAE1F2E09BE58091C10085FDFCCF8091ED
:1006C000C00085FFF8CF9093C60091919111F3CFB0
:1006D0000895CF93C62F9091C10095FDFCCF9091C6
:1006E000C00095FFF8CF9BE19093C6009091C100A8
:1006F00095FDFCCF9091C00095FFF8CF9BE59093BE
:10070000C60090E00E94DF008091C10085FDFCCF13
:100710008091C00085FFF8CF8BE38093C6008C2FBB
:1007200090E00E94DF008091C10085FDFCCF8091A8
:10073000C00085FFF8CF88E48093C600CF9108956C
:10074000CF93DF93CDB7DEB760970FB6F894DEBFD7
:100750000FBECDBF9C838B83FC010280F381E02D13
:10076000FA83E983FC010481158129813A812F5F95
:100770003F4F3C872B87A8014F5F5F4F5E874D87B8
:100780001801E981FA818785908923853485281BA2
:10079000390B388B2F8725853685AC01420F531FC7
:1007A0005E834D83F1018785908923853485A90176
:1007B000481B590B58874F8325853685FC01E20F6E
:1007C000F31FFA87E98761E081E00E946903EEE1A7
:1007D000F2E093E58091C10085FDFCCF8091C000DF
:1007E00085FFF8CF9093C60091919111F3CFEB81E3
:1007F000FC8122A133A13695279536952795ABE745
:10080000B4E10E945D0B969587950E94DF0061E040
:1008100082E00E946903EFE2F2E09EE48091C10071
:1008200085FDFCCF8091C00085FFF8CF9093C60076
:1008300091919111F3CFEB81FC8180A191A10E9454
:10084000DF0061E084E00E94690351E5A52E52E0DB
:10085000B52EF50194E58091C10085FDFCCF809116
:10086000C00085FFF8CF9093C60091919111F3CF0E
:10087000E981FA81828590E00E94DF0061E085E0F5
:100880000E9469034DE5C42E42E0D42EF60194E5A2
:100890008091C10085FDFCCF8091C00085FFF8CF1D
:1008A0009093C60091919111F3CFE981FA819081E3
:1008B000992379F0EB85FC858091C10085FDFCCF03
:1008C0008091C00085FFF8CF9093C600919191115F
:1008D000F3CF61E086E00E9469033BE6E32E32E05D
:1008E000F32EF70193E58091C10085FDFCCF809147
:1008F000C00085FFF8CF9093C60091919111F3CF7E
:10090000E981FA81818992890E945F0261E087E032
:100910000E94690303E812E0F80192E48091C100AB
:1009200085FDFCCF8091C00085FFF8CF9093C60075
:1009300091919111F3CF8F8598890E94DF0061E03A
:1009400088E00E9469032DE932E0388B2F87F90196
:1009500093E58091C10085FDFCCF8091C00085FFAB
:10096000F8CF9093C60091919111F3CFE981FA816C
:10097000858596850E94DF0061E089E00E94690319
:100980002AEA822E22E0922EF40193E48091C100A3
:1009900085FDFCCF8091C00085FFF8CF9093C60005
:1009A00091919111F3CFE981FA81838594850E9419
:1009B0005F0261E08AE00E94690391EC692E92E097
:1009C000792EF30193E58091C10085FDFCCF8091E4
:1009D000C00085FFF8CF9093C60091919111F3CF9D
:1009E000E981FA81878590890E945F0261E08BE04E
:1009F0000E94690381ED482E82E0582EF20195E4B1
:100A00008091C10085FDFCCF8091C00085FFF8CFAB
:100A10009093C60091919111F3CF8D819E810E9498
:100A20005F0261E08DE00E94690394E58091C1005E
:100A300085FDFCCF8091C00085FFF8CF9093C60064
:100A4000F50191915F019111F1CFF101828590E063
:100A50000E94DF0061E08EE00E94690394E58091CE
:100A6000C10085FDFCCF8091C00085FFF8CF909339
:100A7000C600F60191916F019111F1CFF1019081C2
:100A8000992379F0ED85FE858091C10085FDFCCF2D
:100A90008091C00085FFF8CF9093C600919191118D
:100AA000F3CF61E08FE00E94690393E58091C1007C
:100AB00085FDFCCF8091C00085FFF8CF9093C600E4
:100AC000F70191917F019111F1CFF1018189928913
:100AD0000E945F0261E080E10E94690392E48091DC
:100AE000C10085FDFCCF8091C00085FFF8CF9093B9
:100AF000C600F80191918F019111F1CF8F819885F6
:100B00000E94DF0061E081E10E94690393E580912A
:100B1000C10085FDFCCF8091C00085FFF8CF909388
:100B2000C600EF85F8899191F88BEF879111EFCF8F
:100B3000F101858596850E94DF0061E082E10E94D7
:100B4000690393E48091C10085FDFCCF8091C000D2
:100B500085FFF8CF9093C600F40191914F01911158
:100B6000F1CFF101838594850E945F0261E083E10A
:100B70000E94690393E58091C10085FDFCCF8091BF
:100B8000C00085FFF8CF9093C600F30191913F011B
:100B90009111F1CFF101878590890E945F0261E098
:100BA00084E10E94690395E48091C10085FDFCCF3A
:100BB0008091C00085FFF8CF9093C600F20191911B
:100BC0002F019111F1CF89859A850E945F02D9CDBD
:100BD0009091C10095FDFCCF9091C00095FFF8CF9A
:100BE0009BE19093C6009091C10095FDFCCF909140
:100BF000C00095FFF8CF9BE59093C60090E00E945F
:100C0000DF008091C10085FDFCCF8091C00085FF91
:100C1000F8CF8DE68093C6000895CF93DF93EC0163
:100C200088E090E09F838E8362E070E00E94800BFA
:100C30009D838C8319861886DF91CF910895CF9379
:100C4000DF93FC0181E090E09383828320853185EE
:100C5000215031093187208737FF06C0268137812F
:100C60002150310931872087220F331F84819581DC
:100C7000280F391FE901A881B9811A968C9190E05B
:100C800091838083DF91CF910895CF93DF93EC011F
:100C9000862F660F990B9983888362E070E00E942B
:100CA000800B9B838A831F821E82DF91CF910895E0
:100CB000FC0126813781215031093783268337FF94
:100CC00004C02481358137832683220F331F82811C
:100CD0009381280F391FD901ED91FC9181E0838B1D
:100CE0000895089508950895089584E290E0FC0120
:100CF000208184E290E02068FC01208385E290E07E
:100D0000FC01208185E290E02068FC0120830895A9
:100D100084E290E0FC01208184E290E02068FC0104
:100D2000208385E290E0FC01208185E290E02F7431
:100D3000FC01208308950E94750684E190E0EFE9AC
:100D4000FFE03197F1F700C000000197C1F70E9462
:100D5000880684E190E0EFE9FFE03197F1F700C009
:100D600000000197C1F7E7CF181619066CF430E0C0
:100D700020E0EFE9FFE03197F1F700C000002F5FBE
:100D80003F4F82179307A9F70895A0912003B091D0
:100D9000210390962D913C9191972230310514F1C9
:100DA000FD013296220F331F2A0F3B1F41E003C083
:100DB000E217F307B9F0A191B19153968C91539733
:100DC0008230B1F754968D919C9155970197559625
:100DD0009C938E935497892B59F753964C93E21713
:100DE000F30749F708951F920F920FB60F9211243F
:100DF0000F900FBE0F901F901895EEE6F0E08081E7
:100E00008260808384B5826084BD85B5856085BD40
:100E10008CE987BD89E09DE39093890080938800E9
:100E2000EFE6F0E0808182608083E1E8F0E080819D
:100E30008D60808308952F923F924F925F926F92C0
:100E40007F928F929F92AF92BF92CF92DF92EF925A
:100E5000FF920F931F93CF93DF93FF27EDE5219030
:100E60003080FB0121923082FC0121903080FF27ED
:100E7000EDE521923082DF91CF911F910F91FF908C
:100E8000EF90DF90CF90BF90AF909F908F907F902A
:100E90006F905F904F903F902F9008951F920F9208
:100EA0000FB60F9211240BB60F922F933F934F93CF
:100EB0005F936F937F938F939F93AF93BF93CF93E2
:100EC000DF93EF93FF93A0912003B09121039296BB
:100ED0008D919C919397019693969C938E93929764
:100EE00090964D915C91919742305105E4F0FD014F
:100EF00032969A01220F331F2A0F3B1F61E003C075
:100F0000E217F30781F0C191D1918B898230C1F74B
:100F10008C899D8901979D8B8C8B892B89F76B8B95
:100F2000E217F30781F79696CD91DC919797969605
:100F30002D913C9197970DC02F5F3F4FF901EE0F18
:100F4000FF1FEA0FFB1F0190F081E02D83898230A3
:100F500031F42417350781F721E030E0EFCFCC0FD3
:100F6000DD1FCA0FDB1F6881798197963C932E9312
:100F70009697655F7F4FCF010B960E941B07FF91ED
:100F8000EF91DF91CF91BF91AF919F918F917F9121
:100F90006F915F914F913F912F910F900BBE0F90EA
:100FA0000FBE0F901F9018956F927F928F929F9215
:100FB000AF92BF92CF92DF92EF92FF920F931F9367
:100FC000CF93DF934C01B62EA72E742E652E890188
:100FD000E0902003F0902103F701C0A0D1A0C6014A
:100FE000019691A380A386E190E00E949C0BEC0106
:100FF000CA868AE0F401DE0101900D928A95E1F73C
:10100000B98AAA8AC8018A969E878D870E949C0BFE
:10101000988B8F87F8017496E80FF91FFC87EB8790
:101020001D8A1C8A81E08B8B138A8FE990E0948B58
:10103000858BA18AB28A6786708ACC0CDD1CEC0C89
:10104000FD1CF701D183C083DF91CF911F910F91D8
:10105000FF90EF90DF90CF90BF90AF909F908F90D8
:101060007F906F900895A0912003B09121039696F0
:101070008D919C91979790964D915C9191970CC012
:101080000196FC01EE0FFF1FEA0FFB1F0190F0819C
:10109000E02D2389223031F44817590789F781E080
:1010A00090E0EFCF0895E0912003F091210386A115
:1010B00097A10895E0912003F091210386A197A1C3
:1010C000880F991FE80FF91F808191810895A091E1
:1010D0002003B09121039696ED91FC919797EE0F26
:1010E000FF1FEA0FFB1F0190F081E02D958B848B91
:1010F00082E0838B9696ED91FC919797EE0FFF1F00
:10110000EA0FFB1F60817181655F7F4F96962D917D
:101110003C91979790964D915C9191970DC02F5F60
:101120003F4FF901EE0FFF1FEA0FFB1F0190F08107
:10113000E02D8389823031F44217530781F721E093
:1011400030E0EFCFCF010B960E941B070895CF939D
:10115000DF93EC01E0912003F09121038A819B81D0
:10116000892B41F586A197A1880F991FE80FF91FD8
:101170000190F081E02D2C813D8188859985AC011D
:101180004F5F5F4F59874887880F991F820F931FC2
:10119000DC01ED93FC938E819F81481759079CF4E5
:1011A00082E0838B8AE090E00E946708E091200350
:1011B000F09121031B821A8286A197A199838883CB
:1011C000DF91CF91089519861886EACFFC01A0918E
:1011D0002003B091210396968D919C919797880F4B
:1011E000991FA80FB91F0D90BC91A02D82E05396B6
:1011F0008C935397268137812F5F3F4F3783268308
:1012000084819581281739076CF4220F331F82815E
:101210009381280F391FF901B183A0838AE090E000
:101220000C9467081782168230E020E0F0CFFC01B2
:1012300020813181215031093183208337FF089586
:101240000C94E6087C01EC012A96BB24B39401E0DF
:1012500010E0670107C0BFEFCB1ADB0ACC15DD0534
:1012600009F473C0D6018C918823A9F3E09124037B
:10127000F091250320813181215031093183208370
:1012800037FD84C080912203909123030E94A70818
:10129000F601B082E0912203F091230313830283CD
:1012A0008085918501979187808797FF05C086810A
:1012B0009781019791878087880F991F24813581B5
:1012C000820F931FDC018D919C91DC011A968C9109
:1012D00090E09183808361E086E10E946903E7EEFC
:1012E000F2E090E78091C10085FDFCCF8091C000C5
:1012F00085FFF8CF9093C60091919111F3CFE091C3
:101300002003F091210311A700A7E0911E03F091A3
:101310001F038681978101979783868397FF04C077
:101320008481958197838683880F991F22813381D9
:10133000820F931FDC01ED91FC91B38ABFEFCB1AB2
:10134000DB0ACC15DD0509F08DCF61E086E10E9456
:101350006903E3EEF2E09EE68091C10085FDFCCFDB
:101360008091C00085FFF8CF9093C60091919111B4
:10137000F3CFE0912003F091210311A610A68091F4
:101380002203909123030E94A70863CFCF010E94FC
:10139000E60878CFEC0109967C0101E010E06701D6
:1013A00007C0B1E0CB1AD108CC15DD0509F46EC039
:1013B000D6018C918823A9F361E087E10E9469033B
:1013C000E6EFF2E093E68091C10085FDFCCF8091CD
:1013D000C00085FFF8CF9093C60091919111F3CF93
:1013E000E0911E03F0911F032081318121503109CA
:1013F0003183208337FD65C08091220390912303C0
:101400000E94A708F6011082E0912203F0912303C5
:10141000138302838085918501979187808797FF49
:1014200005C086819781019791878087880F991FD2
:1014300024813581820F931FDC018D919C91DC0109
:101440001A968C9190E091838083E0912403F0912F
:1014500025038681978101979783868397FF04C030
:101460008481958197838683880F991F2281338198
:10147000820F931FDC01ED91FC9181E0838BB1E041
:10148000CB1AD108CC15DD0509F092CF61E087E1D8
:101490000E946903E2EFF2E09EE68091C10085FDC3
:1014A000FCCF8091C00085FFF8CF9093C60091914A
:1014B0009111F3CF80912203909123030E94A708FA
:1014C0006ECFCF010E94E60897CF0E944D03E091B6
:1014D0002003F091210381E090E097A386A30E946E
:1014E000FD067894E0912003F091210360817181E1
:1014F000655F7F4F828193810B960E941B07089541
:101500008AE290E00E949C0BFC019093210380935F
:10151000200381E090E091A380A317A216A213A25A
:1015200012A215A214A20895EF92FF920F931F9397
:10153000CF93DF938AE090E00E949C0B8C01C091D6
:101540001E03D0911F038AE0E82EF12CF982E88275
:1015500062E070E08AE090E00E94800B9B838A83C7
:101560001F821E82C0912403D0912503F982E88254
:1015700062E070E08AE090E00E94800B9B838A83A7
:101580001F821E82C0912203D091230388E090E045
:101590009F838E8362E070E00E94800B9D838C832A
:1015A0001986188629E130E050E040E06BE976E0EA
:1015B00080E093E00E94D4074091200350912103E2
:1015C00028EC30E060EA73E086E093E00E94D40704
:1015D00022E330E0A80162E279E08CE093E00E942F
:1015E000D40722E330E0A8016AEC79E085E193E0DA
:1015F0000E94D407DF91CF911F910F91FF90EF9040
:101600000C94650A82E08093C0001092C50080E1CE
:101610008093C400E1ECF0E08081886180838AE2FD
:1016200090E00E949C0BFC01909321038093200387
:1016300081E090E091A380A317A216A213A212A2A8
:1016400015A214A20E94940A90E080E0089597FBEE
:10165000072E16F4009407D077FD09D00E946C0B7A
:1016600007FC05D03EF4909581959F4F08957095A5
:1016700061957F4F0895A1E21A2EAA1BBB1BFD01A5
:101680000DC0AA1FBB1FEE1FFF1FA217B307E40761
:10169000F50720F0A21BB30BE40BF50B661F771FB9
:1016A000881F991F1A9469F7609570958095909599
:1016B0009B01AC01BD01CF010895A29FB001B39F72
:1016C000C001A39F700D811D1124911DB29F700D4B
:1016D000811D1124911D0895AA1BBB1B51E107C058
:1016E000AA1FBB1FA617B70710F0A61BB70B881FB2
:1016F000991F5A95A9F780959095BC01CD01089541
:101700000F931F93CF93DF93869F8001879F100DC8
:10171000969F100D1124C8010E949C0BEC010097AC
:1017200029F0A80170E060E00E94C10CCE01DF91B9
:10173000CF911F910F9108950F931F93CF93DF9334
:101740008230910510F482E090E0E0912803F0915E
:10175000290330E020E0B0E0A0E0309799F42115B3
:10176000310509F44AC0281B390B24303105D8F55E
:101770008A819B816115710589F1FB0193838283C5
:10178000FE0111C040815181028113814817590720
:10179000E0F04817590799F4109761F012960C93EE
:1017A000129713961C933296CF01DF91CF911F9120
:1017B0000F9108950093280310932903F4CF211566
:1017C000310551F04217530738F0A901DB019A01A6
:1017D000BD01DF01F801C1CFEF01F9CF90932903DB
:1017E00080932803CDCFFE01E20FF31F81939193E5
:1017F0002250310939832883D7CF20912603309195
:101800002703232B41F420910202309103023093ED
:101810002703209326032091000230910102211515
:10182000310541F42DB73EB74091040250910502B5
:10183000241B350BE0912603F0912703E217F307F1
:10184000A0F42E1B3F0B2817390778F0AC014E5F30
:101850005F4F2417350748F04E0F5F1F5093270343
:1018600040932603819391939FCFF0E0E0E09CCFDB
:10187000CF93DF930097E9F0FC0132971382128235
:10188000A0912803B0912903ED0130E020E01097EA
:10189000A1F420813181820F931F20912603309182
:1018A00027032817390709F061C0F0932703E09355
:1018B0002603DF91CF910895EA01CE17DF07E8F5FF
:1018C0004A815B819E0141155105B1F7E901FB8316
:1018D000EA8349915991C40FD51FEC17FD0761F4B4
:1018E000808191810296840F951FE90199838883F5
:1018F000828193819B838A83F0E0E0E012968D9150
:101900009C9113970097B9F52D913C911197CD01BA
:101910000296820F931F20912603309127032817E8
:10192000390739F6309751F51092290310922803A0
:10193000B0932703A0932603BCCFD383C2834081F7
:101940005181840F951FC817D90761F44E5F5F4F0F
:1019500088819981480F591F518340838A819B81D7
:10196000938382832115310509F0B0CFF0932903C9
:10197000E09328039ECFFD01DC01C0CF13821282C9
:10198000D7CFDC0101C06D9341505040E0F708957E
:04199000F894FFCFF9
:1019940000002A03200030313233343536373839E9
:1019A4004142434445463078005B324A00537973E0
:1019B40074656D2074696D652069733A20004E75F5
:1019C4006D626572206F662074687265616473204D
:1019D400696E207468652073797374656D3A2000AC
:1019E4005468726561642069643A200054687265C1
:1019F4006164206E616D653A20005374617274698C
:101A04006E67205043206F66207468726561643A83
:101A140020004279746573207573656420627920AF
:101A240074686520737461636B3A20005374616356
:101A34006B2073697A653A200043757272656E741F
:101A440020746F70206F6620737461636B3A20009A
:101A5400537461636B20626173652069733A20007B
:101A6400456E64206F6620737461636B2061743A01
:101A740020006E6F742070726F647563696E6721E5
:101A8400006E6F7420636F6E73756D696E672100ED
:101A9400626C696E6B0073746174730070726F644E
:0E1AA4007563657200636F6E73756D65720019
:00000001FF
