:100000000C947C000C949D000C949D000C949D001D
:100010000C949D000C949D000C949D000C949D00EC
:100020000C949D000C949D000C949D000C949D00DC
:100030000C949D000C949D000C949D000C949D00CC
:100040000C949D000C9436080C949D000C949D001B
:100050000C949D000C9491080C949D000C949D00B0
:100060000C949D000C949D000C949D000C949D009C
:100070000C949D000C949D000C949D000C949D008C
:100080000C949D000C949D000C949D000C949D007C
:100090000C949D000C949D000C949D000C949D006C
:1000A0000C949D000C949D000C949D000C949D005C
:1000B0000C949D000C949D000C949D000C949D004C
:1000C0000C949D000C949D000C949D000C949D003C
:1000D0000C949D000C949D000C949D000C949D002C
:1000E0000C949D000C946B060C94A0030C949F0040
:1000F0000C94F4060C94100811241FBECFEFD1E22B
:10010000DEBFCDBF00E00CBF13E0A0E0B2E0E4E949
:10011000F7E100E00BBF02C007900D92A432B107D7
:10012000D9F723E0A4E2B3E001C01D92AC32B207DC
:10013000E1F70E94130A0C94C80B0C940000789409
:10014000C201F101099482E08093C0001092C500C1
:1001500080E18093C400E1ECF0E0808188618083DD
:1001600008958091C000881F8827881F0895809176
:10017000C00087FF03C08091C60008958FEF0895E7
:100180009091C10095FDFCCF9091C00095FFF8CFF4
:100190008093C60081E00895FC012081222371F044
:1001A00031969091C10095FDFCCF9091C00095FFD4
:1001B000F8CF2093C60021912111F3CF08950F931A
:1001C0001F93CF93DF9300D000D0CDB7DEB7FC01F3
:1001D0009C01329522952F7023273F702327A7E497
:1001E000B3E00E945D0A96958795969587959695BA
:1001F000879540E3480F49839F01369527953695AB
:10020000279536952795A5ECB0E20E945D0A929558
:1002100082958F7089279F7089270AE010E0B801C6
:100220000E94270A805D8A839F013695279536951F
:100230002795ABE7B4E10E945D0A96958795B801D2
:100240000E94270A805D8B839F01ADECBCEC0E946D
:100250005D0A9C0136952795369527953695279505
:10026000C901B8010E94270A805D8C83C901880FEB
:10027000991F880F991F820F931F880F991FE81BE2
:10028000F90BE05DED831E82F0E0E0E04033E9F041
:10029000442381F0EC0FFD1F32969091C10095FD33
:1002A000FCCF9091C00095FFF8CF4093C6004191DC
:1002B0004111F3CF26960FB6F894DEBF0FBECDBF27
:1002C000DF91CF911F910F9108953196E530F1059F
:1002D00061F48091C10085FDFCCF8091C00085FF55
:1002E000F8CF80E38093C600E5CFA1E0B0E0AC0F8B
:1002F000BD1FAE0FBF1F4C91C9CF8F929F92AF927F
:10030000BF92CF92DF92EF92FF921F93CF93DF9332
:1003100000D000D000D01F92CDB7DEB74B015C01FA
:1003200020E03AEC4AE95BE30E943B0A205D298326
:10033000C501B40120E031EE45EF55E00E943B0AD3
:100340008AE0C82ED12CE12CF12CCA01B901A701F9
:1003500096010E943B0A605D6A83C501B40120E8F2
:1003600036E948E950E00E943B0ACA01B901A701F9
:1003700096010E943B0A605D6B83C501B40120E4D5
:1003800032E44FE050E00E943B0ACA01B901A701E4
:1003900096010E943B0A605D6C83C501B40120EAAE
:1003A00036E841E050E00E943B0ACA01B901A701CA
:1003B00096010E943B0A605D6D83C501B40120E196
:1003C00037E240E050E00E943B0ACA01B901A701B0
:1003D00096010E943B0A605D6E83C501B40128EE60
:1003E00033E040E050E00E943B0ACA01B901A70196
:1003F00096010E943B0A605D6F83C501B40124E64B
:1004000030E040E050E00E943B0ACA01B901A70178
:1004100096010E943B0A605D6887C501B401A7018F
:1004200096010E943B0A162FCA01B901A701960145
:100430000E943B0A605D6987105D1A871B86FE017A
:100440003196AE01455F5F4FDF019D012E1B3F0BD3
:100450009D91903329F1992389F02F5F3F4FE20F4F
:10046000F31F8091C10085FDFCCF8091C00085FF06
:10047000F8CF9093C60091919111F3CF2A960FB6C1
:10048000F894DEBF0FBECDBFDF91CF911F91FF90DB
:10049000EF90DF90CF90BF90AF909F908F90089596
:1004A000A417B50791F68091C10085FDFCCF80911E
:1004B000C00085FFF8CF80E38093C600DFCF1F9395
:1004C000CF93DF9300D01F92CDB7DEB7009709F42A
:1004D00061C0AE014F5F5F4FFA01BA0130E020E02A
:1004E000DC01AF70BB27AA5FBD4F1C91DB011D93E0
:1004F000BD012F5F3F4F929582958F7089279F7026
:100500008927009769F7B901759567956115710598
:1005100009F446C0DA01A20FB31F640F751F808172
:100520009E91892780839C9189278C93908189272C
:100530008193E617F70799F7240F351FF901108209
:10054000E7E1F2E090E38091C10085FDFCCF80916E
:10055000C00085FFF8CF9093C60091919111F3CF21
:100560009981992379F0FE0132968091C10085FD31
:10057000FCCF8091C00085FFF8CF9093C600919189
:100580009111F3CF0F900F900F900F90DF91CF91BB
:100590001F91089530E020E0AE014F5F5F4FCCCF58
:1005A00021E030E0C9CFCF92DF92EF92FF920F931C
:1005B0001F93CF93DF936B017C0188E090E00E9452
:1005C0009C0A8C019C01C114D104E104F104A9F13D
:1005D000DC01F0E0E0E0B701A6014F705527662787
:1005E00077274A5F5D4FEA012881EC012993CE010C
:1005F000319624E0F694E794D794C7942A95D1F7DE
:100600009E01C114D104E104F10429F7AF0155950D
:1006100047954115510589F0E00FF11F400F511F1B
:100620009C91829198279C938081982790838C91AC
:1006300098279D93A417B50799F7F9011082E7E170
:10064000F2E080E39091C10095FDFCCF9091C00055
:1006500095FFF8CF8093C60081918111F3CFE80117
:100660008881882379F0F80131969091C10095FD39
:10067000FCCF9091C00095FFF8CF8093C600819188
:100680008111F3CFC801DF91CF911F910F91FF909E
:10069000EF90DF90CF900C94380B8091C10085FDD6
:1006A000FCCF8091C00085FFF8CF8BE18093C6001E
:1006B000EAE1F2E09BE58091C10085FDFCCF8091ED
:1006C000C00085FFF8CF9093C60091919111F3CFB0
:1006D0000895CF93C62F9091C10095FDFCCF9091C6
:1006E000C00095FFF8CF9BE19093C6009091C100A8
:1006F00095FDFCCF9091C00095FFF8CF9BE59093BE
:10070000C60090E00E94DF008091C10085FDFCCF13
:100710008091C00085FFF8CF8BE38093C6008C2FBB
:1007200090E00E94DF008091C10085FDFCCF8091A8
:10073000C00085FFF8CF88E48093C600CF9108956C
:10074000CF93DF93CDB7DEB760970FB6F894DEBFD7
:100750000FBECDBF9C838B83FC010280F381E02D13
:10076000FA83E983FC010481158129813A812F5F95
:100770003F4F3C872B87A8014F5F5F4F5E874D87B8
:100780001801E981FA818785908923853485281BA2
:10079000390B388B2F8725853685AC01420F531FC7
:1007A0005E834D83F1018785908923853485A90176
:1007B000481B590B58874F8325853685FC01E20F6E
:1007C000F31FFA87E98761E081E00E946903EEE1A7
:1007D000F2E093E58091C10085FDFCCF8091C000DF
:1007E00085FFF8CF9093C60091919111F3CFEB81E3
:1007F000FC8122A133A13695279536952795ABE745
:10080000B4E10E945D0A969587950E94DF0061E041
:1008100082E00E946903EFE2F2E09EE48091C10071
:1008200085FDFCCF8091C00085FFF8CF9093C60076
:1008300091919111F3CFEB81FC8180A191A10E9454
:10084000DF0061E084E00E94690351E5A52E52E0DB
:10085000B52EF50194E58091C10085FDFCCF809116
:10086000C00085FFF8CF9093C60091919111F3CF0E
:10087000E981FA81828590E00E94DF0061E085E0F5
:100880000E9469034DE5C42E42E0D42EF60194E5A2
:100890008091C10085FDFCCF8091C00085FFF8CF1D
:1008A0009093C60091919111F3CFE981FA819081E3
:1008B000992379F0EB85FC858091C10085FDFCCF03
:1008C0008091C00085FFF8CF9093C600919191115F
:1008D000F3CF61E086E00E9469033BE6E32E32E05D
:1008E000F32EF70193E58091C10085FDFCCF809147
:1008F000C00085FFF8CF9093C60091919111F3CF7E
:10090000E981FA81818992890E945F0261E087E032
:100910000E94690303E812E0F80192E48091C100AB
:1009200085FDFCCF8091C00085FFF8CF9093C60075
:1009300091919111F3CF8F8598890E94DF0061E03A
:1009400088E00E9469032DE932E0388B2F87F90196
:1009500093E58091C10085FDFCCF8091C00085FFAB
:10096000F8CF9093C60091919111F3CFE981FA816C
:10097000858596850E94DF0061E089E00E94690319
:100980002AEA822E22E0922EF40193E48091C100A3
:1009900085FDFCCF8091C00085FFF8CF9093C60005
:1009A00091919111F3CFE981FA81838594850E9419
:1009B0005F0261E08AE00E94690391EC692E92E097
:1009C000792EF30193E58091C10085FDFCCF8091E4
:1009D000C00085FFF8CF9093C60091919111F3CF9D
:1009E000E981FA81878590890E945F0261E08BE04E
:1009F0000E94690381ED482E82E0582EF20195E4B1
:100A00008091C10085FDFCCF8091C00085FFF8CFAB
:100A10009093C60091919111F3CF8D819E810E9498
:100A20005F0261E08DE00E94690394E58091C1005E
:100A300085FDFCCF8091C00085FFF8CF9093C60064
:100A4000F50191915F019111F1CFF101828590E063
:100A50000E94DF0061E08EE00E94690394E58091CE
:100A6000C10085FDFCCF8091C00085FFF8CF909339
:100A7000C600F60191916F019111F1CFF1019081C2
:100A8000992379F0ED85FE858091C10085FDFCCF2D
:100A90008091C00085FFF8CF9093C600919191118D
:100AA000F3CF61E08FE00E94690393E58091C1007C
:100AB00085FDFCCF8091C00085FFF8CF9093C600E4
:100AC000F70191917F019111F1CFF1018189928913
:100AD0000E945F0261E080E10E94690392E48091DC
:100AE000C10085FDFCCF8091C00085FFF8CF9093B9
:100AF000C600F80191918F019111F1CF8F819885F6
:100B00000E94DF0061E081E10E94690393E580912A
:100B1000C10085FDFCCF8091C00085FFF8CF909388
:100B2000C600EF85F8899191F88BEF879111EFCF8F
:100B3000F101858596850E94DF0061E082E10E94D7
:100B4000690393E48091C10085FDFCCF8091C000D2
:100B500085FFF8CF9093C600F40191914F01911158
:100B6000F1CFF101838594850E945F0261E083E10A
:100B70000E94690393E58091C10085FDFCCF8091BF
:100B8000C00085FFF8CF9093C600F30191913F011B
:100B90009111F1CFF101878590890E945F0261E098
:100BA00084E10E94690395E48091C10085FDFCCF3A
:100BB0008091C00085FFF8CF9093C600F20191911B
:100BC0002F019111F1CF89859A850E945F02D9CDBD
:100BD0009091C10095FDFCCF9091C00095FFF8CF9A
:100BE0009BE19093C6009091C10095FDFCCF909140
:100BF000C00095FFF8CF9BE59093C60090E00E945F
:100C0000DF008091C10085FDFCCF8091C00085FF91
:100C1000F8CF8DE68093C6000895CF93DF93EC0163
:100C200088E090E09F838E8362E070E00E94800AFB
:100C30009D838C8319861886DF91CF910895CF9379
:100C4000DF93FC01A0912403B0912503828193815D
:100C5000892BA1F596968D919C9197970896880F70
:100C6000991FA80FB91F0D90BC91A02D248135812B
:100C700080859185AC014F5F5F4F51874087880F1A
:100C8000991F820F931FEC01B983A88386819781F6
:100C900048175907ECF482E090E013969C938E93EA
:100CA0001297F89483B7816083BF7894889583B74F
:100CB0008E7F83BFA0912403B091250313821282FB
:100CC00096968D919C9191838083DF91CF91089529
:100CD00011861086E0CF7C01C0912603D0912703B6
:100CE00088E090E09F838E8362E070E00E94800A3B
:100CF0009D838C8319861886E7012A96BB24B394BA
:100D000001E010E0670107C0FFEFCF1ADF0ACC1542
:100D1000DD0509F448C0F60180818823A9F3B0827B
:100D200061E086E10E946903E7EEF2E090E78091DE
:100D3000C10085FDFCCF8091C00085FFF8CF909366
:100D4000C60091919111F3CFE0912403F091250316
:100D500011A700A7E0912603F091270313830283D4
:100D6000808591850197918780879C01220F331F91
:100D7000A481B581A20FB31F0D90BC91A02D2D9120
:100D80003C913183208397FF04C0868197819187AE
:100D9000808783B78E7F83BFFFEFCF1ADF0ACC1522
:100DA000DD0509F0B8CF61E086E10E946903E3EE5A
:100DB000F2E09EE68091C10085FDFCCF8091C000ED
:100DC00085FFF8CF9093C60091919111F3CFE091F8
:100DD0002403F091250311A610A68091260390917B
:100DE00027030E941F068ECFEC0109967C0101E0CB
:100DF00010E0670107C0F1E0CF1AD108CC15DD057E
:100E000009F443C0F60180818823A9F361E087E1FA
:100E10000E946903E6EFF2E093E68091C10085FD50
:100E2000FCCF8091C00085FFF8CF9093C6009191D0
:100E30009111F3CFF6011082E0912603F091270380
:100E400013830283808591850197918780879C0118
:100E5000220F331FA481B581A20FB31F0D90BC9147
:100E6000A02D2D913C913183208397FF04C0868172
:100E700097819187808783B78E7F83BFF1E0CF1AF8
:100E8000D108CC15DD0509F0BDCF61E087E10E94F6
:100E90006903E2EFF2E09EE68091C10085FDFCCFA0
:100EA0008091C00085FFF8CF9093C6009191911179
:100EB000F3CF80912603909127030E941F0699CFBC
:100EC000FC0181E090E09383828380859185019786
:100ED000918780879C01220F331FA481B581A20FC7
:100EE000B31F0D90BC91A02D2D913C913183208397
:100EF00097FF04C0868197819187808783B78E7F13
:100F000083BF0895CF93DF93EC01862F660F990B73
:100F10009983888362E070E00E94800A9B838A83C1
:100F20001F821E82DF91CF910895FC0120813181C3
:100F3000215031093183208337FF0895A091240384
:100F4000B091250396968D919C9197970896880F5E
:100F5000991FA80FB91F0D90BC91A02D82E090E0C1
:100F600013969C938E931297228133818681978169
:100F7000AC014F5F5F4F57834683880F991F820FE5
:100F8000931FFC01B183A083F89483B7816083BF72
:100F90007894889583B78E7F83BF0895FC0126815E
:100FA00037812150310937832683220F331F8281F5
:100FB0009381280F391FD901ED91FC9181E090E0D8
:100FC0009383828383B78E7F83BF089508950895A6
:100FD0000895089584E290E0FC01208184E290E08D
:100FE0002068FC01208385E290E0FC01208185E2FD
:100FF00090E02068FC012083089584E290E0FC01E9
:10100000208184E290E02068FC01208385E290E06A
:10101000FC01208185E290E02F74FC01208308957B
:10102000E0912403F091250380A591A5892B51F02F
:101030000E94EA07E0912403F091250380A591A581
:10104000892BB1F70E94FD07EBCF181619066CF437
:1010500030E020E0EFE9FFE03197F1F700C0000059
:101060002F5F3F4F82179307A9F708951F920F92A2
:101070000FB60F9211240F900FBE0F901F9018956E
:10108000EEE6F0E080818260808384B5826084BD7A
:1010900085B5856085BD8CE987BD89E09DE390932A
:1010A000890080938800EFE6F0E080818260808391
:1010B000E1E8F0E080818D60808308952F923F9277
:1010C0004F925F926F927F928F929F92AF92BF9258
:1010D000CF92DF92EF92FF920F931F93CF93DF9304
:1010E000FF27EDE521903080FB0121923082FC0149
:1010F00021903080FF27EDE521923082DF91CF9162
:101100001F910F91FF90EF90DF90CF90BF90AF9025
:101110009F908F907F906F905F904F903F902F9017
:1011200008951F920F920FB60F9211240BB60F92D3
:101130002F933F934F935F936F937F938F939F93DF
:10114000AF93BF93EF93FF93E0912403F0912503B6
:1011500082A193A1019693A382A3A6A1B7A126A1E0
:1011600037A180A191A12817390749F12F5F3F4F7F
:10117000AA0FBB1FAE0FBF1F6D917C91D901AA0FA3
:10118000BB1FAE0FBF1F8D919C9137A326A3655F38
:101190007F4F0B960E945E08FF91EF91BF91AF9138
:1011A0009F918F917F916F915F914F913F912F917F
:1011B0000F900BBE0F900FBE0F901F90189521E05F
:1011C00030E0D6CF6F927F928F929F92AF92BF9274
:1011D000CF92DF92EF92FF920F931F93CF93DF9303
:1011E0005C01962E872E742E652EE901E090240373
:1011F000F0902503D7019096CD90DC909197C60191
:10120000019691969C938E93909783E190E00E9433
:101210009C0A8C01FC01C2868AE0F501D80101908C
:101220000D928A95E1F7D80151969C92519752966A
:101230008C925297CE018A961E969C938E931D9700
:101240000E949C0AF801908B8787FE017496E80F34
:10125000F91FD8011C96FC93EE931B97138A8FE914
:1012600090E0948B858B818A928A6786708AE601EA
:10127000CC0FDD1FCE0DDF1D198308838EE090E0BB
:101280000E949C0ADC01998B888B81E090E0139688
:101290009C938E9312971196DC92CE9214968AE0CC
:1012A000F50101900D928A95E1F7DF91CF911F91A1
:1012B0000F91FF90EF90DF90CF90BF90AF909F90F5
:1012C0008F907F906F900895E0912403F091250313
:1012D00086A197A120A131A12817390711F0019605
:1012E000089581E090E00895E0912403F0912503B2
:1012F00086A197A10895E0912403F091250386A18A
:1013000097A10896880F991FE80FF91F8081918196
:101310000895F89483B7816083BF7894889583B7E4
:101320008E7F83BF08950E944D03E0912403F091C6
:10133000250382E090E097A386A30E94400878945A
:10134000E0912403F091250360817181655F7F4FF7
:10135000828193810B960E945E0808950F931F93DC
:10136000CF93DF938AE290E00E949C0AEC01909375
:1013700025038093240301E010E019A308A31FA212
:101380001EA21BA21AA21DA21CA2E889F989118221
:1013900010828EE090E00E949C0A998B888BFC0161
:1013A00013830283DC01149685E0E0E0F3E0019012
:1013B0000D928A95E1F7DF91CF911F910F910895DA
:1013C000CF93DF938AE090E00E949C0AEC0129E130
:1013D00030E050E040E060E178E085E093E00E949A
:1013E000E208409124035091250328EC30E060EAA4
:1013F00073E08BE093E00E94E20822E330E0AE016C
:101400006BE676E081E193E00E94E20822E330E0BF
:10141000AE0164EF76E08AE193E00E94E208DF919A
:10142000CF910C94930982E08093C0001092C50084
:1014300080E18093C400E1ECF0E0808188618083EA
:101440000E94AE090E94E00990E080E0089597FBB9
:10145000072E16F4009407D077FD09D00E946C0A7D
:1014600007FC05D03EF4909581959F4F08957095A7
:1014700061957F4F0895A1E21A2EAA1BBB1BFD01A7
:101480000DC0AA1FBB1FEE1FFF1FA217B307E40763
:10149000F50720F0A21BB30BE40BF50B661F771FBB
:1014A000881F991F1A9469F760957095809590959B
:1014B0009B01AC01BD01CF010895A29FB001B39F74
:1014C000C001A39F700D811D1124911DB29F700D4D
:1014D000811D1124911D0895AA1BBB1B51E107C05A
:1014E000AA1FBB1FA617B70710F0A61BB70B881FB4
:1014F000991F5A95A9F780959095BC01CD01089543
:101500000F931F93CF93DF93869F8001879F100DCA
:10151000969F100D1124C8010E949C0AEC010097AF
:1015200029F0A80170E060E00E94C10BCE01DF91BC
:10153000CF911F910F9108950F931F93CF93DF9336
:101540008230910510F482E090E0E0912A03F0915E
:101550002B0330E020E0B0E0A0E0309799F42115B3
:10156000310509F44AC0281B390B24303105D8F560
:101570008A819B816115710589F1FB0193838283C7
:10158000FE0111C040815181028113814817590722
:10159000E0F04817590799F4109761F012960C93F0
:1015A000129713961C933296CF01DF91CF911F9122
:1015B0000F91089500932A0310932B03F4CF211564
:1015C000310551F04217530738F0A901DB019A01A8
:1015D000BD01DF01F801C1CFEF01F9CF90932B03DB
:1015E00080932A03CDCFFE01E20FF31F81939193E5
:1015F0002250310939832883D7CF20912803309195
:101600002903232B41F420910202309103023093ED
:101610002903209328032091000230910102211513
:10162000310541F42DB73EB74091040250910502B7
:10163000241B350BE0912803F0912903E217F307EF
:10164000A0F42E1B3F0B2817390778F0AC014E5F32
:101650005F4F2417350748F04E0F5F1F5093290343
:1016600040932803819391939FCFF0E0E0E09CCFDB
:10167000CF93DF930097E9F0FC0132971382128237
:10168000A0912A03B0912B03ED0130E020E01097E8
:10169000A1F420813181820F931F20912803309182
:1016A00029032817390709F061C0F0932903E09353
:1016B0002803DF91CF910895EA01CE17DF07E8F5FF
:1016C0004A815B819E0141155105B1F7E901FB8318
:1016D000EA8349915991C40FD51FEC17FD0761F4B6
:1016E000808191810296840F951FE90199838883F7
:1016F000828193819B838A83F0E0E0E012968D9152
:101700009C9113970097B9F52D913C911197CD01BC
:101710000296820F931F20912803309129032817E6
:10172000390739F6309751F510922B0310922A039E
:10173000B0932903A0932803BCCFD383C2834081F5
:101740005181840F951FC817D90761F44E5F5F4F11
:1017500088819981480F591F518340838A819B81D9
:10176000938382832115310509F0B0CFF0932B03C9
:10177000E0932A039ECFFD01DC01C0CF13821282C9
:10178000D7CFDC0101C06D9341505040E0F7089580
:04179000F894FFCFFB
:1017940000002C03200030313233343536373839E9
:1017A4004142434445463078005B324A00537973E2
:1017B40074656D2074696D652069733A20004E75F7
:1017C4006D626572206F662074687265616473204F
:1017D400696E207468652073797374656D3A2000AE
:1017E4005468726561642069643A200054687265C3
:1017F4006164206E616D653A20005374617274698E
:101804006E67205043206F66207468726561643A85
:1018140020004279746573207573656420627920B1
:1018240074686520737461636B3A20005374616358
:101834006B2073697A653A200043757272656E7421
:1018440020746F70206F6620737461636B3A20009C
:10185400537461636B20626173652069733A20007D
:10186400456E64206F6620737461636B2061743A03
:1018740020006E6F742070726F647563696E6721E7
:10188400006E6F7420636F6E73756D696E672100EF
:101894006D61696E00626C696E6B00737461747360
:1018A4000070726F647563657200636F6E73756D3B
:0418B4006572000059
:00000001FF
