:100000000C947C000C949D000C949D000C949D001D
:100010000C949D000C949D000C949D000C949D00EC
:100020000C949D000C949D000C949D000C949D00DC
:100030000C949D000C949D000C949D000C949D00CC
:100040000C949D000C9490060C949D000C949D00C3
:100050000C949D000C94EB060C949D000C949D0058
:100060000C949D000C949D000C949D000C949D009C
:100070000C949D000C949D000C949D000C949D008C
:100080000C949D000C949D000C949D000C949D007C
:100090000C949D000C949D000C949D000C949D006C
:1000A0000C949D000C949D000C949D000C949D005C
:1000B0000C949D000C949D000C949D000C949D004C
:1000C0000C949D000C949D000C949D000C949D003C
:1000D0000C949D000C949D000C949D000C949D002C
:1000E0000C949D000C946A060C949F000C94D30011
:1000F0000C94D4030C94C60011241FBECFEFD1E2A0
:10010000DEBFCDBF00E00CBF13E0A0E0B2E0E2EB49
:10011000F3E100E00BBF02C007900D92A030B107E1
:10012000D9F723E0A0E0B3E001C01D92A630B207EA
:10013000E1F70E9434080C94D7090C940000EC01FC
:100140009C01265F3F4F61E041E050E0FE0104C0AA
:100150003196E217F30781F090819923C9F3608308
:10016000A0910003B091010399965C934E939897E8
:100170003196E217F30781F7F89493B7916093BF34
:100180007894889593B79E7F93BFE0CF9C01FC0144
:1001900039969081911105C031972E173F07C9F705
:1001A0000895108208957894C201F101099482E0C3
:1001B0008093C0001092C50080E18093C400E1EC00
:1001C000F0E080818861808308958091C000881F5D
:1001D0008827881F08958091C00087FF03C0809101
:1001E000C60008958FEF08959091C10095FDFCCF52
:1001F0009091C00095FFF8CF8093C60081E00895EC
:10020000FC012081222371F031969091C10095FD6F
:10021000FCCF9091C00095FFF8CF2093C6002191AC
:100220002111F3CF08950F931F93CF93DF9300D045
:1002300000D0CDB7DEB7FC019C01329522952F701E
:1002400023273F702327A7E4B3E00E948F089695E9
:100250008795969587959695879540E3480F4983AE
:100260009F01369527953695279536952795A5ECC8
:10027000B0E20E948F08929582958F7089279F70B7
:1002800089270AE010E0B8010E945908805D8A833E
:100290009F013695279536952795ABE7B4E10E94E7
:1002A0008F0896958795B8010E945908805D8B83C9
:1002B0009F01ADECBCEC0E948F089C013695279500
:1002C0003695279536952795C901B8010E9459089A
:1002D000805D8C83C901880F991F880F991F820F39
:1002E000931F880F991FE81BF90BE05DED831E82B9
:1002F000F0E0E0E04033E9F0442381F0EC0FFD1F33
:1003000032969091C10095FDFCCF9091C00095FF71
:10031000F8CF4093C60041914111F3CF26960FB616
:10032000F894DEBF0FBECDBFDF91CF911F910F912B
:1003300008953196E530F10561F48091C10085FDA5
:10034000FCCF8091C00085FFF8CF80E38093C6008A
:10035000E5CFA1E0B0E0AC0FBD1FAE0FBF1F4C91C9
:10036000C9CF8F929F92AF92BF92CF92DF92EF92BE
:10037000FF921F93CF93DF9300D000D000D01F9245
:10038000CDB7DEB74B015C0120E03AEC4AE95BE314
:100390000E946D08205D2983C501B40120E031EE83
:1003A00045EF55E00E946D088AE0C82ED12CE12C63
:1003B000F12CCA01B901A70196010E946D08605D88
:1003C0006A83C501B40120E836E948E950E00E949B
:1003D0006D08CA01B901A70196010E946D08605D10
:1003E0006B83C501B40120E432E44FE050E00E9489
:1003F0006D08CA01B901A70196010E946D08605DF0
:100400006C83C501B40120EA36E841E050E00E9467
:100410006D08CA01B901A70196010E946D08605DCF
:100420006D83C501B40120E137E240E050E00E9455
:100430006D08CA01B901A70196010E946D08605DAF
:100440006E83C501B40128EE33E040E050E00E9425
:100450006D08CA01B901A70196010E946D08605D8F
:100460006F83C501B40124E630E040E050E00E9413
:100470006D08CA01B901A70196010E946D08605D6F
:100480006887C501B401A70196010E946D08162F67
:10049000CA01B901A70196010E946D08605D6987D4
:1004A000105D1A871B86FE013196AE01455F5F4FD6
:1004B000DF019D012E1B3F0B9D91903329F1992364
:1004C00089F02F5F3F4FE20FF31F8091C10085FD40
:1004D000FCCF8091C00085FFF8CF9093C60091912A
:1004E0009111F3CF2A960FB6F894DEBF0FBECDBFA1
:1004F000DF91CF911F91FF90EF90DF90CF90BF9051
:10050000AF909F908F900895A417B50791F68091B2
:10051000C10085FDFCCF8091C00085FFF8CF80E34E
:100520008093C600DFCF1F93CF93DF9300D01F923D
:10053000CDB7DEB7009709F461C0AE014F5F5F4FE2
:10054000FA01BA0130E020E0DC01AF70BB27AA5FFE
:10055000BD4F1C91DB011D93BD012F5F3F4F929555
:1005600082958F7089279F708927009769F7B90155
:10057000759567956115710509F446C0DA01A20FFA
:10058000B31F640F751F80819E91892780839C9182
:1005900089278C93908189278193E617F70799F72C
:1005A000240F351FF9011082E7E1F2E090E380911A
:1005B000C10085FDFCCF8091C00085FFF8CF9093EE
:1005C000C60091919111F3CF9981992379F0FE01A1
:1005D00032968091C10085FDFCCF8091C00085FFDF
:1005E000F8CF9093C60091919111F3CF0F900F9097
:1005F0000F900F90DF91CF911F91089530E020E090
:10060000AE014F5F5F4FCCCF21E030E0C9CFCF923A
:10061000DF92EF92FF920F931F93CF93DF936B01C3
:100620007C0188E090E00E94B2088C019C01C1141A
:10063000D104E104F104A9F1DC01F0E0E0E0B7014C
:10064000A6014F705527662777274A5F5D4FEA015D
:100650002881EC012993CE01319624E0F694E794A9
:10066000D794C7942A95D1F79E01C114D104E1040F
:10067000F10429F7AF01559547954115510589F0CA
:10068000E00FF11F400F511F9C91829198279C937E
:100690008081982790838C9198279D93A417B50704
:1006A00099F7F9011082E7E1F2E080E39091C1004F
:1006B00095FDFCCF9091C00095FFF8CF8093C600C8
:1006C00081918111F3CFE8018881882379F0F801C5
:1006D00031969091C10095FDFCCF9091C00095FF9F
:1006E000F8CF8093C60081918111F3CFC801DF91CB
:1006F000CF911F910F91FF90EF90DF90CF900C94CE
:100700004E098091C10085FDFCCF8091C00085FF1E
:10071000F8CF8BE18093C600EAE1F2E09BE580919F
:10072000C10085FDFCCF8091C00085FFF8CF90937C
:10073000C60091919111F3CF0895CF93C62F909158
:10074000C10095FDFCCF9091C00095FFF8CF9BE1D3
:100750009093C6009091C10095FDFCCF9091C00090
:1007600095FFF8CF9BE59093C60090E00E9413019F
:100770008091C10085FDFCCF8091C00085FFF8CF3E
:100780008BE38093C6008C2F90E00E941301809130
:10079000C10085FDFCCF8091C00085FFF8CF88E4C3
:1007A0008093C600CF910895CF93DF93CDB7DEB786
:1007B00060970FB6F894DEBF0FBECDBF9C838B83CE
:1007C000FC010280F381E02DFA83E983FC010481BE
:1007D000158129813A812F5F3F4F3C872B87A801E4
:1007E0004F5F5F4F5E874D871801E981FA818785EA
:1007F000908923853485281B390B388B2F872585D5
:100800003685AC01420F531F5E834D83F10187850E
:10081000908923853485A901481B590B58874F833C
:1008200025853685FC01E20FF31FFA87E98761E031
:1008300081E00E949D03EEE1F2E093E58091C1002A
:1008400085FDFCCF8091C00085FFF8CF9093C60056
:1008500091919111F3CFEB81FC8122A133A13695C7
:10086000279536952795ABE7B4E10E948F089695BA
:1008700087950E94130161E082E00E949D03EFE2F0
:10088000F2E09EE48091C10085FDFCCF8091C00024
:1008900085FFF8CF9093C60091919111F3CFEB8132
:1008A000FC8180A191A10E94130161E084E00E947B
:1008B0009D0351E5A52E52E0B52EF50194E58091FA
:1008C000C10085FDFCCF8091C00085FFF8CF9093DB
:1008D000C60091919111F3CFE981FA81828590E070
:1008E0000E94130161E085E00E949D034DE5C42E46
:1008F00042E0D42EF60194E58091C10085FDFCCF45
:100900008091C00085FFF8CF9093C600919191111E
:10091000F3CFE981FA819081992379F0EB85FC8509
:100920008091C10085FDFCCF8091C00085FFF8CF8C
:100930009093C60091919111F3CF61E086E00E94FF
:100940009D033BE6E32E32E0F32EF70193E5809121
:10095000C10085FDFCCF8091C00085FFF8CF90934A
:10096000C60091919111F3CFE981FA818189928931
:100970000E94930261E087E00E949D0303E812E079
:10098000F80192E48091C10085FDFCCF8091C00008
:1009900085FFF8CF9093C60091919111F3CF8F8589
:1009A00098890E94130161E088E00E949D032DE96F
:1009B00032E0388B2F87F90193E58091C10085FDE6
:1009C000FCCF8091C00085FFF8CF9093C600919135
:1009D0009111F3CFE981FA81858596850E941301F3
:1009E00061E089E00E949D032AEA822E22E0922E95
:1009F000F40193E48091C10085FDFCCF8091C0009B
:100A000085FFF8CF9093C60091919111F3CFE981C2
:100A1000FA81838594850E94930261E08AE00E94B6
:100A20009D0391EC692E92E0792EF30193E580917C
:100A3000C10085FDFCCF8091C00085FFF8CF909369
:100A4000C60091919111F3CFE981FA818785908950
:100A50000E94930261E08BE00E949D0381ED482E8D
:100A600082E0582EF20195E48091C10085FDFCCF13
:100A70008091C00085FFF8CF9093C60091919111AD
:100A8000F3CF8D819E810E94930261E08DE00E94F0
:100A90009D0394E58091C10085FDFCCF8091C0004D
:100AA00085FFF8CF9093C600F50191915F019111F8
:100AB000F1CFF101828590E00E94130161E08EE0A8
:100AC0000E949D0394E58091C10085FDFCCF80913B
:100AD000C00085FFF8CF9093C600F60191916F0199
:100AE0009111F1CFF1019081992379F0ED85FE8587
:100AF0008091C10085FDFCCF8091C00085FFF8CFBB
:100B00009093C60091919111F3CF61E08FE00E9424
:100B10009D0393E58091C10085FDFCCF8091C000CD
:100B200085FFF8CF9093C600F70191917F01911155
:100B3000F1CFF101818992890E94930261E080E105
:100B40000E949D0392E48091C10085FDFCCF8091BD
:100B5000C00085FFF8CF9093C600F80191918F01F6
:100B60009111F1CF8F8198850E94130161E081E19D
:100B70000E949D0393E58091C10085FDFCCF80918B
:100B8000C00085FFF8CF9093C600EF85F88991915A
:100B9000F88BEF879111EFCFF101858596850E9443
:100BA000130161E082E10E949D0393E48091C10002
:100BB00085FDFCCF8091C00085FFF8CF9093C600E3
:100BC000F40191914F019111F1CFF1018385948549
:100BD0000E94930261E083E10E949D0393E580916E
:100BE000C10085FDFCCF8091C00085FFF8CF9093B8
:100BF000C600F30191913F019111F1CFF101878579
:100C000090890E94930261E084E10E949D0395E433
:100C10008091C10085FDFCCF8091C00085FFF8CF99
:100C20009093C600F20191912F019111F1CF898526
:100C30009A850E949302D9CD9091C10095FDFCCF79
:100C40009091C00095FFF8CF9BE19093C6009091E2
:100C5000C10095FDFCCF9091C00095FFF8CF9BE5BA
:100C60009093C60090E00E9413018091C10085FD21
:100C7000FCCF8091C00085FFF8CF8DE68093C60041
:100C8000089508950895089584E290E0FC0120817C
:100C900084E290E02068FC01208385E290E0FC0182
:100CA000208185E290E02068FC012083089584E2A1
:100CB00090E0FC01208184E290E02068FC01208328
:100CC00085E290E0FC01208185E290E02F74FC0138
:100CD00020830895E0910003F091010380A591A580
:100CE000892B51F00E944406E0910003F09101032A
:100CF00080A591A5892BB1F70E945706EBCF181656
:100D000019066CF430E020E0EFE9FFE03197F1F7ED
:100D100000C000002F5F3F4F82179307A9F7089587
:100D20001F920F920FB60F9211240F900FBE0F90CB
:100D30001F901895EEE6F0E080818260808384B594
:100D4000826084BD85B5856085BD8CE987BD89E0FD
:100D50009DE39093890080938800EFE6F0E0808126
:100D600082608083E1E8F0E080818D608083089577
:100D70002F923F924F925F926F927F928F929F92AB
:100D8000AF92BF92CF92DF92EF92FF920F931F9399
:100D9000CF93DF93FF27EDE521903080FB01219277
:100DA0003082FC0121903080FF27EDE521923082D6
:100DB000DF91CF911F910F91FF90EF90DF90CF9037
:100DC000BF90AF909F908F907F906F905F904F906B
:100DD0003F902F9008951F920F920FB60F921124FB
:100DE0000BB60F922F933F934F935F936F937F9325
:100DF0008F939F93AF93BF93EF93FF93E091000383
:100E0000F091010382A193A1019693A382A3A6A1CD
:100E1000B7A186A197A18D7F22E030E0892B11F444
:100E200021E030E0AA0FBB1FAE0FBF1F6D917C9178
:100E3000D901AA0FBB1FAE0FBF1F8D919C9137A385
:100E400026A3655F7F4F0B960E94B806FF91EF9136
:100E5000BF91AF919F918F917F916F915F914F91D2
:100E60003F912F910F900BBE0F900FBE0F901F90D0
:100E700018956F927F928F929F92AF92BF92CF926E
:100E8000DF92EF92FF920F931F93CF93DF934C016A
:100E9000B62EA72E742E652EE901E0900003F09087
:100EA0000103D7019096CD90DC909197C6010196F1
:100EB00091969C938E93909783E190E00E94B20864
:100EC0008C01FC01C2868AE0F401D80101900D92E8
:100ED0008A95E1F7D8015196BC9251975296AC92FF
:100EE0005297CE018A961E969C938E931D970E94D0
:100EF000B208F801908B8787FE017496E80FF91FFE
:100F0000D8011C96FC93EE931B97138A83ED90E017
:100F1000948B858BA18AB28A6786708ACC0CDD1C83
:100F2000EC0CFD1CF70111830083DF91CF911F9121
:100F30000F91FF90EF90DF90CF90BF90AF909F9078
:100F40008F907F906F900895E0910003F0910103DE
:100F500086A197A18D7F892B19F082E090E00895FA
:100F600081E090E00895E0910003F091010386A1F3
:100F700097A10895E0910003F091010386A197A144
:100F80000896880F991FE80FF91F808191810895B5
:100F9000F89483B7816083BF7894889583B78E7FF8
:100FA00083BF08950E948103E0910003F091010343
:100FB00082E090E097A386A30E949A067894E0913D
:100FC0000003F091010360817181655F7F4F84812F
:100FD00095810B960E94B80608958AE290E00E94DF
:100FE000B208FC01909301038093000381E090E03C
:100FF00091A380A317A216A213A212A215A214A253
:101000000895CF93DF938AE090E00E94B208EC014C
:1010100029E130E050E040E06AE676E082EE92E0DE
:101020000E943907409100035091010328EC30E001
:1010300064ED73E088EE92E00E94390722E330E02D
:10104000AE016FE970E08EEE92E00E94390722E374
:1010500030E0AE0166EC70E087EF92E00E94390765
:10106000DF91CF910C94D20782E08093C000109260
:10107000C50080E18093C400E1ECF0E080818861EC
:1010800080838AE290E00E94B208FC019093010301
:101090008093000381E090E091A380A317A216A2A1
:1010A00013A212A215A214A20E94010890E080E0EF
:1010B000089597FB072E16F4009407D077FD09D00A
:1010C0000E949E0807FC05D03EF4909581959F4FA5
:1010D0000895709561957F4F0895A1E21A2EAA1B7D
:1010E000BB1BFD010DC0AA1FBB1FEE1FFF1FA217D8
:1010F000B307E407F50720F0A21BB30BE40BF50BD5
:10110000661F771F881F991F1A9469F7609570955D
:10111000809590959B01AC01BD01CF010895A29FE0
:10112000B001B39FC001A39F700D811D1124911DBB
:10113000B29F700D811D1124911D0895AA1BBB1B28
:1011400051E107C0AA1FBB1FA617B70710F0A61BC7
:10115000B70B881F991F5A95A9F780959095BC01E8
:10116000CD0108950F931F93CF93DF9382309105A4
:1011700010F482E090E0E0910403F091050330E088
:1011800020E0B0E0A0E0309799F42115310509F492
:101190004AC0281B390B24303105D8F58A819B8140
:1011A0006115710589F1FB0193838283FE0111C0F2
:1011B000408151810281138148175907E0F0481797
:1011C000590799F4109761F012960C9312971396A1
:1011D0001C933296CF01DF91CF911F910F9108950B
:1011E0000093040310930503F4CF2115310551F04A
:1011F0004217530738F0A901DB019A01BD01DF0155
:10120000F801C1CFEF01F9CF909305038093040358
:10121000CDCFFE01E20FF31F81939193225031094C
:1012200039832883D7CF2091020330910303232BE6
:1012300041F4209102023091030230930303209382
:10124000020320910002309101022115310541F481
:101250002DB73EB74091040250910502241B350B77
:10126000E0910203F0910303E217F307A0F42E1BB1
:101270003F0B2817390778F0AC014E5F5F4F2417FA
:10128000350748F04E0F5F1F50930303409302034E
:10129000819391939FCFF0E0E0E09CCFCF93DF93D9
:1012A0000097E9F0FC01329713821282A0910403A7
:1012B000B0910503ED0130E020E01097A1F420810A
:1012C0003181820F931F209102033091030328176D
:1012D000390709F061C0F0930303E0930203DF9143
:1012E000CF910895EA01CE17DF07E8F54A815B81C7
:1012F0009E0141155105B1F7E901FB83EA8349914C
:101300005991C40FD51FEC17FD0761F480819181BD
:101310000296840F951FE9019983888382819381C6
:101320009B838A83F0E0E0E012968D919C91139765
:101330000097B9F52D913C911197CD010296820F3E
:10134000931F20910203309103032817390739F6C0
:10135000309751F51092050310920403B0930303E4
:10136000A0930203BCCFD383C28340815181840FF9
:10137000951FC817D90761F44E5F5F4F8881998127
:10138000480F591F518340838A819B8193838283B5
:101390002115310509F0B0CFF0930503E093040364
:1013A0009ECFFD01DC01C0CF13821282D7CFF8940B
:0213B000FFCF6D
:1013B20000000603200030313233343536373839F5
:1013C2004142434445463078005B324A00537973C8
:1013D20074656D2074696D652069733A20004E75DD
:1013E2006D626572206F6620746872656164732035
:1013F200696E207468652073797374656D3A200094
:101402005468726561642069643A200054687265A8
:101412006164206E616D653A200053746172746973
:101422006E67205043206F66207468726561643A6B
:101432002000427974657320757365642062792097
:1014420074686520737461636B3A2000537461633E
:101452006B2073697A653A200043757272656E7407
:1014620020746F70206F6620737461636B3A200082
:10147200537461636B20626173652069733A200063
:10148200456E64206F6620737461636B2061743AE9
:101492002000626C696E6B00737461747300707209
:1014A2006F647563657200636F6E73756D6572004C
:00000001FF
