:100000000C9476000C9497000C9497000C94970035
:100010000C9497000C9497000C9497000C94970004
:100020000C9497000C9497000C9497000C949700F4
:100030000C9497000C9497000C9497000C949700E4
:100040000C9497000C9497000C9497000C949700D4
:100050000C9497000C94BF030C9497000C94970099
:100060000C9497000C9497000C9497000C949700B4
:100070000C9497000C9497000C9497000C949700A4
:100080000C9497000C9497000C9497000C94970094
:100090000C9497000C9497000C9497000C94970084
:1000A0000C9497000C9497000C9497000C94970074
:1000B0000C9497000C9497000C9497000C94970064
:1000C0000C9497000C9497000C9497000C94970054
:1000D0000C9497000C9497000C9497000C94970044
:1000E0000C9497000C9450030C94990011241FBE9B
:1000F000CFEFD1E2DEBFCDBF00E00CBF12E0A0E049
:10010000B2E0E2E8FCE000E00BBF02C007900D9215
:10011000AE33B107D9F722E0AEE3B2E001C01D92E1
:10012000A434B207E1F70E94A3040C943F060C9498
:1001300000007894FE01099482E08093C000109240
:10014000C50080E18093C400E1ECF0E0808188612B
:10015000808308958091C000881F8827881F089594
:100160008091C00087FF03C08091C60008958FEF83
:1001700008959091C10095FDFCCF9091C00095FF2E
:10018000F8CF8093C60081E00895FC0120812223EE
:1001900071F031969091C10095FDFCCF9091C00017
:1001A00095FFF8CF2093C60021912111F3CF089538
:1001B0000F931F93CF93DF9300D000D0CDB7DEB75E
:1001C000FC019C01329522952F7023273F70232735
:1001D000A7E4B3E00E94F7049695879596958795D6
:1001E0009695879540E3480F49839F01369527955B
:1001F0003695279536952795A5ECB0E20E94F70431
:10020000929582958F7089279F7089270AE010E068
:10021000B8010E94C104805D8A839F0136952795AD
:1002200036952795ABE7B4E10E94F704969587953C
:10023000B8010E94C104805D8B839F01ADECBCECD2
:100240000E94F7049C01369527953695279536959B
:100250002795C901B8010E94C104805D8C83C90142
:10026000880F991F880F991F820F931F880F991F5E
:10027000E81BF90BE05DED831E82F0E0E0E0403327
:10028000E9F0442381F0EC0FFD1F32969091C100FC
:1002900095FDFCCF9091C00095FFF8CF4093C6002C
:1002A00041914111F3CF26960FB6F894DEBF0FBEF1
:1002B000CDBFDF91CF911F910F9108953196E53019
:1002C000F10561F48091C10085FDFCCF8091C000F3
:1002D00085FFF8CF80E38093C600E5CFA1E0B0E0D2
:1002E000AC0FBD1FAE0FBF1F4C91C9CF8F929F9215
:1002F000AF92BF92CF92DF92EF92FF921F93CF9374
:10030000DF9300D000D000D01F92CDB7DEB74B01F5
:100310005C0120E03AEC4AE95BE30E94D504205DF1
:100320002983C501B40120E031EE45EF55E00E947C
:10033000D5048AE0C82ED12CE12CF12CCA01B901D8
:10034000A70196010E94D504605D6A83C501B401CE
:1003500020E836E948E950E00E94D504CA01B90115
:10036000A70196010E94D504605D6B83C501B401AD
:1003700020E432E44FE050E00E94D504CA01B90104
:10038000A70196010E94D504605D6C83C501B4018C
:1003900020EA36E841E050E00E94D504CA01B901E4
:1003A000A70196010E94D504605D6D83C501B4016B
:1003B00020E137E240E050E00E94D504CA01B901D3
:1003C000A70196010E94D504605D6E83C501B4014A
:1003D00028EE33E040E050E00E94D504CA01B901A4
:1003E000A70196010E94D504605D6F83C501B40129
:1003F00024E630E040E050E00E94D504CA01B90193
:10040000A70196010E94D504605D6887C501B4010B
:10041000A70196010E94D504162FCA01B901A701B0
:1004200096010E94D504605D6987105D1A871B865E
:10043000FE013196AE01455F5F4FDF019D012E1B2E
:100440003F0B9D91903329F1992389F02F5F3F4F06
:10045000E20FF31F8091C10085FDFCCF8091C000A9
:1004600085FFF8CF9093C60091919111F3CF2A9612
:100470000FB6F894DEBF0FBECDBFDF91CF911F91B5
:10048000FF90EF90DF90CF90BF90AF909F908F90B4
:100490000895A417B50791F68091C10085FDFCCFA2
:1004A0008091C00085FFF8CF80E38093C600DFCF46
:1004B000CF93DF93EC0184E090E00E941A05AC0139
:1004C000BC01209771F1DC0130E020E0FE01EF700B
:1004D000FF27EA5FFD4F6081FC016193CF012F5F31
:1004E0003F4FD295C295CF70CD27DF70CD27BF018A
:1004F000209761F7E901D595C795209791F0FA010A
:10050000E20FF31FC40FD51F9C91829198279C93F3
:100510008081982790832C9192279D93AC17BD07DB
:1005200099F7FB011082E7E1F2E080E39091C100CE
:1005300095FDFCCF9091C00095FFF8CF8093C60049
:1005400081918111F3CFFA018081882371F0319676
:100550009091C10095FDFCCF9091C00095FFF8CF20
:100560008093C60081918111F3CFCA01DF91CF91B1
:100570000C94B605CF92DF92EF92FF920F931F93E8
:10058000CF93DF936B017C0188E090E00E941A0515
:100590008C019C01C114D104E104F104A9F1DC0136
:1005A000F0E0E0E0B701A6014F70552766277727F6
:1005B0004A5F5D4FEA012881EC012993CE01319613
:1005C00024E0F694E794D794C7942A95D1F79E0136
:1005D000C114D104E104F10429F7AF015595479501
:1005E0004115510589F0E00FF11F400F511F9C91FB
:1005F000829198279C938081982790838C9198274B
:100600009D93A417B50799F7F9011082E7E1F2E08D
:1006100080E39091C10095FDFCCF9091C00095FFC3
:10062000F8CF8093C60081918111F3CFE8018881D2
:10063000882379F0F80131969091C10095FDFCCFA7
:100640009091C00095FFF8CF8093C60081918111F1
:10065000F3CFC801DF91CF911F910F91FF90EF90E1
:10066000DF90CF900C94B6058091C10085FDFCCF42
:100670008091C00085FFF8CF8BE18093C600EAE14E
:10068000F2E09BE58091C10085FDFCCF8091C00028
:1006900085FFF8CF9093C60091919111F3CF089503
:1006A0000E943403EEE1F2E099E68091C10085FDFD
:1006B000FCCF8091C00085FFF8CF9093C600919148
:1006C0009111F3CF0895CF93C62F9091C10095FD5E
:1006D000FCCF9091C00095FFF8CF9BE19093C600AE
:1006E0009091C10095FDFCCF9091C00095FFF8CF8F
:1006F0009BE59093C60090E00E94D8008091C100D5
:1007000085FDFCCF8091C00085FFF8CF8BE38093FF
:10071000C6008C2F90E00E94D8008091C10085FD1A
:10072000FCCF8091C00085FFF8CF88E48093C6009D
:10073000CF9108959091C10095FDFCCF9091C0009C
:1007400095FFF8CF9BE19093C6009091C10095FD75
:10075000FCCF9091C00095FFF8CF9BE59093C60029
:1007600090E00E94D8008091C10085FDFCCF80916F
:10077000C00085FFF8CF8DE68093C60008951F92D4
:100780000F920FB60F9211240BB60F922F933F9337
:100790004F935F936F937F938F939F93AF93BF9389
:1007A000EF93FF93E8E2F2E099E68091C10085FDC6
:1007B000FCCF8091C00085FFF8CF9093C600919147
:1007C0009111F3CFFF91EF91BF91AF919F918F91D5
:1007D0007F916F915F914F913F912F910F900BBE41
:1007E0000F900FBE0F901F901895EEE6F0E08081FD
:1007F0008260808384B5826084BD85B5856085BD57
:100800008CE987BD0895FB0137963196CDE5E993D4
:10081000F883DF93CF93DF92CF92BF92AF929F92F4
:100820008F927F926F925F924F923F922F92FF270B
:10083000EDE501901080FB013396DD27CDE5E993CE
:10084000F8830F921F92EC01BB27ADE5CD93DC93AB
:100850002F903F904F905F906F907F908F909F90E0
:10086000AF90BF90CF90DF90CF91DF910895CF935D
:10087000DF9388E090E00E941A05EC0190933F021C
:1008800080933E028FEF9FEF9F838E8389E090E0FD
:100890000E941A059983888389E090E00E941A05D6
:1008A0009B838A83DF91CF9108950F931F93CF93FA
:1008B000DF93EB01E0913E02F0913F0246815781C8
:1008C0004F5F5F4F440F551FE40FF51F00811181EB
:1008D000F8019183808336832583C9010E941A051C
:1008E000F80194838383EE0189E990E0FC01099487
:1008F000DF91CF911F910F910895E0913E02F09109
:100900003F0281E026813781232B09F080E00895A2
:10091000E3E3F2E094E78091C10085FDFCCF809194
:10092000C00085FFF8CF9093C60091919111F3CF4D
:1009300008952AE230E050E040E060E573E089E3AA
:1009400092E00C94550482E08093C0001092C500A0
:1009500080E18093C400E1ECF0E0808188618083D5
:100960000E9434030E9437042AE230E050E040E065
:1009700060E573E089E392E00E94550490E080E036
:10098000089597FB072E16F4009407D077FD09D041
:100990000E94060507FC05D03EF4909581959F4F77
:1009A0000895709561957F4F0895A1E21A2EAA1BB4
:1009B000BB1BFD010DC0AA1FBB1FEE1FFF1FA2170F
:1009C000B307E407F50720F0A21BB30BE40BF50B0C
:1009D000661F771F881F991F1A9469F76095709595
:1009E000809590959B01AC01BD01CF010895A29F18
:1009F000B001B39FC001A39F700D811D1124911DF3
:100A0000B29F700D811D1124911D0895AA1BBB1B5F
:100A100051E107C0AA1FBB1FA617B70710F0A61BFE
:100A2000B70B881F991F5A95A9F780959095BC011F
:100A3000CD0108950F931F93CF93DF9382309105DB
:100A400010F482E090E0E0914202F091430230E045
:100A500020E0B0E0A0E0309799F42115310509F4C9
:100A60004AC0281B390B24303105D8F58A819B8177
:100A70006115710589F1FB0193838283FE0111C029
:100A8000408151810281138148175907E0F04817CE
:100A9000590799F4109761F012960C9312971396D8
:100AA0001C933296CF01DF91CF911F910F91089542
:100AB0000093420210934302F4CF2115310551F007
:100AC0004217530738F0A901DB019A01BD01DF018C
:100AD000F801C1CFEF01F9CF909343028093420216
:100AE000CDCFFE01E20FF31F819391932250310984
:100AF00039832883D7CF2091400230914102232BA4
:100B000041F420910202309103023093410220937C
:100B1000400220910002309101022115310541F47B
:100B20002DB73EB74091040250910502241B350BAE
:100B3000E0914002F0914102E217F307A0F42E1B6E
:100B40003F0B2817390778F0AC014E5F5F4F241731
:100B5000350748F04E0F5F1F50934102409340020B
:100B6000819391939FCFF0E0E0E09CCFCF93DF9310
:100B70000097E9F0FC01329713821282A0914202A1
:100B8000B0914302ED0130E020E01097A1F4208104
:100B90003181820F931F209140023091410228172A
:100BA000390709F061C0F0934102E0934002DF9100
:100BB000CF910895EA01CE17DF07E8F54A815B81FE
:100BC0009E0141155105B1F7E901FB83EA83499183
:100BD0005991C40FD51FEC17FD0761F480819181F5
:100BE0000296840F951FE9019983888382819381FE
:100BF0009B838A83F0E0E0E012968D919C9113979D
:100C00000097B9F52D913C911197CD010296820F75
:100C1000931F20914002309141022817390739F67D
:100C2000309751F51092430210924202B093410264
:100C3000A0934002BCCFD383C28340815181840FF3
:100C4000951FC817D90761F44E5F5F4F888199815E
:100C5000480F591F518340838A819B8193838283EC
:100C60002115310509F0B0CFF0934302E093420221
:100C70009ECFFD01DC01C0CF13821282D7CFF89442
:020C8000FFCFA4
:100C820000004402200030313233343536373839EF
:100C92004142434445463078005B324A0069742041
:100CA200776F726B732100696E74657272757074FE
:0E0CB200210074657374322100746573740040
:00000001FF
