:100000000C9478000C9499000C9499000C9499002D
:100010000C9499000C9499000C9499000C949900FC
:100020000C9499000C9499000C9499000C949900EC
:100030000C9499000C9499000C9499000C949900DC
:100040000C9499000C9499000C9499000C949900CC
:100050000C9499000C945B060C9499000C949900F4
:100060000C9499000C9499000C9499000C949900AC
:100070000C9499000C9499000C9499000C9499009C
:100080000C9499000C9499000C9499000C9499008C
:100090000C9499000C9499000C9499000C9499007C
:1000A0000C9499000C9499000C9499000C9499006C
:1000B0000C9499000C9499000C9499000C9499005C
:1000C0000C9499000C9499000C9499000C9499004C
:1000D0000C9499000C9499000C9499000C9499003C
:1000E0000C9499000C948A030C949B000C940306C6
:1000F00011241FBECFEFD1E2DEBFCDBF00E00CBFA9
:1001000013E0A0E0B2E0EEE2F3E100E00BBF02C0DA
:1001100007900D92AA33B107D9F723E0AAE3B3E021
:1001200001C01D92A034B207E1F70E9401080C94AF
:1001300095090C9400007894C201F101099482E0C1
:100140008093C0001092C50080E18093C400E1EC70
:10015000F0E080818861808308958091C000881FCD
:100160008827881F08958091C00087FF03C0809171
:10017000C60008958FEF08959091C10095FDFCCFC2
:100180009091C00095FFF8CF8093C60081E008955C
:10019000FC012081222371F031969091C10095FDE0
:1001A000FCCF9091C00095FFF8CF2093C60021911D
:1001B0002111F3CF08950F931F93CF93DF9300D0B6
:1001C00000D0CDB7DEB7FC019C01329522952F708F
:1001D00023273F702327A7E4B3E00E944D0896959C
:1001E0008795969587959695879540E3480F49831F
:1001F0009F01369527953695279536952795A5EC39
:10020000B0E20E944D08929582958F7089279F7069
:1002100089270AE010E0B8010E941708805D8A83F0
:100220009F013695279536952795ABE7B4E10E9457
:100230004D0896958795B8010E941708805D8B83BD
:100240009F01ADECBCEC0E944D089C0136952795B2
:100250003695279536952795C901B8010E9417084C
:10026000805D8C83C901880F991F880F991F820FA9
:10027000931F880F991FE81BF90BE05DED831E8229
:10028000F0E0E0E04033E9F0442381F0EC0FFD1FA3
:1002900032969091C10095FDFCCF9091C00095FFE2
:1002A000F8CF4093C60041914111F3CF26960FB687
:1002B000F894DEBF0FBECDBFDF91CF911F910F919C
:1002C00008953196E530F10561F48091C10085FD16
:1002D000FCCF8091C00085FFF8CF80E38093C600FB
:1002E000E5CFA1E0B0E0AC0FBD1FAE0FBF1F4C913A
:1002F000C9CF8F929F92AF92BF92CF92DF92EF922F
:10030000FF921F93CF93DF9300D000D000D01F92B5
:10031000CDB7DEB74B015C0120E03AEC4AE95BE384
:100320000E942B08205D2983C501B40120E031EE35
:1003300045EF55E00E942B088AE0C82ED12CE12C15
:10034000F12CCA01B901A70196010E942B08605D3A
:100350006A83C501B40120E836E948E950E00E940B
:100360002B08CA01B901A70196010E942B08605D04
:100370006B83C501B40120E432E44FE050E00E94F9
:100380002B08CA01B901A70196010E942B08605DE4
:100390006C83C501B40120EA36E841E050E00E94D8
:1003A0002B08CA01B901A70196010E942B08605DC4
:1003B0006D83C501B40120E137E240E050E00E94C6
:1003C0002B08CA01B901A70196010E942B08605DA4
:1003D0006E83C501B40128EE33E040E050E00E9496
:1003E0002B08CA01B901A70196010E942B08605D84
:1003F0006F83C501B40124E630E040E050E00E9484
:100400002B08CA01B901A70196010E942B08605D63
:100410006887C501B401A70196010E942B08162F19
:10042000CA01B901A70196010E942B08605D698786
:10043000105D1A871B86FE013196AE01455F5F4F46
:10044000DF019D012E1B3F0B9D91903329F19923D4
:1004500089F02F5F3F4FE20FF31F8091C10085FDB0
:10046000FCCF8091C00085FFF8CF9093C60091919A
:100470009111F3CF2A960FB6F894DEBF0FBECDBF11
:10048000DF91CF911F91FF90EF90DF90CF90BF90C1
:10049000AF909F908F900895A417B50791F6809123
:1004A000C10085FDFCCF8091C00085FFF8CF80E3BF
:1004B0008093C600DFCFCF93DF93EC0184E090E020
:1004C0000E947008AC01BC01209771F1DC0130E0A2
:1004D00020E0FE01EF70FF27EA5FFD4F6081FC0125
:1004E0006193CF012F5F3F4FD295C295CF70CD273B
:1004F000DF70CD27BF01209761F7E901D595C7953A
:10050000209791F0FA01E20FF31FC40FD51F9C91C1
:10051000829198279C938081982790832C91922791
:100520009D93AC17BD0799F7FB011082E7E1F2E05C
:1005300080E39091C10095FDFCCF9091C00095FFA4
:10054000F8CF8093C60081918111F3CFFA018081A9
:10055000882371F031969091C10095FDFCCF909168
:10056000C00095FFF8CF8093C60081918111F3CF31
:10057000CA01DF91CF910C940C09CF92DF92EF92D8
:10058000FF920F931F93CF93DF936B017C0188E061
:1005900090E00E9470088C019C01C114D104E10418
:1005A000F104A9F1DC01F0E0E0E0B701A6014F7031
:1005B0005527662777274A5F5D4FEA012881EC01BE
:1005C0002993CE01319624E0F694E794D794C7940A
:1005D0002A95D1F79E01C114D104E104F10429F751
:1005E000AF01559547954115510589F0E00FF11F71
:1005F000400F511F9C91829198279C93808198274E
:1006000090838C9198279D93A417B50799F7F901CA
:100610001082E7E1F2E080E39091C10095FDFCCF0C
:100620009091C00095FFF8CF8093C6008191811111
:10063000F3CFE8018881882379F0F8013196909111
:10064000C10095FDFCCF9091C00095FFF8CF80933D
:10065000C60081918111F3CFC801DF91CF911F9125
:100660000F91FF90EF90DF90CF900C940C09809148
:10067000C10085FDFCCF8091C00085FFF8CF8BE1E4
:100680008093C600EAE1F2E09BE58091C10085FD20
:10069000FCCF8091C00085FFF8CF9093C600919168
:1006A0009111F3CF0895CF93C62F9091C10095FD7E
:1006B000FCCF9091C00095FFF8CF9BE19093C600CE
:1006C0009091C10095FDFCCF9091C00095FFF8CFAF
:1006D0009BE59093C60090E00E94DB008091C100F2
:1006E00085FDFCCF8091C00085FFF8CF8BE3809320
:1006F000C6008C2F90E00E94DB008091C10085FD38
:10070000FCCF8091C00085FFF8CF88E48093C600BD
:10071000CF910895CF93DF93CDB7DEB72E970FB665
:10072000F894DEBF0FBECDBF9A838983DC01189693
:100730002D913C91199712964D905C9013971496B9
:100740002D903C90F2018781908543815481BC01BA
:10075000641B750B7C836B83680F791F7A876987AD
:10076000D10117968D919C91189713964D915C919C
:10077000FC01E41BF50BFE83ED83E80FF91FFC87FA
:10078000EB873695279536952795ABE7B4E10E9420
:100790004D089695879598878F8361E081E00E9448
:1007A0005303E5E3F2E093E58091C10085FDFCCFC2
:1007B0008091C00085FFF8CF9093C6009191911170
:1007C000F3CF8F8198850E94DB0061E082E00E9478
:1007D0005303E6E4F2E09EE48091C10085FDFCCF86
:1007E0008091C00085FFF8CF9093C6009191911140
:1007F000F3CFA981BA8116968D919C910E94DB005E
:1008000061E084E00E94530348E6C42E42E0D42E07
:10081000F60194E58091C10085FDFCCF8091C00078
:1008200085FFF8CF9093C60091919111F3CFF2011B
:10083000828190E00E94DB0061E085E00E9453032A
:1008400034E7E32E32E0F32EF70194E58091C10006
:1008500085FDFCCF8091C00085FFF8CF9093C60046
:1008600091919111F3CFD201ED91FC919081992357
:1008700071F08091C10085FDFCCF8091C00085FFA3
:10088000F8CF9093C600319690819111F2CF61E03C
:1008900086E00E94530302E812E0F80193E580919C
:1008A000C10085FDFCCF8091C00085FFF8CF9093FB
:1008B000C60091919111F3CFF201818592850E943A
:1008C0005B0261E087E00E9453032AE9A22E22E046
:1008D000B22EF50192E48091C10085FDFCCF80919C
:1008E000C00085FFF8CF9093C60091919111F3CF8E
:1008F0008B819C810E94DB0061E088E00E945303B1
:1009000094EB892E92E0992EF40193E58091C10039
:1009100085FDFCCF8091C00085FFF8CF9093C60085
:1009200091919111F3CFD20115968D919C910E94D6
:10093000DB0061E089E00E945303EEE1F2E093E422
:100940008091C10085FDFCCF8091C00085FFF8CF6C
:100950009093C60091919111F3CFF201838194811C
:100960000E945B0261E08AE00E94530381EC682EE2
:1009700082E0782EF30193E58091C10085FDFCCFE4
:100980008091C00085FFF8CF9093C600919191119E
:10099000F3CFD20117968D919C910E945B0261E08A
:1009A0008BE00E945303E1EDF2E0FE87ED8795E4D2
:1009B0008091C10085FDFCCF8091C00085FFF8CFFC
:1009C0009093C60091919111F3CF89859A850E94E9
:1009D0005B0261E08DE00E94530394E58091C100C9
:1009E00085FDFCCF8091C00085FFF8CF9093C600B5
:1009F000D6019D916D019111F1CFF101828190E0BD
:100A00000E94DB0061E08EE00E94530394E5809138
:100A1000C10085FDFCCF8091C00085FFF8CF909389
:100A2000C600D7019D917D019111F1CFD101ED91CA
:100A3000FC919081992371F08091C10085FDFCCFDC
:100A40008091C00085FFF8CF9093C60031969081C9
:100A50009111F2CF61E08FE00E94530393E5809102
:100A6000C10085FDFCCF8091C00085FFF8CF909339
:100A7000C600F80191918F019111F1CFD101199622
:100A80008D919C910E945B0261E080E10E94530382
:100A900092E48091C10085FDFCCF8091C00085FF6C
:100AA000F8CF9093C600F50191915F019111F1CFBC
:100AB0008D819E810E94DB0061E081E10E945303F1
:100AC00093E58091C10085FDFCCF8091C00085FF3A
:100AD000F8CF9093C600D4019D914D019111F1CFB3
:100AE000F101858196810E94DB0061E082E10E9434
:100AF00053038DE192E00E94DB00D10113968D91AA
:100B00009C910E945B0261E083E10E94530393E5A4
:100B10008091C10085FDFCCF8091C00085FFF8CF9A
:100B20009093C600F30191913F019111F1CFD10152
:100B300017968D919C910E945B0261E084E10E9476
:100B4000530395E48091C10085FDFCCF8091C000E6
:100B500085FFF8CF9093C600ED85FE859191FE87C5
:100B6000ED879111EFCF8B859C850E945B0215CE9E
:100B70009091C10095FDFCCF9091C00095FFF8CFFA
:100B80009BE19093C6009091C10095FDFCCF9091A0
:100B9000C00095FFF8CF9BE59093C60090E00E94BF
:100BA000DB008091C10085FDFCCF8091C00085FFF6
:100BB000F8CF8DE68093C600089584E290E0FC01B2
:100BC000208184E290E02068FC01208385E290E0AF
:100BD000FC01208185E290E02068FC0120830895DB
:100BE00084E290E0FC01208184E290E02068FC0136
:100BF000208385E290E0FC01208185E290E02F7463
:100C0000FC01208308950E94DD052FEF89E698E11D
:100C1000215080409040E1F700C000000E94F005A4
:100C20002FEF89E698E1215080409040E1F700C025
:100C30000000E9CFEEE6F0E080818260808384B539
:100C4000826084BD85B5856085BD8CE987BD0895CA
:100C50002F923F924F925F926F927F928F929F92CC
:100C6000AF92BF92CF92DF92EF92FF920F931F93BA
:100C7000CF93DF93FF27EDE521903080FB01219298
:100C80003082FC0121903080FF27EDE521923082F7
:100C9000DF91CF911F910F91FF90EF90DF90CF9058
:100CA000BF90AF909F908F907F906F905F904F908C
:100CB0003F902F9008951F920F920FB60F9211241C
:100CC0000BB60F920F931F932F933F934F935F9306
:100CD0006F937F938F939F93AF93BF93CF93DF9344
:100CE000EF93FF93E0913A03F0913B038085918568
:100CF000019691878087A285B385828593858D7FB4
:100D0000892B09F44BC082E090E0AA0FBB1FAE0F05
:100D1000BF1FCD91DC91DC01AA0FBB1FAE0FBF1F1F
:100D20000D911C919387828761E085E00E945303B7
:100D3000E3EEF2E099E68091C10085FDFCCF809161
:100D4000C00085FFF8CF9093C60091919111F3CF29
:100D5000E0913A03F0913B03808591850E94DB008E
:100D6000BE016D5F7F4FC80103960E942806FF9168
:100D7000EF91DF91CF91BF91AF919F918F917F9133
:100D80006F915F914F913F912F911F910F910F9014
:100D90000BBE0F900FBE0F901F90189581E090E052
:100DA000B4CFCF93DF938CE090E00E947008EC0109
:100DB00090933B0380933A0381E090E09F838E837E
:100DC0001B861A86198618868BE090E00E947008B0
:100DD000998388838BE090E00E9470089B838A83CC
:100DE0008BE090E00E9470089D838C8361E081E03D
:100DF0000E945303EEEEF2E09FE68091C10085FD74
:100E0000FCCF8091C00085FFF8CF9093C6009191F0
:100E10009111F3CFDF91CF910895AF92BF92CF920E
:100E2000DF92EF92FF920F931F93CF93DF93D62E13
:100E3000C72EB42EA52EE901E0903A03F0903B03B3
:100E4000D7011A962D913C912D7F232BE1F122E0C1
:100E5000E2E0F0E0EE0FFF1FEE0DFF1D00811181BB
:100E6000F801228391838083D186C286D683C5838D
:100E7000CE018A960E947008D80118969C938E9392
:100E80001797FE017496E80FF91F1496FC93EE93E2
:100E90001397138A8BE990E0948B858BC28AD18A51
:100EA000A08AB786F701868197810196978386830A
:100EB000DF91CF911F910F91FF90EF90DF90CF9036
:100EC000BF90AF90089521E0E1E0F0E0C3CFE09162
:100ED0003A03F0913B03828593858D7F892B19F02E
:100EE00082E090E0089581E090E0089561E089E17A
:100EF0000E945303EDEFF2E094E78091C10085FD7D
:100F0000FCCF8091C00085FFF8CF9093C6009191EF
:100F10009111F3CF089526E531E050E040E063E021
:100F200076E089E093E00E940D0740913A035091EA
:100F30003B0326E531E06AE873E08FE093E00E942E
:100F40000D0761E083E00E945303E6E1F3E093E6DE
:100F50008091C10085FDFCCF8091C00085FFF8CF56
:100F60009093C60091919111F3CF0E943703809125
:100F70006E00826080936E0084B5826084BD85B50A
:100F8000856085BD8CE987BD7894E0913A03F09146
:100F90003B0382E090E093878287608171816D5F7F
:100FA0007F4F8481958103960E9428060895CF93F0
:100FB000DF9361E082E00E945303E0E3F3E09FE609
:100FC0008091C10085FDFCCF8091C00085FFF8CFE6
:100FD0009093C60091919111F3CFE0913A03F09173
:100FE0003B03C081D18186E591E00E94700898871B
:100FF0008F8386599E4F9C838B83DF91CF910C9476
:101000008B0782E08093C0001092C50080E180933E
:10101000C400E1ECF0E08081886180830E94D10609
:101020000E9437030E94D70790E080E0089597FB65
:10103000072E16F4009407D077FD09D00E945C08B3
:1010400007FC05D03EF4909581959F4F08957095CB
:1010500061957F4F0895A1E21A2EAA1BBB1BFD01CB
:101060000DC0AA1FBB1FEE1FFF1FA217B307E40787
:10107000F50720F0A21BB30BE40BF50B661F771FDF
:10108000881F991F1A9469F76095709580959095BF
:101090009B01AC01BD01CF010895A29FB001B39F98
:1010A000C001A39F700D811D1124911DB29F700D71
:1010B000811D1124911D0895AA1BBB1B51E107C07E
:1010C000AA1FBB1FA617B70710F0A61BB70B881FD8
:1010D000991F5A95A9F780959095BC01CD01089567
:1010E0000F931F93CF93DF938230910510F482E02A
:1010F00090E0E0913E03F0913F0330E020E0B0E06B
:10110000A0E0309799F42115310509F44AC0281B55
:10111000390B24303105D8F58A819B816115710521
:1011200089F1FB0193838283FE0111C040815181CB
:101130000281138148175907E0F04817590799F4BD
:10114000109761F012960C93129713961C93329697
:10115000CF01DF91CF911F910F91089500933E032E
:1011600010933F03F4CF2115310551F04217530777
:1011700038F0A901DB019A01BD01DF01F801C1CFFF
:10118000EF01F9CF90933F0380933E03CDCFFE0153
:10119000E20FF31F81939193225031093983288301
:1011A000D7CF20913C0330913D03232B41F4209174
:1011B00002023091030230933D0320933C032091BF
:1011C0000002309101022115310541F42DB73EB7DF
:1011D0004091040250910502241B350BE0913C0321
:1011E000F0913D03E217F307A0F42E1B3F0B2817E5
:1011F000390778F0AC014E5F5F4F2417350748F090
:101200004E0F5F1F50933D0340933C038193919396
:101210009FCFF0E0E0E09CCFCF93DF930097E9F021
:10122000FC01329713821282A0913E03B0913F03DA
:10123000ED0130E020E01097A1F420813181820F90
:10124000931F20913C0330913D032817390709F083
:1012500061C0F0933D03E0933C03DF91CF9108958B
:10126000EA01CE17DF07E8F54A815B819E0141154F
:101270005105B1F7E901FB83EA8349915991C40F04
:10128000D51FEC17FD0761F4808191810296840FD0
:10129000951FE90199838883828193819B838A8347
:1012A000F0E0E0E012968D919C9113970097B9F5CC
:1012B0002D913C911197CD010296820F931F2091A1
:1012C0003C0330913D032817390739F6309751F523
:1012D00010923F0310923E03B0933D03A0933C0352
:1012E000BCCFD383C28340815181840F951FC8171F
:1012F000D90761F44E5F5F4F88819981480F591F6C
:10130000518340838A819B81938382832115310598
:1013100009F0B0CFF0933F03E0933E039ECFFD0171
:0E132000DC01C0CF13821282D7CFF894FFCF2A
:10132E00000040032000303132333435363738393F
:10133E004142434445463078005B324A0043757261
:10134E0072656E7420746F70206F662073746163A3
:10135E006B3A200053797374656D2074696D652046
:10136E0069733A20004E756D626572206F66207447
:10137E0068726561647320696E2074686520737984
:10138E007374656D3A2000546872656164206964F7
:10139E003A2000546872656164206E616D653A2072
:1013AE00005374617274696E67205043206F66201B
:1013BE007468726561643A200042797465732075B1
:1013CE007365642062792074686520737461636B41
:1013DE003A2000537461636B2073697A653A20007A
:1013EE00537461636B20626173652069733A2000E8
:1013FE00456E64206F6620737461636B2061743A6E
:10140E002000696E7465727275707420006F73209F
:10141E00696E697469616C697A6564007465737468
:10142E00207072696E74732100626C696E6B00734A
:10143E00746174730063616C6C696E6720636F6EA8
:10144E00746578745F7377697463682E2E2E006FDF
:0A145E00732073746172740A0000B9
:00000001FF
