:100000000C9478000C9499000C9499000C9499002D
:100010000C9499000C9499000C9499000C949900FC
:100020000C9499000C9499000C9499000C949900EC
:100030000C9499000C9499000C9499000C949900DC
:100040000C9499000C9499000C9499000C949900CC
:100050000C9499000C9458070C9499000C949900F6
:100060000C9499000C9499000C9499000C949900AC
:100070000C9499000C9499000C9499000C9499009C
:100080000C9499000C9499000C9499000C9499008C
:100090000C9499000C9499000C9499000C9499007C
:1000A0000C9499000C9499000C9499000C9499006C
:1000B0000C9499000C9499000C9499000C9499005C
:1000C0000C9499000C9499000C9499000C9499004C
:1000D0000C9499000C9499000C9499000C9499003C
:1000E0000C9499000C949B000C9489030C94D204FA
:1000F00011241FBECFEFD1E2DEBFCDBF00E00CBFA9
:1001000013E0A0E0B2E0ECE9F4E100E00BBF02C0D4
:1001100007900D92A037B107D9F723E0A0E7B3E02D
:1001200001C01D92A637B207E1F70E94BA080C94ED
:100130004C0A0C9400007894FE01099482E08093AC
:10014000C0001092C50080E18093C400E1ECF0E0B3
:1001500080818861808308958091C000881F8827EE
:10016000881F08958091C00087FF03C08091C6005A
:1001700008958FEF08959091C10095FDFCCF909167
:10018000C00095FFF8CF8093C60081E00895FC0180
:100190002081222371F031969091C10095FDFCCF12
:1001A0009091C00095FFF8CF2093C60021912111B6
:1001B000F3CF08950F931F93CF93DF9300D000D018
:1001C000CDB7DEB7FC019C01329522952F70232715
:1001D0003F702327A7E4B3E00E9404099695879512
:1001E000969587959695879540E3480F49839F019B
:1001F000369527953695279536952795A5ECB0E247
:100200000E940409929582958F7089279F70892793
:100210000AE010E0B8010E94CE08805D8A839F0149
:100220003695279536952795ABE7B4E10E940409EA
:1002300096958795B8010E94CE08805D8B839F01BB
:10024000ADECBCEC0E9404099C01369527953695CF
:10025000279536952795C901B8010E94CE08805D83
:100260008C83C901880F991F880F991F820F931FD4
:10027000880F991FE81BF90BE05DED831E82F0E00B
:10028000E0E04033E9F0442381F0EC0FFD1F3296AB
:100290009091C10095FDFCCF9091C00095FFF8CFE3
:1002A0004093C60041914111F3CF26960FB6F894C2
:1002B000DEBF0FBECDBFDF91CF911F910F9108958B
:1002C0003196E530F10561F48091C10085FDFCCFE8
:1002D0008091C00085FFF8CF80E38093C600E5CF12
:1002E000A1E0B0E0AC0FBD1FAE0FBF1F4C91C9CF56
:1002F0008F929F92AF92BF92CF92DF92EF92FF9236
:100300001F93CF93DF9300D000D000D01F92CDB7C2
:10031000DEB74B015C0120E03AEC4AE95BE30E9466
:10032000E208205D2983C501B40120E031EE45EFEC
:1003300055E00E94E2088AE0C82ED12CE12CF12C75
:10034000CA01B901A70196010E94E208605D6A83B3
:10035000C501B40120E836E948E950E00E94E2080E
:10036000CA01B901A70196010E94E208605D6B8392
:10037000C501B40120E432E44FE050E00E94E208FD
:10038000CA01B901A70196010E94E208605D6C8371
:10039000C501B40120EA36E841E050E00E94E208DD
:1003A000CA01B901A70196010E94E208605D6D8350
:1003B000C501B40120E137E240E050E00E94E208CC
:1003C000CA01B901A70196010E94E208605D6E832F
:1003D000C501B40128EE33E040E050E00E94E2089D
:1003E000CA01B901A70196010E94E208605D6F830E
:1003F000C501B40124E630E040E050E00E94E2088C
:10040000CA01B901A70196010E94E208605D6887F0
:10041000C501B401A70196010E94E208162FCA0186
:10042000B901A70196010E94E208605D6987105D2D
:100430001A871B86FE013196AE01455F5F4FDF01D3
:100440009D012E1B3F0B9D91903329F1992389F03B
:100450002F5F3F4FE20FF31F8091C10085FDFCCF5E
:100460008091C00085FFF8CF9093C60091919111C3
:10047000F3CF2A960FB6F894DEBF0FBECDBFDF9143
:10048000CF911F91FF90EF90DF90CF90BF90AF90F2
:100490009F908F900895A417B50791F68091C100A1
:1004A00085FDFCCF8091C00085FFF8CF80E380936D
:1004B000C600DFCFCF93DF93EC0184E090E00E9491
:1004C0002709AC01BC01209771F1DC0130E020E08C
:1004D000FE01EF70FF27EA5FFD4F6081FC01619331
:1004E000CF012F5F3F4FD295C295CF70CD27DF70E0
:1004F000CD27BF01209761F7E901D595C7952097D2
:1005000091F0FA01E20FF31FC40FD51F9C91829165
:1005100098279C938081982790832C9192279D9374
:10052000AC17BD0799F7FB011082E7E1F2E080E329
:100530009091C10095FDFCCF9091C00095FFF8CF40
:100540008093C60081918111F3CFFA0180818823C5
:1005500071F031969091C10095FDFCCF9091C00053
:1005600095FFF8CF8093C60081918111F3CFCA0126
:10057000DF91CF910C94C309CF92DF92EF92FF925B
:100580000F931F93CF93DF936B017C0188E090E082
:100590000E9427098C019C01C114D104E104F104DB
:1005A000A9F1DC01F0E0E0E0B701A6014F705527AA
:1005B000662777274A5F5D4FEA012881EC0129937E
:1005C000CE01319624E0F694E794D794C7942A9507
:1005D000D1F79E01C114D104E104F10429F7AF0160
:1005E000559547954115510589F0E00FF11F400FD2
:1005F000511F9C91829198279C938081982790838A
:100600008C9198279D93A417B50799F7F90110824B
:10061000E7E1F2E080E39091C10095FDFCCF90917D
:10062000C00095FFF8CF8093C60081918111F3CF70
:10063000E8018881882379F0F80131969091C10012
:1006400095FDFCCF9091C00095FFF8CF8093C60038
:1006500081918111F3CFC801DF91CF911F910F914B
:10066000FF90EF90DF90CF900C94C3098091C10070
:1006700085FDFCCF8091C00085FFF8CF8BE1809392
:10068000C600EAE1F2E09BE58091C10085FDFCCF68
:100690008091C00085FFF8CF9093C6009191911191
:1006A000F3CF0895CF93C62F9091C10095FDFCCF55
:1006B0009091C00095FFF8CF9BE19093C600909178
:1006C000C10095FDFCCF9091C00095FFF8CF9BE550
:1006D0009093C60090E00E94DA008091C10085FDF1
:1006E000FCCF8091C00085FFF8CF8BE38093C600DC
:1006F0008C2F90E00E94DA008091C10085FDFCCF34
:100700008091C00085FFF8CF88E48093C600CF9128
:100710000895AF92BF92CF92DF92EF92FF920F9324
:100720001F93CF93DF93EC01E884F984AA80BB8008
:100730000C811D8161E081E00E945203EEE1F2E054
:1007400093E58091C10085FDFCCF8091C00085FFBD
:10075000F8CF9093C60091919111F3CF9701369500
:10076000279536952795ABE7B4E10E940409969545
:1007700087950E94DA0061E082E00E945203ECE279
:10078000F2E09EE48091C10085FDFCCF8091C00025
:1007900085FFF8CF9093C60091919111F3CF8E8190
:1007A0009F810E94DA0061E084E00E94520390E49D
:1007B000C92E92E0D92EF6019EE78091C10085FDF9
:1007C000FCCF8091C00085FFF8CF9093C600919137
:1007D0009111F3CFD50112968C9190E00E94DA002E
:1007E0008CE4E82E82E0F82EF70190E28091C100BF
:1007F00085FDFCCF8091C00085FFF8CF9093C600A7
:1008000091919111F3CF61E085E00E945203C1E51F
:10081000D2E0FE0194E58091C10085FDFCCF80917E
:10082000C00085FFF8CF9093C60091919111F3CF4E
:10083000D501ED91FC919081992371F08091C100D7
:1008400085FDFCCF8091C00085FFF8CF9093C60056
:10085000319690819111F2CF61E087E00E945203BE
:100860009EE78091C10085FDFCCF8091C00085FF8F
:10087000F8CF9093C600F60191916F019111F1CFDD
:10088000D80112968C9190E00E94DA0090E280915B
:10089000C10085FDFCCF8091C00085FFF8CF90930B
:1008A000C600F70191917F019111F1CF61E088E0DD
:1008B0000E94520394E58091C10085FDFCCF809198
:1008C000C00085FFF8CF9093C60099919111F3CFA6
:1008D000D801ED91FC919081992371F08091C10034
:1008E00085FDFCCF8091C00085FFF8CF9093C600B6
:1008F000319690819111F2CFDF91CF911F910F919D
:10090000FF90EF90DF90CF90BF90AF9008959091BF
:10091000C10095FDFCCF9091C00095FFF8CF9BE101
:100920009093C6009091C10095FDFCCF9091C000BE
:1009300095FFF8CF9BE59093C60090E00E94DA0007
:100940008091C10085FDFCCF8091C00085FFF8CF6C
:100950008DE68093C600089584E290E0FC0120813A
:1009600084E290E02068FC01208385E290E0FC01B5
:10097000208185E290E02068FC012083089584E2D4
:1009800090E0FC01208184E290E02068FC0120835B
:1009900085E290E0FC01208185E290E02F74FC016B
:1009A000208308950E94AC042FEF89E698E121503E
:1009B00080409040E1F700C000000E94BF042FEF8C
:1009C00089E698E1215080409040E1F700C00000A6
:1009D000E9CFCF93DF93CDB7DEB72E970FB6F8945C
:1009E000DEBF0FBECDBF9A838983DC0118962D919F
:1009F0003C91199712964D905C90139714962D90F8
:100A00003C90F2010380F481E02DFC83EB83D20162
:100A100017968D919C91AC014E1B5F0B5A874987AD
:100A2000D10113960D90BC91A02DBE83AD83F10131
:100A300087819085AC014A1B5B0B5C874B873695A1
:100A4000279536952795ABE7B4E10E940409969562
:100A5000879598878F8361E081E00E945203E6E7E3
:100A6000F2E093E58091C10085FDFCCF8091C0004C
:100A700085FFF8CF9093C60091919111F3CF8F81AC
:100A800098850E94DA0061E082E00E945203E7E864
:100A9000F2E09EE48091C10085FDFCCF8091C00012
:100AA00085FFF8CF9093C60091919111F3CFA98162
:100AB000BA8116968D919C910E94DA0061E084E0E3
:100AC0000E94520349EAC42E42E0D42EF60194E576
:100AD0008091C10085FDFCCF8091C00085FFF8CFDB
:100AE0009093C60091919111F3CFF201828190E031
:100AF0000E94DA0061E085E00E94520335EBE32EAC
:100B000032E0F32EF70194E58091C10085FDFCCF22
:100B10008091C00085FFF8CF9093C600919191110C
:100B2000F3CFD201ED91FC919081992371F08091E6
:100B3000C10085FDFCCF8091C00085FFF8CF909368
:100B4000C600319690819111F2CF61E086E00E945B
:100B5000520303EC12E0F80193E58091C10085FD9A
:100B6000FCCF8091C00085FFF8CF9093C600919193
:100B70009111F3CFF201818592850E945A0261E0C2
:100B800087E00E9452032BEDA22E22E0B22EF50147
:100B900092E48091C10085FDFCCF8091C00085FF6B
:100BA000F8CF9093C60091919111F3CF89859A85E2
:100BB0000E94DA0061E088E00E94520395EF892EDE
:100BC00092E0992EF40193E58091C10085FDFCCF60
:100BD0008091C00085FFF8CF9093C600919191114C
:100BE000F3CFD20115968D919C910E94DA0061E0BD
:100BF00089E00E945203EFE5F2E093E48091C100A6
:100C000085FDFCCF8091C00085FFF8CF9093C60092
:100C100091919111F3CFF201838194810E945A0244
:100C200061E08AE00E94520382E0682E83E0782E21
:100C3000F30193E58091C10085FDFCCF8091C00058
:100C400085FFF8CF9093C60091919111F3CFD20117
:100C500017968D919C910E945A0261E08BE00E9450
:100C60005203E2E1F3E0FE87ED8795E48091C10055
:100C700085FDFCCF8091C00085FFF8CF9093C60022
:100C800091919111F3CF8B819C810E945A0261E076
:100C90008DE00E94520394E58091C10085FDFCCF58
:100CA0008091C00085FFF8CF9093C600D6019D913A
:100CB0006D019111F1CFF101828190E00E94DA0083
:100CC00061E08EE00E94520394E58091C10085FDB1
:100CD000FCCF8091C00085FFF8CF9093C600D7016C
:100CE0009D917D019111F1CFD101ED91FC91908108
:100CF000992371F08091C10085FDFCCF8091C000E7
:100D000085FFF8CF9093C600319690819111F2CF74
:100D100061E08FE00E94520393E58091C10085FD60
:100D2000FCCF8091C00085FFF8CF9093C600F801FA
:100D300091918F019111F1CFD10119968D919C91D3
:100D40000E945A0261E080E10E94520392E4809185
:100D5000C10085FDFCCF8091C00085FFF8CF909346
:100D6000C600F50191915F019111F1CF8B859C85B2
:100D70000E94DA0061E081E10E94520393E58091D4
:100D8000C10085FDFCCF8091C00085FFF8CF909316
:100D9000C600D4019D914D019111F1CFF1018581E2
:100DA00096810E94DA0061E082E10E9452038EE5A2
:100DB00092E00E94DA00D10113968D919C910E94DD
:100DC0005A0261E083E10E94520393E58091C100E1
:100DD00085FDFCCF8091C00085FFF8CF9093C600C1
:100DE000F30191913F019111F1CFD10117968D91AE
:100DF0009C910E945A0261E084E10E94520395E4B2
:100E00008091C10085FDFCCF8091C00085FFF8CFA7
:100E10009093C600ED85FE859191FE87ED87911137
:100E2000EFCF8D819E810E945A0215CEEEE6F0E052
:100E300080818260808384B5826084BD85B5856051
:100E400085BD8CE987BD08952F923F924F925F92A6
:100E50006F927F928F929F92AF92BF92CF92DF92CA
:100E6000DF92EF92FF920F931F93CF93DF93FF27B1
:100E7000EDE5A191B081FB01A193B083FC01C1918B
:100E8000D081BB27ADE5CD93DC93DF91CF911F914E
:100E90000F91FF90EF90DF90CF90BF90AF909F9019
:100EA0008F907F906F905F904F903F902F9008951C
:100EB0001F920F920FB60F9211240BB60F922F9321
:100EC0003F934F935F936F937F938F939F93AF93D2
:100ED000BF93EF93FF93E0917003F09171038085CE
:100EE000918501969187808782859385009751F13E
:100EF00022E030E08230910529F1880F991FDF014F
:100F0000A80FB91F6D917C916D5F7F4F220F331F2A
:100F1000E20FF31F8081918103960E942407FF91C5
:100F2000EF91BF91AF919F918F917F916F915F9161
:100F30004F913F912F910F900BBE0F900FBE0F90CE
:100F40001F90189521E030E0D8CFCF93DF938CE04D
:100F500090E00E942709EC01909371038093700345
:100F600081E090E09F838E831B861A868BE090E061
:100F70000E942709998388838BE090E00E942709CB
:100F80009B838A83DF91CF910895CF92DF92EF9276
:100F9000FF920F931F93CF93DF93D62EC72E8A0114
:100FA0007901E0917003F091710326813781A901E5
:100FB0004F5F5F4F57834683220F331FE20FF31FAC
:100FC000C081D18199838883FE82ED82C7010E940E
:100FD000270998878F83FC01EE0DFF1DFC83EB83AF
:100FE000D986CA86E45EF140C182D282D8018C9152
:100FF0008383138A8BE990E0948B858BFC83EB834E
:10100000E4E2F3E094E78091C10085FDFCCF80919C
:10101000C00085FFF8CF9093C60091919111F3CF56
:10102000DF91CF911F910F91FF90EF90DF90CF90C4
:101030000895E0917003F0917103828593858D7F0F
:10104000892B19F082E090E0089581E090E0089506
:1010500061E089E10E945203E3E3F3E094E78091C9
:10106000C10085FDFCCF8091C00085FFF8CF909333
:10107000C60091919111F3CF08952EE830E040E73A
:1010800053E069E873E08FE393E00E94C5072EE820
:1010900030E050E040E062ED74E085E493E00E94CF
:1010A000C50761E082E00E945203ECE4F3E093E6BE
:1010B0008091C10085FDFCCF8091C00085FFF8CFF5
:1010C0009093C60091919111F3CF0E943603E09165
:1010D0007003F09171031186108680916E0082601A
:1010E00080936E0084B5826084BD85B5856085BDC2
:1010F0008CE987BD7894E0917003F091710364816D
:1011000075816D5F7F4F8081918103960E942407D6
:101110000895CF93DF930E94360361E081E00E943F
:101120005203E6E6F3E09FE68091C10085FDFCCF27
:101130008091C00085FFF8CF9093C60091919111E6
:10114000F3CF8BE090E00E942709EC01E09170035F
:10115000F0917103918380838EE890E00E942709CB
:1011600098878F8382579F4F9C838B83DF91CF918A
:101170000C943D0882E08093C0001092C50080E18D
:101180008093C400E1ECF0E08081886180830E945C
:10119000A5070E94890890E080E0089597FB072E3C
:1011A00016F4009407D077FD09D00E94130907FCBC
:1011B00005D03EF4909581959F4F08957095619567
:1011C0007F4F0895A1E21A2EAA1BBB1BFD010DC083
:1011D000AA1FBB1FEE1FFF1FA217B307E407F507E7
:1011E00020F0A21BB30BE40BF50B661F771F881FC3
:1011F000991F1A9469F760957095809590959B0159
:10120000AC01BD01CF010895A29FB001B39FC00101
:10121000A39F700D811D1124911DB29F700D811D22
:101220001124911D0895AA1BBB1B51E107C0AA1FE1
:10123000BB1FA617B70710F0A61BB70B881F991F77
:101240005A95A9F780959095BC01CD0108950F930B
:101250001F93CF93DF938230910510F482E090E0EA
:10126000E0917403F091750330E020E0B0E0A0E07D
:10127000309799F42115310509F44AC0281B390B20
:1012800024303105D8F58A819B816115710589F17A
:10129000FB0193838283FE0111C040815181028151
:1012A000138148175907E0F04817590799F4109728
:1012B00061F012960C93129713961C933296CF01FD
:1012C000DF91CF911F910F910895009374031093B4
:1012D0007503F4CF2115310551F04217530738F04B
:1012E000A901DB019A01BD01DF01F801C1CFEF01C6
:1012F000F9CF9093750380937403CDCFFE01E20F75
:10130000F31F819391932250310939832883D7CFDA
:101310002091720330917303232B41F42091020238
:1013200030910302309373032093720320910002E3
:10133000309101022115310541F42DB73EB740919E
:10134000040250910502241B350BE0917203F091C9
:101350007303E217F307A0F42E1B3F0B281739077E
:1013600078F0AC014E5F5F4F2417350748F04E0F01
:101370005F1F5093730340937203819391939FCFA8
:10138000F0E0E0E09CCFCF93DF930097E9F0FC0121
:10139000329713821282A0917403B0917503ED010C
:1013A00030E020E01097A1F420813181820F931F5B
:1013B00020917203309173032817390709F061C037
:1013C000F0937303E0937203DF91CF910895EA01E4
:1013D000CE17DF07E8F54A815B819E014115510573
:1013E000B1F7E901FB83EA8349915991C40FD51FF5
:1013F000EC17FD0761F4808191810296840F951F9F
:10140000E90199838883828193819B838A83F0E0B9
:10141000E0E012968D919C9113970097B9F52D916C
:101420003C911197CD010296820F931F2091720378
:10143000309173032817390739F6309751F5109218
:10144000750310927403B0937303A0937203BCCF1F
:10145000D383C28340815181840F951FC817D90758
:1014600061F44E5F5F4F88819981480F591F518306
:1014700040838A819B81938382832115310509F002
:10148000B0CFF0937503E09374039ECFFD01DC01B0
:0C149000C0CF13821282D7CFF894FFCF98
:10149C00000076032000303132333435363738399A
:1014AC004142434445463078005B324A00537973DD
:1014BC0074656D2054696D653A20004E756D6265DA
:1014CC0072206F6620546872656164733A20007EE6
:1014DC007E7E205468726561642000207E7E7E00D2
:1014EC00546872656164204E616D653A20004375E5
:1014FC007272656E7420746F70206F6620737461E5
:10150C00636B3A200053797374656D2074696D6553
:10151C002069733A20004E756D626572206F6620EB
:10152C007468726561647320696E207468652073D9
:10153C00797374656D3A2000546872656164206932
:10154C00643A2000546872656164206E616D653A7E
:10155C0020005374617274696E67205043206F666B
:10156C00207468726561643A200042797465732056
:10157C007573656420627920746865207374616387
:10158C006B3A2000537461636B2073697A653A205F
:10159C0000537461636B20626173652069733A2038
:1015AC0000456E64206F6620737461636B206174F8
:1015BC003A200074687265616420637265617465B9
:1015CC00640074657374207072696E747321007397
:1015DC007461747300626C696E6B0063616C6C692E
:1015EC006E6720636F6E746578745F73776974636C
:1015FC00682E2E2E006F732073746172740A0000B3
:00000001FF
