:100000000C9478000C9499000C9499000C9499002D
:100010000C9499000C9499000C9499000C949900FC
:100020000C9499000C9499000C9499000C949900EC
:100030000C9499000C9499000C9499000C949900DC
:100040000C9499000C9499000C9499000C949900CC
:100050000C9499000C9489040C9499000C949900C8
:100060000C9499000C9499000C9499000C949900AC
:100070000C9499000C9499000C9499000C9499009C
:100080000C9499000C9499000C9499000C9499008C
:100090000C9499000C9499000C9499000C9499007C
:1000A0000C9499000C9499000C9499000C9499006C
:1000B0000C9499000C9499000C9499000C9499005C
:1000C0000C9499000C9499000C9499000C9499004C
:1000D0000C9499000C9499000C9499000C9499003C
:1000E0000C9499000C949B000C94F5030C94AE00B6
:1000F00011241FBECFEFD1E2DEBFCDBF00E00CBFA9
:1001000012E0A0E0B2E0E0E6FEE000E00BBF02C0DB
:1001100007900D92A03AB107D9F722E0A0EAB2E029
:1001200001C01D92A83AB207E1F70E949C050C9409
:100130002E070C9400007894E7E1F2E094E78091B8
:10014000C10085FDFCCF8091C00085FFF8CF909362
:10015000C60091919111F3CFF9010994E8E2F2E020
:1001600094E78091C10085FDFCCF8091C00085FFA0
:10017000F8CF9093C60091919111F3CF089582E04A
:100180008093C0001092C50080E18093C400E1EC30
:10019000F0E080818861808308958091C000881F8D
:1001A0008827881F08958091C00087FF03C0809131
:1001B000C60008958FEF08959091C10095FDFCCF82
:1001C0009091C00095FFF8CF8093C60081E008951C
:1001D000FC012081222371F031969091C10095FDA0
:1001E000FCCF9091C00095FFF8CF2093C6002191DD
:1001F0002111F3CF08950F931F93CF93DF9300D076
:1002000000D0CDB7DEB7FC019C01329522952F704E
:1002100023273F702327A7E4B3E00E94E6059695C5
:100220008795969587959695879540E3480F4983DE
:100230009F01369527953695279536952795A5ECF8
:10024000B0E20E94E605929582958F7089279F7093
:1002500089270AE010E0B8010E94B005805D8A831A
:100260009F013695279536952795ABE7B4E10E9417
:10027000E60596958795B8010E94B005805D8B8351
:100280009F01ADECBCEC0E94E6059C0136952795DC
:100290003695279536952795C901B8010E94B00576
:1002A000805D8C83C901880F991F880F991F820F69
:1002B000931F880F991FE81BF90BE05DED831E82E9
:1002C000F0E0E0E04033E9F0442381F0EC0FFD1F63
:1002D00032969091C10095FDFCCF9091C00095FFA2
:1002E000F8CF4093C60041914111F3CF26960FB647
:1002F000F894DEBF0FBECDBFDF91CF911F910F915C
:1003000008953196E530F10561F48091C10085FDD5
:10031000FCCF8091C00085FFF8CF80E38093C600BA
:10032000E5CFA1E0B0E0AC0FBD1FAE0FBF1F4C91F9
:10033000C9CF8F929F92AF92BF92CF92DF92EF92EE
:10034000FF921F93CF93DF9300D000D000D01F9275
:10035000CDB7DEB74B015C0120E03AEC4AE95BE344
:100360000E94C405205D2983C501B40120E031EE5F
:1003700045EF55E00E94C4058AE0C82ED12CE12C3F
:10038000F12CCA01B901A70196010E94C405605D64
:100390006A83C501B40120E836E948E950E00E94CB
:1003A000C405CA01B901A70196010E94C405605D98
:1003B0006B83C501B40120E432E44FE050E00E94B9
:1003C000C405CA01B901A70196010E94C405605D78
:1003D0006C83C501B40120EA36E841E050E00E9498
:1003E000C405CA01B901A70196010E94C405605D58
:1003F0006D83C501B40120E137E240E050E00E9486
:10040000C405CA01B901A70196010E94C405605D37
:100410006E83C501B40128EE33E040E050E00E9455
:10042000C405CA01B901A70196010E94C405605D17
:100430006F83C501B40124E630E040E050E00E9443
:10044000C405CA01B901A70196010E94C405605DF7
:100450006887C501B401A70196010E94C405162F43
:10046000CA01B901A70196010E94C405605D6987B0
:10047000105D1A871B86FE013196AE01455F5F4F06
:10048000DF019D012E1B3F0B9D91903329F1992394
:1004900089F02F5F3F4FE20FF31F8091C10085FD70
:1004A000FCCF8091C00085FFF8CF9093C60091915A
:1004B0009111F3CF2A960FB6F894DEBF0FBECDBFD1
:1004C000DF91CF911F91FF90EF90DF90CF90BF9081
:1004D000AF909F908F900895A417B50791F68091E3
:1004E000C10085FDFCCF8091C00085FFF8CF80E37F
:1004F0008093C600DFCFCF93DF93EC0184E090E0E0
:100500000E940906AC01BC01209771F1DC0130E0CA
:1005100020E0FE01EF70FF27EA5FFD4F6081FC01E4
:100520006193CF012F5F3F4FD295C295CF70CD27FA
:10053000DF70CD27BF01209761F7E901D595C795F9
:10054000209791F0FA01E20FF31FC40FD51F9C9181
:10055000829198279C938081982790832C91922751
:100560009D93AC17BD0799F7FB011082E5E3F2E01C
:1005700080E39091C10095FDFCCF9091C00095FF64
:10058000F8CF8093C60081918111F3CFFA01808169
:10059000882371F031969091C10095FDFCCF909128
:1005A000C00095FFF8CF8093C60081918111F3CFF1
:1005B000CA01DF91CF910C94A506CF92DF92EF9202
:1005C000FF920F931F93CF93DF936B017C0188E021
:1005D00090E00E9409068C019C01C114D104E10441
:1005E000F104A9F1DC01F0E0E0E0B701A6014F70F1
:1005F0005527662777274A5F5D4FEA012881EC017E
:100600002993CE01319624E0F694E794D794C794C9
:100610002A95D1F79E01C114D104E104F10429F710
:10062000AF01559547954115510589F0E00FF11F30
:10063000400F511F9C91829198279C93808198270D
:1006400090838C9198279D93A417B50799F7F9018A
:100650001082E5E3F2E080E39091C10095FDFCCFCC
:100660009091C00095FFF8CF8093C60081918111D1
:10067000F3CFE8018881882379F0F80131969091D1
:10068000C10095FDFCCF9091C00095FFF8CF8093FD
:10069000C60081918111F3CFC801DF91CF911F91E5
:1006A0000F91FF90EF90DF90CF900C94A506809172
:1006B000C10085FDFCCF8091C00085FFF8CF8BE1A4
:1006C0008093C600E8E3F2E09BE58091C10085FDE0
:1006D000FCCF8091C00085FFF8CF9093C600919128
:1006E0009111F3CF0895CF93C62F9091C10095FD3E
:1006F000FCCF9091C00095FFF8CF9BE19093C6008E
:100700009091C10095FDFCCF9091C00095FFF8CF6E
:100710009BE59093C60090E00E94FB008091C10091
:1007200085FDFCCF8091C00085FFF8CF8BE38093DF
:10073000C6008C2F90E00E94FB008091C10085FDD7
:10074000FCCF8091C00085FFF8CF88E48093C6007D
:10075000CF9108959091C10095FDFCCF9091C0007C
:1007600095FFF8CF9BE19093C6009091C10095FD55
:10077000FCCF9091C00095FFF8CF9BE59093C60009
:1007800090E00E94FB008091C10085FDFCCF80912C
:10079000C00085FFF8CF8DE68093C600089584E2FF
:1007A00090E0FC01208184E290E02068FC0120833D
:1007B00085E290E0FC01208185E290E02068FC0168
:1007C0002083089584E290E0FC01208184E290E09F
:1007D0002068FC01208385E290E0FC01208185E215
:1007E00090E02F74FC01208308950E94CF032FEF27
:1007F00089E698E1215080409040E1F700C0000078
:100800000E94E2032FEF89E698E12150804090405A
:10081000E1F700C00000E9CFEEE6F0E08081826001
:10082000808384B5826084BD85B5856085BD8CE993
:1008300087BD0895E0E4F2E093E68091C10085FD74
:10084000FCCF8091C00085FFF8CF9093C6009191B6
:100850009111F3CF8091A0029091A1020E94FB0020
:10086000FB01DD27CDE5E993F8832F923F924F926C
:100870005F926F927F928F929F92AF92BF92CF9230
:10088000DF92CF93DF93FF27EDE5A191B081E09157
:10089000A202F091A30286819781880F991FE80F29
:1008A000F91F808191810396FC01A193B083EC0133
:1008B000BB27ADE5CD93DC93DF91CF91DF90CF9057
:1008C000BF90AF909F908F907F906F905F904F9070
:1008D0003F902F908BE990E0FC01EF93FF93ECE3C6
:1008E000F2E095E68091C10085FDFCCF8091C000CB
:1008F00085FFF8CF9093C60091919111F3CF80912D
:10090000A0029091A10201969093A1028093A0026F
:1009100008951F920F920FB60F9211240BB60F92EB
:100920002F933F934F935F936F937F938F939F93F7
:10093000AF93BF93EF93FF93E091A202F091A302D4
:1009400026813781D901AA0FBB1FAE0FBF1F0D90A3
:10095000BC91A02D13966D917C9181E090E0232BAA
:1009600011F090E080E0880F991FE80FF91F0190C7
:10097000F081E02D838194810E941A04FF91EF9110
:10098000BF91AF919F918F917F916F915F914F91A7
:100990003F912F910F900BBE0F900FBE0F901F90A5
:1009A0001895CF93DF9388E090E00E940906EC0150
:1009B0009093A3028093A2028FEF9FEF9F838E8379
:1009C00089E090E00E9409069983888389E090E09D
:1009D0000E9409069B838A83DF91CF9108950F932C
:1009E0001F93CF93DF93DC01EB01B901E091A202E9
:1009F000F091A302468157814F5F5F4FE1E5F2E03E
:100A000033E69091C10095FDFCCF9091C00095FF19
:100A1000F8CF3093C60031913111F3CF8091A2020B
:100A20009091A302440F551F480F591FFA010081EE
:100A30001181F801B183A08376836583CB010E9485
:100A40000906FC01D80118969C938E931797138A78
:100A5000D48B81E0CD2B09F480E0858B7596D8018D
:100A60001496FC93EE931397DF91CF911F910F9102
:100A70000895E091A202F091A30281E090E0268126
:100A80003781232B11F090E080E00895E2E6F2E058
:100A90009FE68091C10085FDFCCF8091C00085FF5D
:100AA000F8CF9093C60091919111F3CF2EE830E0EA
:100AB00050E040E06EEA70E08BE692E00E94EF04C6
:100AC0002EE830E050E040E065EF73E080E792E030
:100AD0000E94EF04E7E7F2E093E68091C10085FD14
:100AE000FCCF8091C00085FFF8CF9093C600919114
:100AF0009111F3CF7894E091A202F091A302A28128
:100B0000B38113966D917C910190F081E02D8381EA
:100B100094810E941A04EFE8F2E095E68091C1000A
:100B200085FDFCCF8091C00085FFF8CF9093C60073
:100B300091919111F3CF089582E08093C0001092BB
:100B4000C50080E18093C400E1ECF0E08081886121
:100B500080830E94D1040E94460590E080E00895C1
:100B600097FB072E16F4009407D077FD09D00E945A
:100B7000F50507FC05D03EF4909581959F4F0895AB
:100B8000709561957F4F0895A1E21A2EAA1BBB1B99
:100B9000FD010DC0AA1FBB1FEE1FFF1FA217B30749
:100BA000E407F50720F0A21BB30BE40BF50B661F5F
:100BB000771F881F991F1A9469F760957095809523
:100BC00090959B01AC01BD01CF010895A29FB0019A
:100BD000B39FC001A39F700D811D1124911DB29F71
:100BE000700D811D1124911D0895AA1BBB1B51E19D
:100BF00007C0AA1FBB1FA617B70710F0A61BB70B8D
:100C0000881F991F5A95A9F780959095BC01CD0131
:100C100008950F931F93CF93DF938230910510F4C3
:100C200082E090E0E091A602F091A70230E020E09F
:100C3000B0E0A0E0309799F42115310509F44AC0DD
:100C4000281B390B24303105D8F58A819B81611529
:100C5000710589F1FB0193838283FE0111C04081FC
:100C600051810281138148175907E0F0481759074D
:100C700099F4109761F012960C93129713961C93A7
:100C80003296CF01DF91CF911F910F91089500937C
:100C9000A6021093A702F4CF2115310551F0421797
:100CA000530738F0A901DB019A01BD01DF01F8010A
:100CB000C1CFEF01F9CF9093A7028093A602CDCFC9
:100CC000FE01E20FF31F8193919322503109398382
:100CD0002883D7CF2091A4023091A502232B41F481
:100CE00020910202309103023093A5022093A402C6
:100CF00020910002309101022115310541F42DB7F8
:100D00003EB74091040250910502241B350BE0913F
:100D1000A402F091A502E217F307A0F42E1B3F0BEB
:100D20002817390778F0AC014E5F5F4F241735075D
:100D300048F04E0F5F1F5093A5024093A402819389
:100D400091939FCFF0E0E0E09CCFCF93DF930097AB
:100D5000E9F0FC01329713821282A091A602B091B1
:100D6000A702ED0130E020E01097A1F4208131814D
:100D7000820F931F2091A4023091A50228173907F2
:100D800009F061C0F093A502E093A402DF91CF9136
:100D90000895EA01CE17DF07E8F54A815B819E01DD
:100DA00041155105B1F7E901FB83EA834991599156
:100DB000C40FD51FEC17FD0761F480819181029665
:100DC000840F951FE90199838883828193819B8396
:100DD0008A83F0E0E0E012968D919C911397009742
:100DE000B9F52D913C911197CD010296820F931F79
:100DF0002091A4023091A5022817390739F63097BF
:100E000051F51092A7021092A602B093A502A093EA
:100E1000A402BCCFD383C28340815181840F951F2C
:100E2000C817D90761F44E5F5F4F88819981480FD9
:100E3000591F518340838A819B819383828321152B
:100E4000310509F0B0CFF093A702E093A6029ECF40
:100E5000FD01DC01C0CF13821282D7CFF894FFCFFF
:100E60000000A802200030313233343536373839AB
:100E700041424344454674687265616420737461FD
:100E80007274696E67210074657374207072696E84
:100E9000747321003078005B324A00656E64206311
:100EA0006F6E7465787420737769746368210A00C3
:100EB0006372656174696E67207468726561640A43
:100EC000006F732073746172740A00746573740028
:100ED000626C696E6B0063616C6C696E6720636F36
:100EE0006E746578745F7377697463680A00656E01
:100EF00064206F66206F73207374617274210A001E
:00000001FF
