:100000000C9478000C9499000C9499000C9499002D
:100010000C9499000C9499000C9499000C949900FC
:100020000C9499000C9499000C9499000C949900EC
:100030000C9499000C9499000C9499000C949900DC
:100040000C9499000C9499000C9499000C949900CC
:100050000C9499000C9452040C9499000C949900FF
:100060000C9499000C9499000C9499000C949900AC
:100070000C9499000C9499000C9499000C9499009C
:100080000C9499000C9499000C9499000C9499008C
:100090000C9499000C9499000C9499000C9499007C
:1000A0000C9499000C9499000C9499000C9499006C
:1000B0000C9499000C9499000C9499000C9499005C
:1000C0000C9499000C9499000C9499000C9499004C
:1000D0000C9499000C9499000C9499000C9499003C
:1000E0000C9499000C9499030C94F9030C949B00C4
:1000F00011241FBECFEFD1E2DEBFCDBF00E00CBFA9
:1001000012E0A0E0B2E0E6E2F0E100E00BBF02C0E6
:1001100007900D92A63CB107D9F722E0A6ECB2E019
:1001200001C01D92AE3CB207E1F70E947F060C941D
:1001300011080C9400007894E7E1F2E094E78091D4
:10014000C10085FDFCCF8091C00085FFF8CF909362
:10015000C60091919111F3CFFE01099482E0809342
:10016000C0001092C50080E18093C400E1ECF0E093
:1001700080818861808308958091C000881F8827CE
:10018000881F08958091C00087FF03C08091C6003A
:1001900008958FEF08959091C10095FDFCCF909147
:1001A000C00095FFF8CF8093C60081E00895FC0160
:1001B0002081222371F031969091C10095FDFCCFF2
:1001C0009091C00095FFF8CF2093C6002191211196
:1001D000F3CF08950F931F93CF93DF9300D000D0F8
:1001E000CDB7DEB7FC019C01329522952F702327F5
:1001F0003F702327A7E4B3E00E94C9069695879530
:10020000969587959695879540E3480F49839F017A
:10021000369527953695279536952795A5ECB0E226
:100220000E94C906929582958F7089279F708927B1
:100230000AE010E0B8010E949306805D8A839F0166
:100240003695279536952795ABE7B4E10E94C90608
:1002500096958795B8010E949306805D8B839F01D8
:10026000ADECBCEC0E94C9069C01369527953695ED
:10027000279536952795C901B8010E949306805DA0
:100280008C83C901880F991F880F991F820F931FB4
:10029000880F991FE81BF90BE05DED831E82F0E0EB
:1002A000E0E04033E9F0442381F0EC0FFD1F32968B
:1002B0009091C10095FDFCCF9091C00095FFF8CFC3
:1002C0004093C60041914111F3CF26960FB6F894A2
:1002D000DEBF0FBECDBFDF91CF911F910F9108956B
:1002E0003196E530F10561F48091C10085FDFCCFC8
:1002F0008091C00085FFF8CF80E38093C600E5CFF2
:10030000A1E0B0E0AC0FBD1FAE0FBF1F4C91C9CF35
:100310008F929F92AF92BF92CF92DF92EF92FF9215
:100320001F93CF93DF9300D000D000D01F92CDB7A2
:10033000DEB74B015C0120E03AEC4AE95BE30E9446
:10034000A706205D2983C501B40120E031EE45EF09
:1003500055E00E94A7068AE0C82ED12CE12CF12C92
:10036000CA01B901A70196010E94A706605D6A83D0
:10037000C501B40120E836E948E950E00E94A7062B
:10038000CA01B901A70196010E94A706605D6B83AF
:10039000C501B40120E432E44FE050E00E94A7061A
:1003A000CA01B901A70196010E94A706605D6C838E
:1003B000C501B40120EA36E841E050E00E94A706FA
:1003C000CA01B901A70196010E94A706605D6D836D
:1003D000C501B40120E137E240E050E00E94A706E9
:1003E000CA01B901A70196010E94A706605D6E834C
:1003F000C501B40128EE33E040E050E00E94A706BA
:10040000CA01B901A70196010E94A706605D6F832A
:10041000C501B40124E630E040E050E00E94A706A8
:10042000CA01B901A70196010E94A706605D68870D
:10043000C501B401A70196010E94A706162FCA01A3
:10044000B901A70196010E94A706605D6987105D4A
:100450001A871B86FE013196AE01455F5F4FDF01B3
:100460009D012E1B3F0B9D91903329F1992389F01B
:100470002F5F3F4FE20FF31F8091C10085FDFCCF3E
:100480008091C00085FFF8CF9093C60091919111A3
:10049000F3CF2A960FB6F894DEBF0FBECDBFDF9123
:1004A000CF911F91FF90EF90DF90CF90BF90AF90D2
:1004B0009F908F900895A417B50791F68091C10081
:1004C00085FDFCCF8091C00085FFF8CF80E380934D
:1004D000C600DFCFCF93DF93EC0184E090E00E9471
:1004E000EC06AC01BC01209771F1DC0130E020E0AA
:1004F000FE01EF70FF27EA5FFD4F6081FC01619311
:10050000CF012F5F3F4FD295C295CF70CD27DF70BF
:10051000CD27BF01209761F7E901D595C7952097B1
:1005200091F0FA01E20FF31FC40FD51F9C91829145
:1005300098279C938081982790832C9192279D9354
:10054000AC17BD0799F7FB011082E8E2F2E080E307
:100550009091C10095FDFCCF9091C00095FFF8CF20
:100560008093C60081918111F3CFFA0180818823A5
:1005700071F031969091C10095FDFCCF9091C00033
:1005800095FFF8CF8093C60081918111F3CFCA0106
:10059000DF91CF910C948807CF92DF92EF92FF9278
:1005A0000F931F93CF93DF936B017C0188E090E062
:1005B0000E94EC068C019C01C114D104E104F104F9
:1005C000A9F1DC01F0E0E0E0B701A6014F7055278A
:1005D000662777274A5F5D4FEA012881EC0129935E
:1005E000CE01319624E0F694E794D794C7942A95E7
:1005F000D1F79E01C114D104E104F10429F7AF0140
:10060000559547954115510589F0E00FF11F400FB1
:10061000511F9C91829198279C9380819827908369
:100620008C9198279D93A417B50799F7F90110822B
:10063000E8E2F2E080E39091C10095FDFCCF90915B
:10064000C00095FFF8CF8093C60081918111F3CF50
:10065000E8018881882379F0F80131969091C100F2
:1006600095FDFCCF9091C00095FFF8CF8093C60018
:1006700081918111F3CFC801DF91CF911F910F912B
:10068000FF90EF90DF90CF900C9488078091C1008D
:1006900085FDFCCF8091C00085FFF8CF8BE1809372
:1006A000C600EBE2F2E09BE58091C10085FDFCCF46
:1006B0008091C00085FFF8CF9093C6009191911171
:1006C000F3CF0895CF93C62F9091C10095FDFCCF35
:1006D0009091C00095FFF8CF9BE19093C600909158
:1006E000C10095FDFCCF9091C00095FFF8CF9BE530
:1006F0009093C60090E00E94EA008091C10085FDC1
:10070000FCCF8091C00085FFF8CF8BE38093C600BB
:100710008C2F90E00E94EA008091C10085FDFCCF03
:100720008091C00085FFF8CF88E48093C600CF9108
:10073000089561E089E10E946203EFE2F2E094E74C
:100740008091C10085FDFCCF8091C00085FFF8CF6E
:100750009093C60091919111F3CF08959091C100AB
:1007600095FDFCCF9091C00095FFF8CF9BE1909351
:10077000C6009091C10095FDFCCF9091C00095FFFF
:10078000F8CF9BE59093C60090E00E94EA0080912C
:10079000C10085FDFCCF8091C00085FFF8CF8DE6BC
:1007A0008093C600089584E290E0FC01208184E2F9
:1007B00090E02068FC01208385E290E0FC0120812C
:1007C00085E290E02068FC012083089584E290E0B7
:1007D000FC01208184E290E02068FC01208385E216
:1007E00090E0FC01208185E290E02F74FC012083E1
:1007F00008950E94D3032FEF89E698E121508040AD
:100800009040E1F700C000000E94E6032FEF89E668
:1008100098E1215080409040E1F700C00000E9CF0E
:10082000EEE6F0E080818260808384B5826084BDE2
:1008300085B5856085BD8CE987BD08952F923F926F
:100840004F925F926F927F928F929F92AF92BF92E0
:10085000CF92DF92DF92EF92FF920F931F93CF938D
:10086000DF93FF27EDE5A191B081FB01A193B08358
:10087000FC01C191D081BB27ADE5CD93DC93DF9125
:10088000CF911F910F91FF90EF90DF90CF90BF908D
:10089000AF909F908F907F906F905F904F903F9020
:1008A0002F9008951F920F920FB60F9211240BB63E
:1008B0000F922F933F934F935F936F937F938F93F9
:1008C0009F93AF93BF93EF93FF93E091C802F09192
:1008D000C902868197810196978386838085918559
:1008E000248135818217930759F19C012F5F3F4F77
:1008F000880F991FDF01A80FB91F6D917C91D90155
:10090000AA0FBB1FAE0FBF1F8D919C91318720870F
:100910006D5F7F4F03960E941E04FF91EF91BF9180
:10092000AF919F918F917F916F915F914F913F9187
:100930002F910F900BBE0F900FBE0F901F90189528
:1009400030E020E0D5CFCF93DF938AE090E00E94A3
:10095000EC06EC019093C9028093C8021D821C82B0
:100960008BE090E00E94EC06998388838BE090E016
:100970000E94EC069B838A83DF91CF9108957F923A
:100980008F929F92AF92BF92CF92DF92EF92FF929F
:100990000F931F93CF93DF934C01C62E772E5A01EE
:1009A0008901E091C802F091C902E480F580C70195
:1009B000019695838483DE2CDD0CDD0CDE0CDD0CD2
:1009C00061E082E08D0D0E946203ECE3F2E093E6C9
:1009D0008091C10085FDFCCF8091C00085FFF8CFDC
:1009E0009093C60091919111F3CFC7010E94EA0044
:1009F000E091C802F091C902C701880F991FE80F62
:100A0000F91FC081D181998288821E830D83C8011C
:100A10000E94EC0698878F839C838B83C9867A8695
:100A200061E083E08D0D0E946203EDE4F2E093E764
:100A30008091C10085FDFCCF8091C00085FFF8CF7B
:100A40009093C60091919111F3CF8F8198850E9468
:100A50006A020B811C8161E084E08D0D0E946203BB
:100A6000E9E5F2E093E68091C10085FDFCCF80913D
:100A7000C00085FFF8CF9093C60091919111F3CFFC
:100A8000C8010E946A02F8017182C282F501808168
:100A9000F8018383138A8BE990E0948B858B61E066
:100AA00085E08D0D0E946203E9E6F2E020E7909177
:100AB000C10095FDFCCF8091C00085FFF8CF209349
:100AC000C60021912111F3CFC80144960E946A0209
:100AD0009091C10095FDFCCF8091C00085FFF8CFBB
:100AE0008AE08093C60061E086E08D0D0E9462037B
:100AF000EEE6F2E020E79091C10095FDFCCF8091F9
:100B0000C00085FFF8CF2093C60021912111F3CFBB
:100B1000C80145960E946A029091C10095FDFCCFE4
:100B20008091C00085FFF8CF8AE08093C60058010D
:100B3000FFEFAF1ABF0A0E5E1F4FE114F10409F078
:100B400058C0BC82AB8261E087E08D0D0E946203D9
:100B5000E3E7F2E092E78091C10085FDFCCF809150
:100B6000C00085FFF8CF9093C60091919111F3CF0B
:100B7000C5010E946A0261E088E08D0D0E94620357
:100B8000E8E7F2E092E78091C10085FDFCCF80911B
:100B9000C00085FFF8CF9093C60091919111F3CFDB
:100BA000C8010E946A0261E089E08D0D0E94620323
:100BB000ECE7F2E096E68091C10085FDFCCF8091E4
:100BC000C00085FFF8CF9093C60091919111F3CFAB
:100BD0008B819C81DF91CF911F910F91FF90EF90BE
:100BE000DF90CF90BF90AF909F908F907F900C94AC
:100BF0006A02EA94EF2809F0A6CF1C830B83A3CFE7
:100C0000E091C802F091C9028085918524813581E7
:100C10008217930711F00196089590E080E00895FF
:100C20000E944603E6E8F2E09FE68091C10085FD60
:100C3000FCCF8091C00085FFF8CF9093C6009191C2
:100C40009111F3CFE091C802F091C9021782168288
:100C500080916E00826080936E0084B5826084BD56
:100C600085B5856085BD8CE987BD2EE830E050E014
:100C700040E069E973E08FE892E00E94BF042EE84B
:100C800030E050E040E069EF73E084E992E00E94D8
:100C9000BF0461E084E10E946203EBE9F2E093E6C5
:100CA0008091C10085FDFCCF8091C00085FFF8CF09
:100CB0009093C60091919111F3CFE091C802F09109
:100CC000C902628173816D5F7F4F8081918103963C
:100CD0000E941E0461E08FE00E946203E5EBF2E0F7
:100CE00095E68091C10085FDFCCF8091C00085FF15
:100CF000F8CF9093C60091919111F3CF089582E0BF
:100D00008093C0001092C50080E18093C400E1ECA4
:100D1000F0E08081886180830E94A3040E94100615
:100D200090E080E0089597FB072E16F4009407D01A
:100D300077FD09D00E94D80607FC05D03EF49095B7
:100D400081959F4F0895709561957F4F0895A1E219
:100D50001A2EAA1BBB1BFD010DC0AA1FBB1FEE1F35
:100D6000FF1FA217B307E407F50720F0A21BB30B80
:100D7000E40BF50B661F771F881F991F1A9469F7FC
:100D800060957095809590959B01AC01BD01CF0158
:100D90000895A29FB001B39FC001A39F700D811D54
:100DA0001124911DB29F700D811D1124911D089574
:100DB000AA1BBB1B51E107C0AA1FBB1FA617B70781
:100DC00010F0A61BB70B881F991F5A95A9F780959D
:100DD0009095BC01CD0108950F931F93CF93DF939E
:100DE0008230910510F482E090E0E091CC02F09125
:100DF000CD0230E020E0B0E0A0E0309799F421157A
:100E0000310509F44AC0281B390B24303105D8F5C7
:100E10008A819B816115710589F1FB01938382832E
:100E2000FE0111C040815181028113814817590789
:100E3000E0F04817590799F4109761F012960C9357
:100E4000129713961C933296CF01DF91CF911F9189
:100E50000F9108950093CC021093CD02F4CF211589
:100E6000310551F04217530738F0A901DB019A010F
:100E7000BD01DF01F801C1CFEF01F9CF9093CD02A1
:100E80008093CC02CDCFFE01E20FF31F81939193AB
:100E90002250310939832883D7CF2091CA0230915B
:100EA000CB02232B41F420910202309103023093B4
:100EB000CB022093CA022091000230910102211539
:100EC000310541F42DB73EB740910402509105021F
:100ED000241B350BE091CA02F091CB02E217F30715
:100EE000A0F42E1B3F0B2817390778F0AC014E5F9A
:100EF0005F4F2417350748F04E0F5F1F5093CB020A
:100F00004093CA02819391939FCFF0E0E0E09CCFA1
:100F1000CF93DF930097E9F0FC013297138212829E
:100F2000A091CC02B091CD02ED0130E020E010970D
:100F3000A1F420813181820F931F2091CA02309148
:100F4000CB022817390709F061C0F093CB02E09378
:100F5000CA02DF91CF910895EA01CE17DF07E8F5C5
:100F60004A815B819E0141155105B1F7E901FB837F
:100F7000EA8349915991C40FD51FEC17FD0761F41D
:100F8000808191810296840F951FE901998388835E
:100F9000828193819B838A83F0E0E0E012968D91B9
:100FA0009C9113970097B9F52D913C911197CD0124
:100FB0000296820F931F2091CA023091CB0228170C
:100FC000390739F6309751F51092CD021092CC02C4
:100FD000B093CB02A093CA02BCCFD383C28340811B
:100FE0005181840F951FC817D90761F44E5F5F4F79
:100FF00088819981480F591F518340838A819B8141
:10100000938382832115310509F0B0CFF093CD028F
:10101000E093CC029ECFFD01DC01C0CF138212828F
:06102000D7CFF894FFCFCA
:101026000000CE02200030313233343536373839BD
:101036004142434445467468726561642073746135
:101046007274696E6721003078005B324A007465FD
:101056007374207072696E747321006372656174B3
:10106600696E6720746872656164200073746163D9
:101076006B20626173652000636F6E7465787420FF
:101086007374727563742000706368200070636CFB
:10109600200072323920007232200066696E616C5F
:1010A60020737020006F732073746172740A007469
:1010B60065737400626C696E6B0063616C6C696E5B
:1010C6006720636F6E746578745F7377697463689D
:1010D6002E2E2E00656E64206F66206F732073744B
:0610E600617274210A0092
:00000001FF
