:100000000C9478000C9499000C9499000C9499002D
:100010000C9499000C9499000C9499000C949900FC
:100020000C9499000C9499000C9499000C949900EC
:100030000C9499000C9499000C9499000C949900DC
:100040000C9499000C9499000C9499000C949900CC
:100050000C9499000C949B060C9499000C949900B4
:100060000C9499000C9499000C9499000C949900AC
:100070000C9499000C9499000C9499000C9499009C
:100080000C9499000C9499000C9499000C9499008C
:100090000C9499000C9499000C9499000C9499007C
:1000A0000C9499000C9499000C9499000C9499006C
:1000B0000C9499000C9499000C9499000C9499005C
:1000C0000C9499000C9499000C9499000C9499004C
:1000D0000C9499000C9499000C9499000C9499003C
:1000E0000C9499000C948A030C949B000C942106A8
:1000F00011241FBECFEFD1E2DEBFCDBF00E00CBFA9
:1001000012E0A0E0B2E0EEECF2E100E00BBF02C0D2
:1001100007900D92AE3EB107D9F722E0AEEEB2E005
:1001200001C01D92A43FB207E1F70E94C4070C94DE
:1001300065090C9400007894C201F101099482E0F1
:100140008093C0001092C50080E18093C400E1EC70
:10015000F0E080818861808308958091C000881FCD
:100160008827881F08958091C00087FF03C0809171
:10017000C60008958FEF08959091C10095FDFCCFC2
:100180009091C00095FFF8CF8093C60081E008955C
:10019000FC012081222371F031969091C10095FDE0
:1001A000FCCF9091C00095FFF8CF2093C60021911D
:1001B0002111F3CF08950F931F93CF93DF9300D0B6
:1001C00000D0CDB7DEB7FC019C01329522952F708F
:1001D00023273F702327A7E4B3E00E941D089695CC
:1001E0008795969587959695879540E3480F49831F
:1001F0009F01369527953695279536952795A5EC39
:10020000B0E20E941D08929582958F7089279F7099
:1002100089270AE010E0B8010E94E707805D8A8321
:100220009F013695279536952795ABE7B4E10E9457
:100230001D0896958795B8010E94E707805D8B831E
:100240009F01ADECBCEC0E941D089C0136952795E2
:100250003695279536952795C901B8010E94E7077D
:10026000805D8C83C901880F991F880F991F820FA9
:10027000931F880F991FE81BF90BE05DED831E8229
:10028000F0E0E0E04033E9F0442381F0EC0FFD1FA3
:1002900032969091C10095FDFCCF9091C00095FFE2
:1002A000F8CF4093C60041914111F3CF26960FB687
:1002B000F894DEBF0FBECDBFDF91CF911F910F919C
:1002C00008953196E530F10561F48091C10085FD16
:1002D000FCCF8091C00085FFF8CF80E38093C600FB
:1002E000E5CFA1E0B0E0AC0FBD1FAE0FBF1F4C913A
:1002F000C9CF8F929F92AF92BF92CF92DF92EF922F
:10030000FF921F93CF93DF9300D000D000D01F92B5
:10031000CDB7DEB74B015C0120E03AEC4AE95BE384
:100320000E94FB07205D2983C501B40120E031EE66
:1003300045EF55E00E94FB078AE0C82ED12CE12C46
:10034000F12CCA01B901A70196010E94FB07605D6B
:100350006A83C501B40120E836E948E950E00E940B
:10036000FB07CA01B901A70196010E94FB07605D66
:100370006B83C501B40120E432E44FE050E00E94F9
:10038000FB07CA01B901A70196010E94FB07605D46
:100390006C83C501B40120EA36E841E050E00E94D8
:1003A000FB07CA01B901A70196010E94FB07605D26
:1003B0006D83C501B40120E137E240E050E00E94C6
:1003C000FB07CA01B901A70196010E94FB07605D06
:1003D0006E83C501B40128EE33E040E050E00E9496
:1003E000FB07CA01B901A70196010E94FB07605DE6
:1003F0006F83C501B40124E630E040E050E00E9484
:10040000FB07CA01B901A70196010E94FB07605DC5
:100410006887C501B401A70196010E94FB07162F4A
:10042000CA01B901A70196010E94FB07605D6987B7
:10043000105D1A871B86FE013196AE01455F5F4F46
:10044000DF019D012E1B3F0B9D91903329F19923D4
:1004500089F02F5F3F4FE20FF31F8091C10085FDB0
:10046000FCCF8091C00085FFF8CF9093C60091919A
:100470009111F3CF2A960FB6F894DEBF0FBECDBF11
:10048000DF91CF911F91FF90EF90DF90CF90BF90C1
:10049000AF909F908F900895A417B50791F6809123
:1004A000C10085FDFCCF8091C00085FFF8CF80E3BF
:1004B0008093C600DFCFCF93DF93EC0184E090E020
:1004C0000E944008AC01BC01209771F1DC0130E0D2
:1004D00020E0FE01EF70FF27EA5FFD4F6081FC0125
:1004E0006193CF012F5F3F4FD295C295CF70CD273B
:1004F000DF70CD27BF01209761F7E901D595C7953A
:10050000209791F0FA01E20FF31FC40FD51F9C91C1
:10051000829198279C938081982790832C91922791
:100520009D93AC17BD0799F7FB011082E7E1F2E05C
:1005300080E39091C10095FDFCCF9091C00095FFA4
:10054000F8CF8093C60081918111F3CFFA018081A9
:10055000882371F031969091C10095FDFCCF909168
:10056000C00095FFF8CF8093C60081918111F3CF31
:10057000CA01DF91CF910C94DC08CF92DF92EF9209
:10058000FF920F931F93CF93DF936B017C0188E061
:1005900090E00E9440088C019C01C114D104E10448
:1005A000F104A9F1DC01F0E0E0E0B701A6014F7031
:1005B0005527662777274A5F5D4FEA012881EC01BE
:1005C0002993CE01319624E0F694E794D794C7940A
:1005D0002A95D1F79E01C114D104E104F10429F751
:1005E000AF01559547954115510589F0E00FF11F71
:1005F000400F511F9C91829198279C93808198274E
:1006000090838C9198279D93A417B50799F7F901CA
:100610001082E7E1F2E080E39091C10095FDFCCF0C
:100620009091C00095FFF8CF8093C6008191811111
:10063000F3CFE8018881882379F0F8013196909111
:10064000C10095FDFCCF9091C00095FFF8CF80933D
:10065000C60081918111F3CFC801DF91CF911F9125
:100660000F91FF90EF90DF90CF900C94DC08809179
:10067000C10085FDFCCF8091C00085FFF8CF8BE1E4
:100680008093C600EAE1F2E09BE58091C10085FD20
:10069000FCCF8091C00085FFF8CF9093C600919168
:1006A0009111F3CF0895CF93C62F9091C10095FD7E
:1006B000FCCF9091C00095FFF8CF9BE19093C600CE
:1006C0009091C10095FDFCCF9091C00095FFF8CFAF
:1006D0009BE59093C60090E00E94DB008091C100F2
:1006E00085FDFCCF8091C00085FFF8CF8BE3809320
:1006F000C6008C2F90E00E94DB008091C10085FD38
:10070000FCCF8091C00085FFF8CF88E48093C600BD
:10071000CF910895CF93DF93CDB7DEB760970FB633
:10072000F894DEBF0FBECDBFDC010D90BC91A02DB3
:10073000BC83AB8318962D913C91199712962D90FE
:100740003C9013971496ED91FC91FA83E983D101C3
:1007500017968D919C91189713964D915C91FC0181
:10076000E41BF50BFE83ED83E80FF91FFC87EB8795
:10077000A981BA8117968D919C91189713964D91E6
:100780005C91FC01E41BF50BF887EF83E80FF91F80
:10079000FE87ED873695279536952795ABE7B4E12B
:1007A0000E941D08969587959A87898761E081E068
:1007B0000E945303EEE1F2E093E58091C10085FDD4
:1007C000FCCF8091C00085FFF8CF9093C600919137
:1007D0009111F3CF89859A850E94DB0061E082E068
:1007E0000E945303EFE2F2E09EE48091C10085FD98
:1007F000FCCF8091C00085FFF8CF9093C600919107
:100800009111F3CFAB81BC8116968D919C910E9482
:10081000DB0061E084E00E94530351E5A52E52E025
:10082000B52EF50194E58091C10085FDFCCF809146
:10083000C00085FFF8CF9093C60091919111F3CF3E
:10084000F101828190E00E94DB0061E085E00E947E
:1008500053034DE5C42E42E0D42EF60194E5809179
:10086000C10085FDFCCF8091C00085FFF8CF90933B
:10087000C60091919111F3CFD101ED91FC9190813E
:10088000992371F08091C10085FDFCCF8091C0005B
:1008900085FFF8CF9093C600319690819111F2CFE9
:1008A00061E086E00E9453033BE6E32E32E0F32E44
:1008B000F70193E58091C10085FDFCCF8091C000D8
:1008C00085FFF8CF9093C60091919111F3CFF1017C
:1008D000818592850E945B0261E087E00E9453035C
:1008E00003E812E0F80192E48091C10085FDFCCF9D
:1008F0008091C00085FFF8CF9093C600919191112F
:10090000F3CF8D819E810E94DB0061E088E00E9430
:1009100053032DE932E0388B2F87F90193E580915D
:10092000C10085FDFCCF8091C00085FFF8CF90937A
:10093000C60091919111F3CFD10115968D919C91A3
:100940000E94DB0061E089E00E9453032AEA822EC4
:1009500022E0922EF40193E48091C10085FDFCCF4A
:100960008091C00085FFF8CF9093C60091919111BE
:10097000F3CFF101838194810E945B0261E08AE000
:100980000E94530391EC692E92E0792EF30193E5D6
:100990008091C10085FDFCCF8091C00085FFF8CF1C
:1009A0009093C60091919111F3CFD10117968D913B
:1009B0009C910E945B0261E08BE00E94530381EDF9
:1009C000482E82E0582EF20195E48091C10085FD09
:1009D000FCCF8091C00085FFF8CF9093C600919125
:1009E0009111F3CF8B859C850E945B0261E08DE0C5
:1009F0000E94530394E58091C10085FDFCCF809156
:100A0000C00085FFF8CF9093C600F50191915F017A
:100A10009111F1CFA981BA8112968C9190E00E9438
:100A2000DB0061E08EE00E94530394E58091C100F9
:100A300085FDFCCF8091C00085FFF8CF9093C60064
:100A4000F60191916F019111F1CFA981BA81ED91D8
:100A5000FC919081992371F08091C10085FDFCCFBC
:100A60008091C00085FFF8CF9093C60031969081A9
:100A70009111F2CF61E08FE00E94530393E58091E2
:100A8000C10085FDFCCF8091C00085FFF8CF909319
:100A9000C600F70191917F019111F1CFA981BA812F
:100AA00019968D919C910E945B0261E080E10E9409
:100AB000530392E48091C10085FDFCCF8091C0007A
:100AC00085FFF8CF9093C600F80191918F019111A5
:100AD000F1CF8F8198850E94DB0061E081E10E9467
:100AE000530393E58091C10085FDFCCF8091C00048
:100AF00085FFF8CF9093C600AF85B8899D91B88BDC
:100B0000AF879111EFCFE981FA81858196810E94AB
:100B1000DB0061E082E10E94530393E48091C10015
:100B200085FDFCCF8091C00085FFF8CF9093C60073
:100B3000D4019D914D019111F1CFE981FA81838119
:100B400094810E945B0261E083E10E94530393E57C
:100B50008091C10085FDFCCF8091C00085FFF8CF5A
:100B60009093C600D3019D913D019111F1CFE98190
:100B7000FA81878190850E945B0261E084E10E9496
:100B8000530395E48091C10085FDFCCF8091C000A6
:100B900085FFF8CF9093C600D2019D912D01911150
:100BA000F1CF8D859E850E945B0200CE9091C100A1
:100BB00095FDFCCF9091C00095FFF8CF9BE19093FD
:100BC000C6009091C10095FDFCCF9091C00095FFAB
:100BD000F8CF9BE59093C60090E00E94DB008091E7
:100BE000C10085FDFCCF8091C00085FFF8CF8DE668
:100BF0008093C600089584E290E0FC01208184E2A5
:100C000090E02068FC01208385E290E0FC012081D7
:100C100085E290E02068FC012083089584E290E062
:100C2000FC01208184E290E02068FC01208385E2C1
:100C300090E0FC01208185E290E02F74FC0120838C
:100C40000895EC010E94FB052881398112161306D4
:100C500064F490E080E0EFE9FFE03197F1F700C045
:100C60000000019628173907B1F70E940E06288167
:100C700039811216130634F790E080E0EFE9FFE0C7
:100C80003197F1F700C00000019628173907B1F736
:100C9000D9CF181619066CF430E020E0EFE9FFE038
:100CA0003197F1F700C000002F5F3F4F8217930785
:100CB000A9F70895EEE6F0E080818260808384B534
:100CC000826084BD85B5856085BD8CE987BD08954A
:100CD0002F923F924F925F926F927F928F929F924C
:100CE000AF92BF92CF92DF92EF92FF920F931F933A
:100CF000CF93DF93FF27EDE521903080FB01219218
:100D00003082FC0121903080FF27EDE52192308276
:100D1000DF91CF911F910F91FF90EF90DF90CF90D7
:100D2000BF90AF909F908F907F906F905F904F900B
:100D30003F902F9008951F920F920FB60F9211249B
:100D40000BB60F922F933F934F935F936F937F93C5
:100D50008F939F93AF93BF93EF93FF93E091EE0236
:100D6000F091EF0280859185019691878087A28519
:100D7000B385828593858D7F22E030E0892B11F445
:100D800021E030E0AA0FBB1FAE0FBF1F6D917C9119
:100D9000D901AA0FBB1FAE0FBF1F8D919C91338746
:100DA00022876D5F7F4F03960E946806FF91EF9147
:100DB000BF91AF919F918F917F916F915F914F9173
:100DC0003F912F910F900BBE0F900FBE0F901F9071
:100DD00018958CE090E00E944008FC019093EF028F
:100DE0008093EE0281E090E09783868313861286DB
:100DF0001186108608955F926F927F928F929F92D4
:100E0000AF92BF92CF92DF92EF92FF920F931F9318
:100E1000CF93DF934C01B62EA72E742E652EE901D9
:100E2000C090EE02D090EF02D6011A968D919C915F
:100E30008D7F55245394EE24E394F12C892B29F0D3
:100E400092E0592E22E0E22EF12C8BE090E00E94FD
:100E500040088C01FC01528291828082B186A28678
:100E6000D683C583CE018A960E944008D801189681
:100E70009C938E931797FE017496E80FF91F1496B2
:100E8000FC93EE931397138A8BE990E0948B858BF8
:100E9000A28AB18A608A7786F60186819781019657
:100EA00097838683EE0CFF1CCE0CDF1CD6010D93BE
:100EB0001C93DF91CF911F910F91FF90EF90DF90E6
:100EC000CF90BF90AF909F908F907F906F905F90EA
:100ED0000895E091EE02F091EF02828593858D7F77
:100EE000892B19F082E090E0089581E090E0089568
:100EF000E091EE02F091EF0282E090E0938782872A
:100F0000EEE6F0E080818260808384B5826084BDFB
:100F100085B5856085BD8CE987BD7894E091EE024A
:100F2000F091EF02608171816D5F7F4F84819581C7
:100F300003960E9468060895CF93DF931F921F9235
:100F4000CDB7DEB784EF91E09A83898324E630E061
:100F5000AE014F5F5F4F61E276E082EE92E00E9469
:100F6000FB0624E630E04EEE52E06AE873E088EEDD
:100F700092E00E94FB060E9437030E9478070F90C0
:100F80000F90DF91CF91089582E08093C00010927E
:100F9000C50080E18093C400E1ECF0E080818861CD
:100FA00080838CE090E00E944008FC019093EF0267
:100FB0008093EE0281E090E0978386831386128609
:100FC000118610860E949C0790E080E0089597FBB0
:100FD000072E16F4009407D077FD09D00E942C0844
:100FE00007FC05D03EF4909581959F4F089570952C
:100FF00061957F4F0895A1E21A2EAA1BBB1BFD012C
:101000000DC0AA1FBB1FEE1FFF1FA217B307E407E7
:10101000F50720F0A21BB30BE40BF50B661F771F3F
:10102000881F991F1A9469F760957095809590951F
:101030009B01AC01BD01CF010895A29FB001B39FF8
:10104000C001A39F700D811D1124911DB29F700DD1
:10105000811D1124911D0895AA1BBB1B51E107C0DE
:10106000AA1FBB1FA617B70710F0A61BB70B881F38
:10107000991F5A95A9F780959095BC01CD010895C7
:101080000F931F93CF93DF938230910510F482E08A
:1010900090E0E091F202F091F30230E020E0B0E065
:1010A000A0E0309799F42115310509F44AC0281BB6
:1010B000390B24303105D8F58A819B816115710582
:1010C00089F1FB0193838283FE0111C0408151812C
:1010D0000281138148175907E0F04817590799F41E
:1010E000109761F012960C93129713961C933296F8
:1010F000CF01DF91CF911F910F9108950093F202DC
:101100001093F302F4CF2115310551F04217530724
:1011100038F0A901DB019A01BD01DF01F801C1CF5F
:10112000EF01F9CF9093F3028093F202CDCFFE014D
:10113000E20FF31F81939193225031093983288361
:10114000D7CF2091F0023091F102232B41F420916E
:101150000202309103023093F1022093F0022091B9
:101160000002309101022115310541F42DB73EB73F
:101170004091040250910502241B350BE091F002CE
:10118000F091F102E217F307A0F42E1B3F0B281792
:10119000390778F0AC014E5F5F4F2417350748F0F0
:1011A0004E0F5F1F5093F1024093F0028193919391
:1011B0009FCFF0E0E0E09CCFCF93DF930097E9F082
:1011C000FC01329713821282A091F202B091F302D5
:1011D000ED0130E020E01097A1F420813181820FF1
:1011E000931F2091F0023091F1022817390709F07E
:1011F00061C0F093F102E093F002DF91CF91089586
:10120000EA01CE17DF07E8F54A815B819E014115AF
:101210005105B1F7E901FB83EA8349915991C40F64
:10122000D51FEC17FD0761F4808191810296840F30
:10123000951FE90199838883828193819B838A83A7
:10124000F0E0E0E012968D919C9113970097B9F52C
:101250002D913C911197CD010296820F931F209101
:10126000F0023091F1022817390739F6309751F51D
:101270001092F3021092F202B093F102A093F002E6
:10128000BCCFD383C28340815181840F951FC8177F
:10129000D90761F44E5F5F4F88819981480F591FCC
:1012A000518340838A819B819383828321153105F9
:1012B00009F0B0CFF093F302E093F2029ECFFD016C
:0E12C000DC01C0CF13821282D7CFF894FFCF8B
:1012CE000000F402200030313233343536373839ED
:1012DE004142434445463078005B324A00537973AD
:1012EE0074656D2074696D652069733A20004E75C2
:1012FE006D626572206F662074687265616473201A
:10130E00696E207468652073797374656D3A200078
:10131E005468726561642069643A2000546872658D
:10132E006164206E616D653A200053746172746958
:10133E006E67205043206F66207468726561643A50
:10134E00200042797465732075736564206279207C
:10135E0074686520737461636B3A20005374616323
:10136E006B2073697A653A200043757272656E74EC
:10137E0020746F70206F6620737461636B3A200067
:10138E00537461636B20626173652069733A200048
:10139E00456E64206F6620737461636B2061743ACE
:0E13AE002000626C696E6B00737461747300D2
:00000001FF
